:020000040002F8
:10300000C03400201DC6020073400200C34102000C
:10301000CB4102002B420200674202000000000088
:103020000000000000000000000000000F5002003F
:10303000635A02000000000027670200FB780200CC
:10304000E3BF0200B7840200A5B9020067C2020014
:10305000E5B302009F8B0200B3A602008F9A020024
:10306000C3A0020053A10200EFA302008FAA020036
:1030700053B0020081C50200FBC5020007C6020072
:10308000F5C6020027890200F7C60200F9C6020051
:1030900093890200FBC60200338F0200FDC60200C6
:1030A000FFC6020001C7020003C7020005C70200F5
:1030B00007C7020009C7020000000000000000006E
:1030C0000BC702000DC702000FC7020011C70200A4
:1030D00039C2020013C7020015C702000000000039
:1030E00000000000000000000000000000000000E0
:1030F00000000000000000000000000000000000D0
:1031000000000000000000000000000000000000BF
:1031100000000000000000000000000000000000AF
:10312000000000000000000000000000000000009F
:10313000000000000000000000000000000000008F
:10314000000000000000000000000000000000007F
:10315000000000000000000000000000000000006F
:10316000000000000000000000000000000000005F
:10317000000000000000000000000000000000004F
:10318000000000000000000000000000000000003F
:10319000000000000000000000000000000000002F
:1031A000000000000000000000000000000000001F
:1031B000000000000000000000000000000000000F
:1031C00000000000000000000000000000000000FF
:1031D00000000000000000000000000000000000EF
:1031E00000000000000000000000000000000000DF
:1031F00000000000000000000000000000000000CF
:1032000010B5024652E8004F04EB010042E800030B
:1032100093F0000FF6D110BD38B504460025DFF855
:10322000940B00EB8500416809B1204688476D1C6E
:10323000042DF4D331BD884205D2006810F1010F8E
:1032400001D00120704700207047418800EB8100C9
:103250000C30704738B504460D46FFF7F6FF85423F
:1032600001D2022032BDA1884FF6FF7081421CBFFF
:103270002088002801D1012032BD002032BD68B174
:103280000168DFF8342B914208D14068DFF8982BB1
:10329000801A04D0401E01D10120704703207047DE
:1032A000F8B50D4602211446298000F1080600F504
:1032B00080570FE0B068DFF8941B8A6A824238BFFB
:1032C000886271882888C91C081828803046FFF752
:1032D000BCFF064639463046FFF7ADFF68B13946B8
:1032E0003046FFF7B7FF0028E4D00CB10121217070
:1032F0000228E6D14FF480602880F1BD0389CA1C02
:10330000D31842890381511AC91E4181704780B583
:103310000020DFF8381B0FF20C02896900900823A7
:103320000BE00000DEC0ADDEFF011EF180B50146FE
:103330000020009008230FF20C02DFF88C0B00F045
:103340000CFE02BDDEC0ADDEFE011EF130B5C01CBC
:1033500080B240F2FE32904201DB092030BD0023F2
:103360001424DFF8682B5C43144422783AB9258989
:1033700062892D185519ADB2B5F5806F04DB5B1C61
:10338000022BEDDB072030BD0B8061894018608186
:10339000002030BD1422DFF8343B514319444A89E0
:1033A000101AC01E4881704770B50C4600F0A8F88E
:1033B0004168206801F5805518B901F1080603E05D
:1033C0003046FFF742FF064629463046FFF733FFF7
:1033D00058B129463046FFF73DFF18B1022804D006
:1033E000F2D2EDE72660012070BD002070BDF8B577
:1033F00005460C466A68DFF8546A100024D0DFF8EE
:10340000C83ADF681146B94224BF1B698B421BD3FF
:1034100012F0030F02BF28893389984202BF28683F
:103420009368984210D1DFF8F42A0020151D142368
:103430004343EB588B423CBF03F58053994215D36D
:10344000401C0228F3DB1AE00020208000200090BE
:1034500020886946FFF7A8FF58B100982A6881685C
:103460009142F5D168603089288100E020800120F8
:10347000F2BD2088401C208080B20228E6DB0020BC
:10348000F2BD2DE9F041DFF8C489044698F8100038
:103490000D4617461E4608B902202FE0002F18BF20
:1034A000002E05D1052029E03060B088401CB08096
:1034B000B088022821DA1421DFF8602A4843105C22
:1034C0000028F2D1B0883146FFF76EFF0028EBD01C
:1034D0003068002C1EBF828823889A42F2D1002DCA
:1034E0001EBF02882B889A42ECD1816839607860CF
:1034F000B8F808003881002000E00A20BDE8F0811B
:103500001421DFF8182A48431044704710B50146CB
:10351000DFF80C0A00F0E4FD04461C2100F04EFE2A
:10352000204610BD0146DFF8F80900F0FBBD2DE98B
:10353000F84F4FF0000900254FF0030ACB46C8466C
:10354000DFF80849DFF88009C168681C80B201EB28
:103550000837009000F0DDFC3846FFF790FEF0B130
:10356000012828D003283ED1002057F8201011F15F
:10357000010F47D1401CB0F5806FF6D3A06930B180
:1035800002213170776031816580009D04E0A76180
:103590000220A0834FF0010B49F0010923E03070B5
:1035A000776006F1100206F108013846FFF778FE51
:1035B00049F002092BE05FEA0B0006D002203070D0
:1035C000A069706002203081009DA761002204F193
:1035D0001C013846FFF764FEA08B02280CBF0420B4
:1035E000082040EA090908F10108B8F1020FA9DD35
:1035F0001FFA8AF00228B8BF4FF000095FFA89F07D
:10360000BDE8F28F77600320AAF1010A3070009DB7
:10361000E9E710B582B00C46002100910423014671
:103620000FF61012DFF8A00800F097FC08B10E208A
:1036300016BD1420DFF8E428444310190121017459
:10364000002016BD38B5DFF80448DFF8802861880F
:10365000142041435518DFF87008E96829B904229D
:10366000227000236968012206E0052121700023F1
:103670000221A1830122A16901B0BDE8304000F020
:103680009CBC80B5DFF8C407416842684B880321C1
:103690000170DB1C002100911B048169808B01EB10
:1036A00080019B0B49E680B5DFF8A007011D40882B
:1036B000FFF77AFE10B1BDE80140E2E7BDE8014046
:1036C000C0E70000DFF88407DFF8502803781421F2
:1036D000072B00D9704730B5DFE803F0043030170E
:1036E0001F2C2C2E03895B1C0381002400234480A3
:1036F000037301FB03F4145D641EA441C5185B1C35
:10370000E40F022BAC72F4DB16E042685388818B25
:10371000DB1C5918818302210FE0448883696143CF
:1037200011444A6882614B60828B0A810221818345
:10373000062102E0072100E00121017030BD0000F8
:1037400070B502460F20DFF804471AB1002060610F
:10375000012070BD0A79DFF8C4571426032A3DD82A
:10376000DFE802F002071C2801200871FFF7CFFDF7
:1037700034E029780020022908D116FB00F6002049
:10378000A855281D8059FFF7D1FD27E0297D01208C
:103790000229F2D0207400206061EDE00020087161
:1037A0000220A0830023A169DFF81C07012200F09A
:1037B00004FC13E000200871A069FFF7B7FD6188E1
:1037C000A2694E43291D8959A161291D8A51A91950
:1037D000A28B0A810222A28300220A7010B100206B
:1037E00060610E2070BD0000F8B50D461421AB8A53
:1037F000DFF828274B43D61828B1E9883046FFF771
:103800007DFD0120F2BD70683189DFF8BC7600EBE8
:103810008104A87D062855D8DFE800F0113D1C2D55
:10382000044851000020106302F12801A869D06209
:1038300002F12C00FFF7DBFD08B90A20F2BD0220DF
:1038400000F047F82A1D2146384600F086FB00B3F9
:103850000E2438E02869002814BF0320012000F05E
:1038600038F805F10C0204F10801384600F075FB48
:103870000028EDD10DE00120A87504F10C01002015
:1038800000903846EB882A699B0000F066FB002810
:10389000DED100241BE0287803280CBF0520062079
:1038A00000F017F805F10802211DDEE70620A875D3
:1038B000118D106BFFF7ADFE040004D107E041F657
:1038C0001D5400E00F24E9883046FFF717FD20461D
:1038D000F2BDA875042300200090704770B508B1B0
:1038E000012070BDDFF86445207B00281ABF00214D
:1038F0002173FFF7E7FE20781421401E0628DFF829
:103900001C2633D8DFE800F004351C1F32222B00C0
:1039100000230026E518A87A58B1AE7201FB03F522
:1039200002F10C004059002802BF5019057C012DFE
:103930001ED05B1C022BEDDB2670668066601BE0F0
:10394000BDE870409DE6BDE870407BE60620207033
:10395000101D628851434058BDE87040E6E40720DE
:10396000207000206060BDE87040D0E40F2070BD82
:103970006380BDE8704096E641F61D5070BD0000C2
:103980002DE9F04786B004460FF2AC5541F61D5ABA
:10399000DFF8B874F86A07F1C00807F1D00920B958
:1039A0004946404600F0CEFBF862FE6A3078401E81
:1039B00005285ED8DFE800F00316161B1B593146B8
:1039C0002046FFF7BDFE0446002C00F0A88014211D
:1039D000684600F0F7FB544503BF00200190002427
:1039E000019448E031462046FFF7FEFEEBE70CB1BC
:1039F0000124ECE73079E0B1022801D002D332E0B3
:103A00005446E1E707F120036A460021B01DFFF7A5
:103A100038FD040005D1B98C0198FFF7FAFD044682
:103A200004E007F120000021C0E900110A2CCBD1ED
:103A3000E6E70220307101A895E80E0080E80E004C
:103A4000F0680190694601A8FFF7D1FC48B10298DF
:103A50008188F18001883181BDF80010FFF7D9FD20
:103A6000B1E70A24B0E70F24AEE72046FFF736FFA0
:103A7000A9E70F24ABE7F86A0178491E052936D873
:103A8000DFE801F032291C10050305202DE0042198
:103A90008DF800100021C088ADF80C00ADF80E10B4
:103AA000029124E003218DF80010C288ADF80C20AB
:103AB0000189ADF80E10C068029018E0022100F0F4
:103AC00031F8C1680291807D06280CBF01200020DA
:103AD0008DF810000BE0012100F024F80021C068EF
:103AE00002908DF8101002E000208DF8000068466A
:103AF000FFF792FB0020F8624946404600F04EFB7B
:103B000007F13003012753E8002FA2EB070043E839
:103B1000000191F0000FF6D100287FF439AF06B014
:103B2000BDE8F0878DF800100289ADF80C2081887F
:103B3000ADF80E107047000010B5DFF8E83301242F
:103B400053E8000F00EB040243E8002191F0000F5E
:103B5000F6D110B9BDE8104012E710BD40680FE77C
:103B60002DE9F043DFF8688383B0044698F810002D
:103B70000D46994608B9022056E00DB9052053E0DC
:103B800029884FF6FF7081421ABF688800280420F8
:103B90004AD0287910F0030F07D142B9AF686946BF
:103BA000B8B2FFF7D3FB30B13EE003203CE0108811
:103BB000ADF80000578801A8FFF7A8FC060006D161
:103BC000BDF80010B8B2FFF7E5FB08202CE086F83E
:103BD00000900020B0750121BDF80000B082686837
:103BE000306108F12800FFF70BFBF060B9F1030F1B
:103BF000288830816888B080F78003D10420B075B0
:103C00002068B0610020708101A8FFF78BFC44B1EF
:103C100000206060F06820600020A072B8F8080002
:103C20002081FFF789FF0020BDE8FE8310B5614ABF
:103C30001168042901D10C2010BD136802EB830424
:103C4000012160601046FFF7DBFA002010BD000084
:103C500030B587B001A8142100F0B4FA7B4C207C69
:103C6000E0BB04F11403012553E8000F40EA05020C
:103C700043E8002191F0000FF6D1002853D1DFF87E
:103C8000A8020168DFF8A4020268406811F1010F80
:103C900004BF014651438C480161A1F54051C16008
:103CA0000022DFF88C1200F04DF900283CD11C23D3
:103CB0008C2204F1340104F1C00000F0DBF9FFF7BD
:103CC00036FC050018BF022802D0062802D009E001
:103CD0000B2029E0012020740020606101A8FFF77B
:103CE0009BFA20E000F0D6F808B908201CE001217A
:103CF000012D18BF032D01700AD0052D18BF072D07
:103D00000BD0092D06D00A2D06D00B2D02D005E0D0
:103D1000002102E0032100E0022101716846FFF763
:103D200001FCFFF709FF002007B030BD70B50400AB
:103D30000D4618BF002D82B001D1052076BD694621
:103D4000FFF755FB98B1BDF80030744A666814203F
:103D50004343D01801210C30FFF752FA2E606068FF
:103D600000F10C01696000200121A17276BD0A20DA
:103D700076BD10B5040082B001D1052016BD69469C
:103D8000FFF735FB98B1BDF8002064491420424389
:103D90000A44D16800291CBFA07A002805D0D16848
:103DA000491ED1600020A07216BD062016BD0A2053
:103DB00016BD000068440020DEC0ADDE38B50D46FB
:103DC00000F02EF808B9022032BD0CB9052032BD32
:103DD00069462846FFF7BAFA18B9BDF800102180E5
:103DE000658032BD38B500F01BF808B9022032BD3D
:103DF0000CB9052032BD21880B46022B0EDC1422A3
:103E0000464D60885343EA18C51C5389AB4205DB15
:103E1000FFF7C0FA00202080608032BD042032BD50
:103E20002B490446087C7047FE011EF102230AE07C
:103E3000002A1CBF0223FFF793BE0520704708B974
:103E400005207047032300228AE600003C3E002044
:103E500010B50F4982B00446087C08B9022016BD8F
:103E60004FF6FF718C4201D1042016BD00F012F80C
:103E700008B9082016BD05210170C4800121017117
:103E80006846FFF74FFBFFF757FE002016BD000006
:103E90003C3E00206846FFF739BB10B50C4C82B0A1
:103EA000207C08B9022016BDFFF7F4FF08B90820EE
:103EB00016BD062101706846FFF734FB207808B173
:103EC00001212173DFE70000042C0020C8420020FC
:103ED0003C3E002003B581B002A901A8FFF7D1FA4A
:103EE0000EBD01B513460A466946002004E001B53F
:103EF00013460A4600216846FFF7C3FA02BD0028B0
:103F000018BF002901D10520704700680860002013
:103F1000704714210148694346187047C842002081
:103F2000FC3E00206C3E0020141000101000001019
:103F300084C502000000FFFF000000000000000038
:103F400000000000002818BF002901D10E20704792
:103F500001601146026813681847F8B50400154659
:103F600018BF002D0F461E4601D10E20F2BD20685D
:103F700008B90820F2BD36B160684068B6FBF0F1C0
:103F800000FB116008B10920F2BD17F0030F08BF54
:103F900015F0030005D132463946204600F05CF8A2
:103FA00008B91020F2BD069800902A4620462468E1
:103FB000E56833463946A847F2BDF8B505000E4618
:103FC00014461F4601D10E20F2BD286808B908200A
:103FD000F2BD0CB90920F2BD68680268511E0E429C
:103FE00005D162433146284600F036F808B9102062
:103FF000F2BD22462C68284625693B463146A84733
:10400000F2BD38B500281CBF0168002917D1002473
:104010000E4D00E0641C0E480E49401A1422B0FBFD
:10402000F2F294420FD214216143681869580029B2
:10403000F0D0C96988470028ECD0012032BDC96999
:10404000BDE834400847002032BD0000F02B0020BE
:10405000182C0020F02B0020C368994207D3006978
:104060005118491E88428041C043C00F704700204C
:104070007047FEE710B509B90E2010BD92FBF3F4AE
:1040800003FB14240CB1092010BD016082810021C2
:1040900041608160C381002010BD000081B050E804
:1040A000022FC188B2EB324F4FF0000317BF92B21C
:1040B00041EA014142EA014104E04268B2EB324F79
:1040C00008BF012340E80212002AE8D18DF8003031
:1040D0009DF80000002814BF0020112001B0704797
:1040E0003CB550E8015FAAB2C3891A4483899A4259
:1040F00028BFD21A03899A4202BFBFF32F8F002430
:1041000007E0C2EA050240E80123002BE9D14FF0A5
:10411000010400F03AF81AB100680988084436BD75
:10412000002036BD0A8849888A4209D150E8011F1B
:10413000C1EA014140E80112002AF7D1012070478D
:10414000002070473CB550E8025F1FFAA5F2C38813
:104150009A4202BFBFF32F8F00240DE0C3891A4497
:1041600083899A4228BFD21AC5EA024240E8022354
:10417000002BE8D14FF0010400F007F81AB10068F5
:104180004988084436BD002036BD01958DF80040B1
:10419000019A0A609DF80020704700000A8849884B
:1041A0008A4209D150E8021FC1EA214140E80212C7
:1041B000002AF7D10120704700207047002200F04C
:1041C00005B8FEE7002200F035B8FEE7401810F011
:1041D000030308D0C91A1FD3DB0748BF00F8012D1D
:1041E00028BF20F8022D130030B4144615461039AC
:1041F00028BF20E93C00FAD8490728BF20E90C0075
:1042000048BF40F8042D890028BF20F8022D48BF80
:1042100000F8012D30BC7047C91818BF00F8012DF7
:10422000CB0728BF00F8012D7047FEE762F30F228D
:1042300062F31F4200B500BF130096469446103942
:1042400028BFA0E80C50FAD85FEA417C28BF0CC018
:1042500048BF40F8042BC90728BF20F8022B48BFED
:1042600000F8012B00BDFEE7DFF86817497800F081
:104270008CBCDFF86017C97800F087BCDFF85417F2
:10428000097900F082BC10B50446608800F0E0FDBA
:10429000A0802046BDE8104000F0C3BF30B585B017
:1042A00004460D4668460FF2487100F098F8ADF8E4
:1042B0000240029500F096F805B030BDF0B585B02B
:1042C00004460D4616461F4668460FF2387100F048
:1042D00086F8DFF800070178ADF802408DF8085045
:1042E000ADF80A608DF80C700022204600F05BFCEF
:1042F00000F078F805B0F0BD13460A460021DDE76E
:104300002DE9F041DFF8CC760D46397804461646A3
:1043100000F03BFCA0B32046FFF7A6FF50B32046B9
:1043200000F096FD8046B978204600F02EFC00286B
:1043300014BF012702272046FFF79BFF18B1404614
:1043400000F004FE0FE04FF6FF7080450BD0072110
:10435000404601F04FFA002818BF052803D0014657
:104360002046FFF79BFF33462A4639462046BDE8E4
:10437000F041A3E7324629462046BDE8F041BBE7BD
:10438000BDE8F081F0B5DFF84C760E46144639787A
:1043900085B00546324600F006FCF6B12200797879
:1043A00018BF0122284600F0FEFB012CB9780CBF93
:1043B00001220022284600F0F6FBF9780022284668
:1043C00000F0F1FB68460FF2146100F008F8ADF858
:1043D00002508DF8084000F005F805B0F0BD142239
:1043E00001F098BA68464EE738B504460D466AB102
:1043F00093B1DFF8E005C1780122204600F0D3FB3D
:1044000029462046BDE8344000F09FBD23B1284630
:10441000BDE8324000F09ABD31BDF0B5064683B02C
:1044200006F10C0000F04AFD002407464FF6FF7528
:104430003088AF4203D100F00BFD074602E0394659
:1044400000F083FD308800220121FFF79BFFAF427F
:1044500010D000F026FA68B9019800F13405297CE3
:10446000C80706D406F10C0105F1120000F011FD99
:1044700000B12C46308800230022214686DF05004B
:1044800008D030883946FFF7AFFF30882946FFF75C
:1044900005FFF7BD4CB930883946FFF7A5FF3088D6
:1044A000002241F20601FFF727FFF7BD10B586B0E5
:1044B000044614216846FFF785FE04208DF80000AD
:1044C000ADF80240FFF78EFF06B010BD0A78DFF8A6
:1044D0000415097900F067BB2DE9F047054688B05F
:1044E0002E88304600F01DFB0746304600F0B0FC39
:1044F000002200248146DFF8DC040178304600F019
:1045000052FB002FC84648D06879C0F380000028CD
:104510002BD000F06AF901244FF6FF770100BA466C
:104520001DD10198394600F05CFC8246BA450FD097
:10453000D0464146304600F008FD3046FFF79EFE6B
:1045400030B93046FFF7B2FF3046FFF797FE48B16B
:1045500042460721484601F099F9010003D0304650
:10456000FFF79CFE0024BA4506D03046FFF781FED7
:1045700010B1484600F0EAFC02208DF80800ADF8C2
:104580000A606879C0F3800000B902208DF810003D
:104590008DF8114002A8FFF776FE08B0BDE8F0875D
:1045A00010B504462078182802D100F0DCFA2070FB
:1045B00010BD10B5DFF81C442046FFF7F1FF601C6A
:1045C000FFF7EEFFA01CFFF7EBFFE01CFFF7E8FF93
:1045D000201DFFF7E5FF207818281CBF61781829F7
:1045E00007D0A07818281FBFE1781829207918284B
:1045F00001D1032010BD002010BD2DE9FC41089C15
:104600000546884616461F4644B16B4601220721DF
:10461000404601F071F8112801D010B10320BDE827
:10462000F68101985021FFF7C9FD019806700198A5
:1046300000F134012160E760019800F11801216167
:104640000198411CDFF89003E0616161019800F17D
:104650001101284600F009FC0028DFD1072140465F
:1046600001F0DCF80528DAD1D8E72DE9F24F8AB05D
:104670008046144600F055FA05464046FFF7F9FD1E
:104680000746202101A8FFF79DFD00264FF6FF7A7F
:10469000012DD146DFF83CB305D19BF80410002270
:1046A000404600F080FA15B943F202002DE00A9866
:1046B00000283ED00078C20704D40BF1080004940F
:1046C000089015E0404600F0C3FB8146D1451FD15C
:1046D00000F0ECFF8146D1450FD0012701A80090E2
:1046E00023462A4649464046FFF787FF040028D163
:1046F000012D20D10A9A01AB1FE0032400223B4682
:1047000049464046FFF770FE20460BB0BDE8F08FEB
:10471000012DE3D14046FFF7B1FD0028DED1404630
:10472000FFF7C4FE4046FFF7A9FD0028D6D1852635
:10473000E0E78526DCE701AB0022314640467FDF1B
:104740000446002CDAD1721E9241D20FD7E72DE930
:10475000F04383B08046894615460227002635B9C6
:1047600000217EDF0446042C39D1112427E028786B
:10477000C10716D501274FF6FF74A14503D100F0FC
:1047800095FF81460126A14508BF03240ED000F005
:104790002CF8040004D10721484601F03FF80446F4
:1047A0001CB9294640467EDF0446E4B1072148464D
:1047B00001F020F8002818BF0528D4D003240021D8
:1047C0003A464046FFF7DEFD621E9241D20F334665
:1047D00049464046FFF708FE2046BDE8FE83611EBD
:1047E0008941C90FECE70121EAE76B460122072165
:1047F000484600F081BFF0B50C0083B00646154670
:1048000001D17EDFFEBD73480179304600F0CBF95F
:10481000304600F01DFB07464FF6FF70874238D048
:10482000002D36D100F03DF804000DD1019890F82C
:10483000441000F1180411F001011CBF00F1340410
:104840000D46A4B9112404E0052CFBD0112C18BF8F
:104850000324002100223046FFF794FD621E92419E
:10486000D20F002339463046FFF7BEFD17E035B9B9
:1048700004F1120000F051FB08B90B24E9E72246CD
:1048800004F11201304685DF0446611E8941C90FDB
:10489000E0E7224639463046FFF759FF04462046F6
:1048A000FEBD6A460721384600F023BF70B50546B5
:1048B0000C46164600F035F9012807D002280BD126
:1048C000324621462846BDE8704094E700202CB1CE
:1048D000214628467EDF70BD43F2020070BD30B530
:1048E000044685B0208811280AD0132811D0142836
:1048F00029D019283FD01A284AD01E2827D067E08F
:10490000207A3D280CBF41F23D014FF4885100222E
:104910003AE0A08800F005F9012808D1207AC10703
:104920004CBF01220222A0880121FFF72BFDA588A0
:104930000FF2E4016846FFF752FD04F10800ADF8FC
:104940000250029042E0201DFFF767FD40E06846FC
:104950000FF2D801FFF743FDA088ADF80200207ADE
:1049600000F001008DF80800207A400800F00100F6
:104970008DF809002AE0217A19B9201DFFF7ACFD56
:1049800026E0627A02F00302A088FFF7B9FC1FE07C
:10499000A088FFF769FCD8B9A08800F0D9F830B931
:1049A000A088012241F20601FFF7A6FC10E00948A9
:1049B0000178A088002200F0F6F802208DF80000AF
:1049C0000020A188ADF80210ADF80800FFF70AFD3D
:1049D00005B030BD8C2B0020942B0020010000007E
:1049E00000000000000000000000000000000000C7
:1049F00007000000000000000000000000000000B0
:104A000000000000030000000000000000000000A3
:104A10000000000000000000050000000000000091
:104A20000000000000000000000000001200000074
:104A30000000000000000000000000000000000076
:104A400070B5044692B02088664D102804D0112815
:104A500045D01A2848D062E0AA6C686C20EA0202AD
:104A6000291D01A800F0E1FF00260BE0002102A8AB
:104A700000911D2230F8163005F14401281D00F088
:104A8000A0FF761C01988642F0D3686CA688C043CC
:104A900000F083FF4FF6FF71884216D0291D0123D5
:104AA00021F81060324605F14801281D00F082FF10
:104AB0000123324605F14401281D00F07BFFE07B15
:104AC00002280CBF0123002305E012B0BDE87040AE
:104AD000042000F0C7BFA28805F14C0119E0A288AC
:104AE000002305F1480114E0207AA2880009022879
:104AF000ACBF0123002305F15001281D00F05AFF2F
:104B0000207AA28800090228CCBF0123002305F1E6
:104B10005401281D12B0BDE8704000F04BBF12B028
:104B200070BD70B500F00DF8002540B1F16C224663
:104B3000301D00F06AFF002814BF02250125284619
:104B400070BD284E716C04462246301D00F05DBFDA
:104B500002462448016D001D00F057BF21494A6CF0
:104B6000091D00F062BF1F490A68002022FA00F305
:104B7000DB0705D5401CC0B21828F7DB18207047AA
:104B8000012383401A430A607047024615480368B0
:104B9000CB40DB0705D500EB8103001D996D00F0CC
:104BA00034BF0020704738B50E4C13462268CA4007
:104BB000D2070AD5024604EB810505F15801201DF4
:104BC00001B0BDE8304000F0F5BE31BD05490A68CE
:104BD000C240D20703D501EB8000806D70470020F2
:104BE00070470000D03F002070B50024DFF88453E8
:104BF000DFF884630C2262432A4431785088FFF73F
:104C0000C4FF20B1641C142CF4D3FF2070BDE0B2AB
:104C100070BD10B50446DFF8600301782046FFF749
:104C2000B4FF58B10020DFF84C130C2242430A4471
:104C30005388A34204D0401C1428F6D3FF2010BD93
:104C4000C0B210BDF8B50C46FF260546002C1CBFAF
:104C50004FF6FF77BD421ED0DFF81C03017801221A
:104C60002846FFF7A0FF2846FFF7D3FF0646FF2E92
:104C700002D1FFF7B9FF0646FF2E0CD00C2010FB27
:104C800006F0DFF8F0120A180F525580101D214669
:104C9000072200F02FFE3046F2BD0022815C21B9D0
:104CA000521C102AFAD3002070470120704780B5AB
:104CB000002818BF002905D002780B785208B2EB03
:104CC000530F01D0002002BD0622491C401C00F0F9
:104CD000DBFE401E8041C00F02BD30B5014693B0DF
:104CE0000C88102C3DD105A8091D342200F012FEBD
:104CF0009DF8180040084FF6FF7503282C4615D084
:104D000001F02EF89DF81800400802D0022831D09A
:104D10000CD200F07EF848B1029800F1110106A80B
:104D2000FFF7C5FF0028F4D0BDF80040BDF814001F
:104D300006A9FFF787FFAC4213D0BDF81400214647
:104D400000F0F8F8BDF81400ADF80200ADF804402A
:104D500000208DF80000684601F06AF9684601F00D
:104D600064FB13B030BD0298411C06A800F02EF978
:104D70000028D9D100F04DF80028F4D1D6E770B55D
:104D800004460D461022691C601C00F07DFE50B9DF
:104D9000601CFFF782FF30B1681CFFF77EFF060042
:104DA00002D0012600E0002605F1110104F11100F6
:104DB000FFF77DFF617C4908022918BF03290CD049
:104DC000697C4908022918BF032906D0012130B99E
:104DD00081F001010E40304670BD0021F8E7012648
:104DE000F9E73EB504460D4600F0BAFF00F011F8B1
:104DF00060B1BDF80000A842F8D002992046FFF744
:104E0000BEFF0028F2D0BDF800003EBD4FF6FF7097
:104E10003EBD01AA6946072000F0A7BF10B5DFF824
:104E20005841DFF85011182020704FF6FF72002013
:104E30000C2343430B44401C14285A80F8D3FFF73B
:104E400092FE1828207001D1032010BD002010BD53
:104E500080B5FFF7DEFEFF2804D00C21454A484309
:104E6000105A02BD4FF6FF7002BD10B50C46FFF799
:104E7000D0FE0246FF2A0AD00C213E4B4A43991825
:104E80002046091D072200F035FD002010BD052039
:104E900010BD38B504460D4600F03FF818B1208823
:104EA0002988884201D0002032BD0822A91CA01CFC
:104EB00000F0EAFD401E8041C00F32BD10B584B045
:104EC000044600F04DFFFFF7A4FF88B1029800F1FF
:104ED00046012046FFF7DDFF38B9029800F12A01AC
:104EE0002046FFF7D6FF0028EDD0BDF8000001E016
:104EF0004FF6FF7004B010BD20B500211D4A0C23F1
:104F00004B43D55AA84205D0491C1429F7D34FF674
:104F1000FF7020BDD018408820BD018841B9002213
:104F20008118897821B9521C082AF9D300207047CA
:104F30000120704710B50C46FFF76BFEFF2803D029
:104F40000C210C4A4843145210BDF3E738B504460F
:104F5000FFF7D2FF0546204600F0AAFB04464FF6B5
:104F6000FF70854204D01CB901462846FFF7E2FFD6
:104F7000204632BD743C0020E644002030B50D468A
:104F80008DB0144600214A420244D27B0DF8012024
:104F9000491C1029F7D30D2104A8FFF713F90020AD
:104FA0004342295C0DEB0302401C0328D177F7D361
:104FB000684643DF002042420DEB020191F82F10BA
:104FC0002154401C0328F6D30DB030BD3EB5044635
:104FD0000D4620784008022801D000203EBD032263
:104FE000611C02A800F086FC0322211D684600F027
:104FF00081FC01AA69462846FFF7C0FF032201A9E8
:1050000002A800F041FD401E8041C00F3EBDFEE7FA
:1050100000F0FABF70B5044610460022002586292C
:1050200008BF012202D0112908BF0125DFF808645A
:1050300060B1B17B00F0CAF8717B2A4600F0C6F877
:10504000B17A002200F0C2F8002203E0B17A00F049
:10505000BDF82A46717A2046BDE87040FFF7A3BD2F
:1050600070B50C001CBF112C082C86B006461546E6
:105070002DD068461421FFF7A5F8ADF80260304640
:10508000FFF7E6FE0D2CADF8040013D103208DF8D8
:10509000000025B12978C80748BF012000D40220AC
:1050A0008DF8080041F2011100208DF80C00ADF8D8
:1050B0000A1009E0862C03D106208DF8000003E0D9
:1050C00007218DF8001002946846FFF7A1FF06B093
:1050D00070BD30B585B00D4605218DF80010ADF8D6
:1050E00002001446FFF7B4FEADF8040002950394E5
:1050F0006846FFF78DFF05B030BD2DE9F047044647
:105100000E46300086B017461D46DFF82C8328D0A7
:105110004FF000093A4649462046FFF7C7FB824652
:10512000002251462046FFF775FFBAF1000F98F8AC
:105130000C101CBFBAF1080FBAF10D0F36D0BAF13E
:10514000110F07D0BAF1860F2BD043F2020292451D
:105150002CD02DE0324600F039F800F034F800266B
:1051600027E003A800210022002380E80E00D8F8E1
:105170001000039003A991E80C106846002180E814
:105180000C106A462046FFF7A4FF98F80800DDF8E7
:105190000090002804BF9DF809000028BAD105201E
:1051A0000EE0324600F012F800F00DF8564600E02E
:1051B000032625B14A4651462046FFF751FF3046A7
:1051C00006B0BDE8F08798F80B103A462046FFF786
:1051D000EABCF0B587B0044603A8002200230025EE
:1051E00080E82C00944D2869039003AA92E8C80037
:1051F00068466A4680E8C8002046FFF76AFF6A6989
:1052000000992046FFF731FA05460122294620463B
:10521000FFF700FF009A29462046FFF721FF07B05D
:10522000F0BD10B504462078052802D0122805D01C
:105230001EE0A1686088BDE81040CAE77E4A106998
:10524000002178B11078227A02B1012200F0010326
:10525000934207D3627A400802B1012200F00100B4
:10526000904200D20121608801230022FFF745FF10
:105270002046BDE81040CBE62DE9F04192B004464F
:10528000FFF7A4FCD8B16846FFF768FC00256A4F19
:1052900012E000F02FF870B1F97A3046FFF775FC94
:1052A0008046397B3046FFF770FC014601234246B9
:1052B0003046FFF722FF6D1C00988542E9D312B0FB
:1052C000BDE8F08170B592B00446FFF77FFC78B17D
:1052D0006846FFF743FC002507E000F00BF818B123
:1052E00000213046FFF775FF6D1C00988542F4D30E
:1052F00012B070BD684600EB4500214686883046F6
:10530000FFF743BC10B500784B4C0838032807D989
:105310000B380CD1A07BFFF7D5FFA07AFFF7ACFFCD
:10532000607BFFF7CFFF607ABDE81040A4E710BDB7
:1053300010B504462078182802D1FFF714FC20701D
:1053400010BD10B53C4C04F10900FFF7F1FF04F16A
:105350000A00FFF7EDFF04F10B00FFF7E9FF04F18E
:105360000C00FFF7E5FF04F10D00FFF7E1FF04F18A
:105370000E00FFF7DDFFA07B182801D1032010BD30
:10538000002010BD80B5FFF7AAFA2B48407ABDE88F
:10539000024071E7B0B30278910701D4110631D40D
:1053A000C2F3021104292DDC02F0F201322929D0C6
:1053B000417883788B4225D3072923DB112B21DA0F
:1053C000C178C1F38003002B02BF0079C0F38003D2
:1053D000002B17D1C1F3C003002B04BFC0F3C003DF
:1053E000002B0FD1D20701F0030106D4002908BF1A
:1053F00010F0030F06D101207047002908BF10F0FC
:10540000030FF8D10020704738B504000A4D02D1CF
:105410000020286108E0FFF7BDFF48B1284621467B
:10542000052200F067FA2D6101202872002032BDAC
:10543000072032BDFFF74AB8D42B00204FF6FF718A
:1054400001800022FF2181704173027342608260FB
:10545000817B01F0FC018173704730B50A68DFF889
:10546000243400E0521C012A06D814011D5B854239
:10547000F8D10A60181930BD002030BD38B5044697
:105480000D460020009069462046FFF7E6FF58B120
:105490008178A94204BF817B11F0030F01D181689B
:1054A00011B10098401CEDE732BD38B50446002527
:1054B00007E0617BDFF8D0036918C9B201F01DF97C
:1054C0006D1C207B8542F4D32046BDE83240B5E711
:1054D00070B5044600250FF2FC3656F8251020461C
:1054E00088476D1C042DF8D370BD81704260502137
:1054F0004B439BB2DB1C9B10038070479BB2F4E7CD
:105500008178012918BF062906D0072902D0082969
:1055100005D07047142100E00121018070474168E7
:105520008A88093292080280704730B504460FF22B
:10553000B430DFF85053D0E9002383B0CDE9002325
:10554000A0788DF8020005F12800617B01F0BFF81A
:10555000020033D0237BA1786846FFF7CFFF68466F
:10556000FFF7CEFF6268208804F10803694600F067
:1055700049FCA17B01F00302032A02D12B6A5B1EC6
:105580002B622A6A521C030006D0072817D0112864
:1055900005D086280BD011E001F0FC010CE001F0F1
:1055A000FE012A6241F00201A17300203EBD01F01C
:1055B000FD012A6241F00101A1733EBD03203EBD01
:1055C000F0B50546AF4EB26885B0E868002400210A
:1055D00082421EBF1021B269824214BF002070189F
:1055E0002978082905D0092909D0132908BF0124E1
:1055F00011E0697A79B970B1FFF757FF0BE0697A6A
:1056000049B940B1316A491C31628460817B41F003
:105610000201817302E02846FFF75AFF306A88B121
:1056200000252F0106F10E00C05D810703D4C007DD
:1056300005D5200003D0F019FFF777FF20B96D1CC6
:10564000012DEED905B0F0BD4FF6FF71ADF8021097
:105650008628F25BADF8042003D106208DF8000007
:1056600003E007218DF8001002906846FFF730FF35
:10567000E8E710B5834C84B02046FFF7DFFE04F165
:105680001000FFF7DBFE5020022101220290019161
:10569000009204F12403A02204F1380104F128004F
:1056A00000F0C2FF00B1032004B010BD00F0F7BB52
:1056B00038B50024054600940AE08178284600F0B9
:1056C00099F800281CBF052803240098401C00906E
:1056D00069462846FFF7C1FE0028EED13CB92846AE
:1056E00000F0E1FB18B107280CBF07240324204673
:1056F00032BD002300F000BB2DE9F84F81465FEA80
:1057000003080E46154608BF0E206CD0072E18BFA2
:10571000082E05D125B1032D02D200F0D0FB08B927
:10572000072060E031464846FFF7A8FE0027040046
:10573000DFF850A112D0207BA84228D2BB4605E05A
:10574000617B594400F051F80BF1010B217B5FFAAA
:105750008BF08842F4D32046FFF770FEFF214FF60E
:10576000FF70FFF78BFE040020D0A4F80090A67015
:10577000607BFF281DD129460AF1280000F07AFF3E
:10578000FF28607314D12046FFF758FE0EE08542D3
:10579000EED2A946217B5FFA89F08842E8D2617B8C
:1057A000494400F022F809F10109F3E711201AE059
:1057B0000127617B25730AF1280000F088FF08B9F2
:1057C000032010E00246ABB231464046FFF78DFEA3
:1057D00047B1082E06D1B8F800008000811FD8F824
:1057E000040081800020BDE8F28FC9B20AF12800D0
:1057F00000F083BF38B5FFF741FE0025040001D15A
:10580000052032BD606820B100F0F5FA050018BF30
:1058100003252046FFF749FE284632BDF0B507298B
:1058200018BF082983B00D4601D00720FEBDFFF741
:1058300025FE0026040001D10520FEBD6068F0B9F8
:10584000617B114800F043FF02000FF2A000D0E995
:105850000067CDE900678DF802500ED0237B294602
:105860006846FFF74BFE6846FFF74AFE211D684673
:1058700000F0AAFA0646092E01D10320FEBD3046EB
:10588000FEBD0000643D00208C3D002038B5072996
:1058900018BF08290C46154601D0072032BDFFF776
:1058A000EDFD08B9052032BD05808470BDE83240A9
:1058B0003BE600F006BB00F006BB80B513889B00FA
:1058C00000936B4600F018FA02BD1346002200F068
:1058D00099BA0000255F020005530200FD6802002E
:1058E00053640200000000000000000000000000FF
:1058F0000000000062B38B0708D0521E11F8013B74
:1059000000F8013B00F024808B07F6D1830740F0BC
:10591000208000BF103A07D330B4B1E83810103AF5
:10592000A0E83810F9D230BC530724BFB1E8081002
:10593000A0E8081044BF51F8043B40F8043BD207EC
:1059400024BF31F8022B20F8022B44BF0B780370E0
:105950007047121F17D35B0009D151F8043B20F8A0
:10596000023B1B0C121F20F8023BF6D20BE051F851
:10597000043B00F8013B1B0A20F8023B1B0C121FE2
:1059800000F8013BF3D238BF121D521E24BF11F89C
:10599000013B00F8013BF8D870470146002021FA8E
:1059A00000F2D20705D4401C80B22028F7DB4FF666
:1059B000FF70704780B500931346012200F001F894
:1059C00001BD00B9704738B5002918BF002A07D0BB
:1059D000002430F814509D4203D0641C202CF8D3CE
:1059E00031BD04988DF810000125002305FA04F458
:1059F0009342F5D2049851F8235000280CBFA543D8
:105A0000254341F823505B1CF2E710B538B1002361
:105A100030F81340944204D05B1C202BF8D30020B4
:105A200010BDD94001F0010010BDF0B591B00023C8
:105A3000009381B16D4622FA03F4E40708D5009E75
:105A400031F8134005EB4607BC80009C641C0094B1
:105A50005B1C202BEFD369464422FFF75BFF11B09C
:105A6000F0BDFEE710B584B0694600220023002493
:105A700081E81C0000F001F81FBD02906A46002179
:105A800044F2010000F050BE0300002013F0030FA9
:105A900009D0521E22BF13F8010B11F801CBB0EB55
:105AA0000C00F3D0704711F0030F14D1121F22BF66
:105AB00053F8040B51F804CB6045F7D0121D0AD2FD
:105AC00000BA9CFA8CFCB0EB0C0038BF6FF0000001
:105AD00088BF01207047521E22BF13F8010B11F836
:105AE00001CBB0EB0C00F6D0521C08BF104670473B
:105AF0004FF6FF714180FFF763BDB0F5404F05DB06
:105B00004FF6FF71884201D0012070470020704796
:105B1000072818BF012807D0082818BF052803D078
:105B2000062818BF042801D10120704700207047C3
:105B3000F0B58BB00021CDE900114FF6FF75284676
:105B400003E0204600F06EFE204600F0B5FE04465D
:105B5000AC4225D0A4F580466A4602A9B0B2FEF751
:105B6000C6F90A28EDD0954F7878C8B90121797027
:105B7000B0B2FEF76DF90546082D02D1012038704C
:105B80000EE06DB100207870142205A80FF23C31B0
:105B9000FFF7C0FEADF81840079505A8FFF7A8FF6E
:105BA0000BB0F0BD7CB504460D4616462846FFF7FF
:105BB000AFFF0021CDE90011A4F58040A5F580419B
:105BC0006B46324689B280B2FEF784F900B10520F7
:105BD00076BDF0B585B0054668461421FEF7F2FAA9
:105BE000AE89764C06F58046ADF804604FF6FF7737
:105BF0002878401E022804D9C01E29D0401E3FD05C
:105C000046E0A889FFF779FF28B9E889B0F5404F49
:105C10003EDBB8423CD0E8898DF80800297803299A
:105C20000CBF012000208DF80900A8680390686867
:105C300048B908208DF800009DF8100040F00100E0
:105C40008DF8100021E009218DF8001004901CE06F
:105C5000A889FFF752FFD8B1E989C9B9686830B996
:105C60000A218DF80010B0B200F0DCFD02E00B203C
:105C70008DF80000002121706170FFF759FF04E0EA
:105C800013208DF80000ADF804706846FFF730FF70
:105C9000207818B100212170FFF74AFF05B0F0BD50
:105CA00010B588B04648FDF7C1FF08B1032021E0D8
:105CB000FDF7CEFF08B186201CE000F069FD002151
:105CC000CDE900110DE002A904A8FEF72FF8029813
:105CD000848804A8FEF74DF804F58044A0B200F0D3
:105CE0008FFD6A4604A94CF20700FEF7FAF8002877
:105CF000E9D0002008B010BDF0B50546B5F5807FAD
:105D000085B00E4617461C4603DA3046FFF700FF03
:105D100008B9072017E002AA31462846FFF742FFDC
:105D200020B9694602A8FEF701F808B105200AE08B
:105D3000BE70009842883A803CB90198786002A809
:105D4000FEF717F8002005B0F0BD206892009042E1
:105D500004D301997868FFF7CDFDF0E70420F2E75E
:105D600018480021C0E90011704770B586B004469C
:105D70000D461646FFF7CCFEE0B1A4F58040114A6F
:105D800002A980B2FEF7ADF820B9694602A8FDF776
:105D9000CDFF08B100200EE0B4700098418831803A
:105DA000019870600098818801F58041298002A8DF
:105DB000FDF7DFFF012006B070BD0000E4440020C5
:105DC000D35B0200D044002038B504460D46A078CD
:105DD000FFF79EFE08B9072032BD21882846FDF74F
:105DE000EDFF38B1072802D0092803D001E0862052
:105DF00032BD032032BD01B56846FDF7F3FF00B1A7
:105E0000032002BD74B50546B5F5807F87B00E4608
:105E10001C4603DAB078FFF77BFE08B907203CE0A8
:105E2000A5F58040ADF8000003AAB178A1F5804047
:105E3000ADF8020070680190284631880291B1786F
:105E4000FFF7B0FE052807980BD120B9694603A8D3
:105E5000FDF7ECFF0DE007AA694603A8FDF7E8FF90
:105E600007E010B107A8FDF7BDFF694603A8FDF7DD
:105E7000E6FF30B107280DD0082818BF0E2807D03C
:105E80000AE01CB1214603A8FEF739F8002004E01F
:105E9000112002E0862000E0032008B070BD4FF61C
:105EA000FF7000F0ADBC80B5B0F5807F01DB07204E
:105EB00002BD00F0A7FCFFF73BFE002002BD00F092
:105EC000BDBC00F0E5BC00F0F7BC0000070000001E
:105ED00000000000000000000000000000000000C2
:105EE00038B50446002505E001EB850120460A6926
:105EF00090476D1CDFF84013C8788542F4DB31BD54
:105F000010B5DFF834430023002204F10C01A01D7A
:105F100000F03EF9002816BF05280120002060701F
:105F200010BD0000F0B5044685B0A088DFF8085326
:105F3000FEF7E2FF012760804FF6FF762278A9681E
:105F4000A878083A032A4AD8DFE802F0021E2C4F4C
:105F5000EB886878627A52B959B1E268914208D107
:105F60000020A860A088E8800020E06038E0012AD6
:105F700036D1002834D0A088984204BF207A062861
:105F80002ED1FFF7BDFF2BE0607A48BB41B3E0683C
:105F9000814225D10020A8600021E868401EE86009
:105FA000E1601DE098B13046FFF783FCB0420ED1AE
:105FB0003046FFF780FCB04209D100F0E3F800F072
:105FC000D9F82046FFF78CFF00F0D2F80027687858
:105FD00028B1A188E888814208BFFFF791FF17B177
:105FE0002046FFF77DFF05B0F0BD0028F8D000F097
:105FF000C9F80D2000F0BFF8A06802902046FFF716
:106000006FFF00F0B5F8EEE710B504000ED0207871
:1060100002280AD1DFF82002217A0129017960885B
:106020000CBF01220022FEF7BEFD0CE010BD57E7B9
:1060300010B50446207830B9DFF8FC316088197952
:106040000122FEF7B0FD2046BDE8104048E710B53C
:10605000DFF8E4110446087850B12046FEF73DFE13
:106060002046FFF78FF92046BDE8104000F049BAFE
:1060700010BD10B5FFF714FE00281FD1FFF7F9FA85
:10608000E0B9FFF75EF9C8B9FEF793FAB0B900F0CE
:1060900017FA98B900F03BFC80B9FEF7BFFE68B96B
:1060A000DFF894414FF6FF70E0800020A0601820D8
:1060B0002071FEF758FD1828207101D1032010BD72
:1060C0000020607001202070002010BDDFF86821E2
:1060D000117809B908207047D178032901DB042021
:1060E000704702EB8103491C1861D1700020704792
:1060F000DFF844211178002918BFFFF785B908207F
:106100007047002918BFFFF795B97047DFF82811CD
:106110000878002818BF00F03BBA704770B5464DAC
:10612000287886B008B908201EE00121A9704FF632
:10613000FF763046FFF7BDFB0446B44205D100F0C0
:1061400021F800F017F800F013F8B4420BD02878CB
:1061500060B12046FEF7FAFE002807D12046FFF77F
:10616000A8FB0446F1E7002006B070BD0320FBE762
:106170006846B5E60C208DF80000ADF80460ADF877
:10618000026070470020A87014216846FEF71AB814
:106190002DE9F34F2849087883B014461D4608B905
:1061A000082045E04FF6FF784046FFF782FB0FF2EC
:1061B0008C038346D3E900010022CDE9010100925E
:1061C000CDF808D001AA06215846FFF776FB002734
:1061D00007284FF0FF36C146C24614D1052027E0FC
:1061E0000020009058460099B94224BF0F46D94676
:1061F000B1423CBF0E46DA46FFF75BFB834601AA7D
:106200000621FFF75AFB0028ECD00528E8D0C3454B
:106210000DD10399002009B1A1F80090049901B1B2
:106220000F600CB1A4F800A015B12E6000E00320AF
:1062300005B0BDE8F08F00003844002001000000E8
:106240000000000010B504466088FEF701FEA08043
:106250002046BDE81040FFF7EABE30B585B00446E1
:106260000D4668460FF2703100F0D6F8ADF80240E6
:10627000029500F08BF905B030BD30B585B004460D
:10628000684614210025FDF79DFF4FF6FF708442FC
:10629000ADF8024020D0204600F07FFB010008D07E
:1062A0000B280AD0112806D043F2020290420DD0EA
:1062B00009E00E2002E0012508E00F208DF8000023
:1062C00000F064F902E02046FFF7C7FFC1484178BB
:1062D0002A462046FEF767FC05B030BD0A46BD4998
:1062E0000978FEF760BC2DE9F04F97B08046FEF7C5
:1062F0006DFC002851D005A8FEF730FC00250FF2F8
:10630000EC2A0FF2FC2BB34C07E0FFF7A6FF75E079
:106310000021201D00F0EAFB6D1C0598854278D213
:1063200006A8414630F815904846FEF72EFC002896
:10633000F2D06178884503D14846FFF79EFFEBE72E
:10634000217888452AD10021201D00F0C4FB0028B7
:10635000E2D0484600F0E1FA00260027010011D003
:1063600011290DD0862904D043F2020291420ED0A9
:106370000AE06846514600F04FF800F005F906E0E3
:10638000012604E0012702E04846FFF766FF314698
:106390004846FFF7A3FF002FBAD03AE0A17888451E
:1063A000BAD1E1784846FEF7F0FB0028B4D1484660
:1063B00000F041FB01270026010018D0062818BF75
:1063C00008280DD011281CBF43F20202904215D0BC
:1063D00043F201429042484697D1FFF74EFF0DE04D
:1063E0004846FEF735FD00F041FB002706E0684611
:1063F000594600F011F800F0C7F80126A1783A4696
:106400004846FEF7D0FBE17832464846FEF7CBFB24
:1064100082E717B0BDE8F08F1422FFF77BBA6D4812
:10642000007860E76B4880785DE710B50446217816
:1064300071B96088FFF721FF608800F0EDFA38B18C
:10644000644881786088BDE810400122FEF7ABBB4C
:1064500010BD7CB504462178082904BF607A002865
:106460002BD1207A5B4E01284FF6FF7511D00728FB
:1064700006D0082802BF0021301D00F037FB1CE0C9
:10648000A088FEF739FDA84217D00121FFF726FFAB
:1064900013E0A0886A460121FFF72BF968B901993A
:1064A000087850B1A088FEF727FDA84205D0B17842
:1064B0000122FEF778FBFFF7B5FFFFF7B0FF73BDD2
:1064C00010B5444CFEF74FFB2070FEF74CFB60709C
:1064D000FEF749FBA070FEF746FB2178E070182913
:1064E0001CBF6278182A04D0A178182918BF182870
:1064F00001D1032010BD0121201D00F0E6FA00208B
:1065000010BD30B585B001888588324C50291FD028
:10651000522902D0542904D02BE02846FFF7ADFEC3
:1065200027E068460FF2EC01FFF776FFADF8025066
:106530002846FEF78DFCADF8040000F097FAE178EC
:1065400000F01EF8A17800F01BF800F01FF810E032
:10655000017B012904BF827A012A02BF008942F629
:106560000211884205D101212846FFF7B7FEFFF747
:1065700056FF6078FFF7B7FEFFF754FF05B030BD58
:1065800000222846FEF70FBBADF80290684659E698
:1065900030B591B000F036FA6846FEF7DFFA002415
:1065A00011E0684600EB440085882846FEF750FC61
:1065B0004FF6FF71884204D1064881780122FFF727
:1065C000E0FF641CA4B200988442EAD311B0BDE895
:1065D000304027E7D84400200700000000000000FA
:1065E00000000000000000000000000006000000A5
:1065F000000000000000000000000000000000009B
:10660000100000000000000000000000000000007A
:106610000000000011000000000000000000000069
:10662000000000000000000038B5002818BF002955
:106630001ED0EBB1059D069C6543AA4221BF049A7A
:10664000059CE41DB2EBD40F12D3059C002C1CBF9B
:10665000069A002A0CD00160436005998160069972
:10666000C1600599406889B200F02FFA002032BD60
:10667000072032BDF8B504000D461CBF2168002973
:1066800023D0606808B3FF2700260AE03946204679
:1066900000F033F87F1CFFB2B742F7DBFF27761C10
:1066A000F6B2A068864210D26068314600F013FA54
:1066B00040B1FF2F08BF3746F01B401CA842EED167
:1066C0003846F2BDFF2FEAD0E5E7FF20F2BD38B52E
:1066D00004001CBF206800280D460CD0606800280C
:1066E00018BFFF2D07D000F038FA20B1E06821680C
:1066F0004543481932BD002032BD38B504001CBFE7
:10670000206800280D460DD06068002818BFFF2DB6
:1067100008D000F022FA28B160682946BDE834406C
:1067200000F0E4B931BDFEE710B500F091FC00F0D7
:1067300075FB0028FBD1104C10492088000440F064
:10674000010000F04DFB0E480168CA0700D500BEED
:1067500020880C49000440F0020000F041FBBFF328
:106760004F8F094909480A6802F4E06202430A604F
:10677000BFF34F8F00BFFDE7842C0020A4C50200AB
:10678000F0ED00E0B0C502000CED00E00400FA05F9
:1067900010B54A4C40212046FDF714FD4FF480719E
:1067A000204600F092F904F12000BDE810404FF4BB
:1067B000807100F08AB970B50446084621464FF64C
:1067C000FF75A9422E4609D14FF4807100F0ADF952
:1067D0000646B6F5807F08D12E4606E0B1F5807FEB
:1067E00003DA00F078F900B12646304670BDB0F506
:1067F000807F0A4603DA0146104600F077B97047F9
:106800002E49D8E710B504464FF6FF70844207D0F2
:106810002B492046FFF7CFFFA04201D1012010BD38
:10682000002010BD38B5254D04462946FFF7DFFF8F
:1068300005F120012046BDE83440D8E70146B1F516
:10684000807FBCBF1D4800F088B90020704701461A
:10685000B1F5807FBCBF1A4800F07FB900207047B7
:1068600070B54FF6FF76B0420D4608BF002404D045
:10687000441CA4B2B4F5807F08DA2146284600F013
:106880006CF908B1204670BD641CF2E7304670BD5B
:1068900038B50A4D2946FFF7E3FF04464FF6FF706F
:1068A000844207D02046FFF7D2FF00281CBF2946AC
:1068B0002046F0D1204632BD0149D1E74C420020AC
:1068C0006C42002030B50FF2C01083B0D0E9004513
:1068D000CDE900450022634C20886946FEF7F5FFAC
:1068E000014620884FF6FF72904218BF112904D04C
:1068F000FEF7DFFF20800022EFE737BD594801880F
:106900004FF6FF72914218BFFFF7DCBF7047554941
:106910004FF6FF700880002070472DE9FC410546C6
:10692000FEF796FA80464FF6FF70804508BF43F2A7
:10693000020021D00127BFB26B463A4608214046EB
:10694000FEF7DAFE002604467F1C14BB01980321E3
:106950000160021D811D03232846AADF04000DD01B
:106960000C2C12D1012608214046FEF743FF00B14E
:106970000324002EDFD12046BDE8F68142460821DF
:106980004046FEF783FF0446F5E7052CEBD10024D3
:10699000E9E7072CEFD10C24EDE72DE9FC41804617
:1069A000FEF756FA00240026032501274FF6FF7153
:1069B000884210D06A460821FEF79BFE58B901981C
:1069C00086880568841D06E0002C08BF002E0FD0C5
:1069D0000024002603252B46324621464046A9DFE7
:1069E000042803D0082806D1002000E0112007B9B0
:1069F0000B20BDE8F6810B28F9D10027A807E3D5C5
:106A00000125E8E780B54FF6FF70FEF752FF154904
:106A10000880BDE8014055E7E0B5CDF808D0FEF7A5
:106A200017FA01AA0121FEF764FE08B100200EBD8D
:106A3000029800780EBD10B503460B4C2046ABDF24
:106A400000284FF6FF7204D0032010BD2088401CA0
:106A5000208018462188A7DF43F203018842F5D041
:106A600010BD0000E0440020E24400200FF22001AD
:106A700000B5D1E9002383B06946CDE900230022A7
:106A8000FEF723FF07BD0000010001009CC60200C5
:106A900001000100A0C6020070B5044682B0207853
:106AA0000D46002628420ED18DF80060684600F0A1
:106AB000FBFA2078284202D10543257001269DF873
:106AC000000000F00FFB304676BD18B1C91DC9109B
:106AD000FDF774BB70470B4638B1012103F0070284
:106AE0009140C9B200EBD300D6E7704770B50446B9
:106AF0004D05012001F007062D0E00FA06F682B0C2
:106B0000F6B2002C1CBF605D30420DD000218DF824
:106B10000010684600F0C8FA615D21EA0606665575
:106B20009DF8000000F0DEFA73BD70B504000D465C
:106B300011D0002600E0761CAE420CDA012106F0EE
:106B400007008140C9B204EBE600FFF7A5FF00286B
:106B5000F1D0B0B270BD284670BD38B1CA0801F09E
:106B60000701805CC84000F00100704701207047B9
:106B700010B50146012451E8003F43EA040041E812
:106B8000000292F0000FF6D110BD80B5DFF8E004EE
:106B9000FF21816000210160416000F214404160EA
:106BA000016001720FF2E04000F0B8FA80B9DFF83E
:106BB000C414DFF8C404DFF8C424081A002103E079
:106BC0000C234B43D152491CB1EBD00FF8D300201A
:106BD00002BD70B5A1B1DFF89C24DFF89C140668F3
:106BE000DFF89834511A002200E0521CB2EBD10FAA
:106BF00008D20C2454431C446588B542F5D1026088
:106C0000002070BD052070BD01B56846FFF7E1FFAB
:106C100028B9DFF86C14009851F8300002BD00204C
:106C200002BD0000491EDFF85824032902EBC00012
:106C30000BD8DFE801F002040608022070470420A8
:106C40007047007970474079704700207047000016
:106C500070B5DFF81C4484B004F58360FFF788FF4B
:106C600004F214452846FFF783FF6168A06805E039
:106C7000C2F3891303EB92535B1C591804F10C0205
:106C800000EA010302EB8302126812F0030FEFD057
:106C9000002204F10C0300EA010653F826304DF8F7
:106CA0002230491C521C012AF3D9009800F003003D
:106CB000012807D0022809D1009A920DD21C01EBBD
:106CC000920103E00098C0F383104118002655E8B4
:106CD000000F00EA060345E8003292F0000FF6D1FB
:106CE00000B161607FBDF0B5059CDFF8845305F10C
:106CF0000C065F1C23402740040904F001044FEAFE
:106D0000104CC00000F0380040EA840040EA8210D5
:106D1000C0F3090046F827C00C3540EA812040F056
:106D2000010045F82300F0BD70B582B00E46002189
:106D3000841C8DF80010684600F0B6F9DFF8305377
:106D400029683160A61C01E0FFF782FFA868296866
:106D5000401C411A68684118B142F5D32968A868F7
:106D6000014005EB810101F10C00026842F00302D1
:106D70000260286824189DF800002C6000F0B2F929
:106D8000012076BD2DE9F043DFF8E47283B081463F
:106D900088461E46BD68144601A93046FFF7C4FF69
:106DA000A8B10198801C002108E005EA000207EB69
:106DB000820254F82130D360401C491CB142F4D304
:106DC000019B0095324641464846FFF78CFF97F8F5
:106DD0001C0418B100F022F80028FBD1BDE8F783AD
:106DE00000230022CEE780B50092012300F014F8C2
:106DF00001BD00B583B0009201936A460223FFF7FC
:106E0000C1FF07BD10B584B0069C009201930294A7
:106E1000032300F001F81FBD6A46B3E72DE9F04FE8
:106E2000934E70683168884285B000F0BC8006F5EA
:106E300082670020B860BFF34F8F7068B46805E0C8
:106E4000C1F3891202EB9152521C101806F10C0189
:106E500004EA000201EB8201096811F0030FEFD090
:106E60004FF0000806F10C0104EA000251F822106C
:106E700001AA401C42F8281008F10108B8F1010FDE
:106E8000F0D9019901F00301804602290FF2F810B0
:106E900048D1019D0199AD0DA946502DA8BF50259F
:106EA00065F39F51019105F1080100F039F95FEA9E
:106EB000000A36D000F07CF900F0A0F804EA0801DE
:106EC000641C641AA00006F10C02A84202EB8101C6
:106ED00017D228B9AB4606F10C010024002503E0C7
:106EE000834606F10C042D1A5FFA8BFB08235A46E1
:106EF000504600F0AFF94CB10BF10803EAB221465D
:106F000001E008232A46504600F0A4F909F10300E5
:106F100008EB90083D68B86800284FD0504600F054
:106F200055F95EE0019901F00301012933D101997E
:106F3000019AC1F383110629A8BF062122F47072B9
:106F400042EA811201920199C1F38311891C8900DF
:106F500000F0E6F85FEA000A43D000F029F900F0FB
:106F60004DF80020C146082580460198C0F38310E3
:106F7000804541D206F10C0004EA090100EB8101D1
:106F80002B460422504600F065F909F101092D1D38
:106F900008F10108E9E7019800F00300032804BFA5
:106FA000B86800281DD1002023E0687A012804D1A8
:106FB0002A6813685146284698476D68002DF4D119
:106FC000504600F003F900208DF80000684600F0FC
:106FD0006BF8B86808B9C6F804809DF8000000F0A6
:106FE00081F87068316888420CBF0120002080F071
:106FF000010005B0BDE8F08FC8468BE700230822EA
:1070000001A9504600F026B910B502460020184BE1
:10701000D3F8101400E0496871B10C7A8442FAD1B7
:10702000401C0A28F4DB4FF0FF3010BD4968516066
:10703000D3F810144A6010BD10F1010FFBD010728C
:10704000D3F810140029F1D1C3F81024516010BDF9
:1070500010B50C4804680121017306E0012060723C
:10706000204621684A6890476468002CF6D110BD1C
:10707000C034002030C30200C0C20200182C00201F
:10708000C0C20200D0380020C8440020C044002004
:10709000C8440020103F002018000000EFF31080CB
:1070A00072B6704762B6704738B50446FFF7F6FF10
:1070B000164A0146906870B9012393601448154B35
:1070C0001D68054015601860586850604FF0FF302B
:1070D0005860002000E00120207011B9BDE8314067
:1070E000E0E731BD10B5094CA16869B160B9FFF79F
:1070F000D5FF094922680A6062684A600021A160E0
:1071000010B9BDE81040CDE710BD0000A444002038
:10711000FC06FFBD80E100E000E100E000F0A5B862
:107120002DE9F04105460F462E8A00F0B5F8361FCE
:10713000040021D000202071F7190120FF1C60718C
:10714000A046B7FBF6F7E680FFB27F1EC8F80050F6
:10715000002607E06179491C6171C8F800000560EC
:107160008046761CBE4209D2284600F095F80028D9
:10717000F0D1204600F005F8002000E02046BDE8F0
:10718000F081F8B501460D464C79601E002200E002
:10719000521C2D688242FBD3002605E00F6828466A
:1071A00000F09CF83946761CA642F7D3F1BD0000EA
:1071B00010B5031D012453E8002F02EB040143E83E
:1071C000001090F0000FF6D110BD000038B5041D7E
:1071D000012554E8002FA2EB050344E8003191F0AB
:1071E000000FF6D100939DF8001011B9BDE83240B0
:1071F000C7E731BD2DE9F04706461B1DF788B3FBF5
:10720000F7F007FB1033002801E03668401EFCD180
:10721000FC1A9046A242089D88BFA0464FF0000A83
:1072200089461446A4B109EB0A00334429004246BA
:1072300006BF0146181D191DFEF75CFB00233668CA
:10724000A4EB0804C244BC42A046EBD9B846E9E727
:10725000BDE8F08710B582B0002402E010B582B01E
:1072600001240094FFF7C6FF13BD10B508B90E2026
:1072700010BD0368416882681960521A03E00B6808
:107280005C1C0C601A7013465A1EDBB20168002B9E
:10729000F5D10020087110BD38B5044600258DF8E1
:1072A00000506846FFF700FF216862680868824264
:1072B0000ED2421E0A601578208AE3684543A06812
:1072C000821A1D440879D3B2984238BF1846087113
:1072D0009DF80000FFF706FF284632BD38B50C4682
:1072E000002105468DF800106846FFF7DDFE28688E
:1072F00001684A1C0260E868241A288AB4FBF0F08E
:1073000008709DF80000FFF7EDFE31BD032817D887
:10731000DFE800F002071013DFF828240FF24841DD
:1073200003E0DFF820240FF270411088000440F0E1
:1073300003000DE00FF2844104E00FF2BC4101E0D4
:107340000FF2E441DFF8FC030088000440F0010084
:10735000FFF746BD007840B9DFF8EC2310883B21E9
:1073600076DF002818BFFEF77DBB7047FEF77ABBBB
:1073700080B5002000F0EBFB08B1FEF773FB00F0D6
:1073800084FC08B1FEF76EFB32DF00B10BE001BDFB
:1073900080B530B1032805D1022000F0D8FB08B138
:1073A00001E079E001BDBDE80240FEF75BBB10B52E
:1073B000044688B02088012822D0102808D021282F
:1073C00011D03B2818D051281ED0562814D03EE0AA
:1073D000072000F0BCFB08B1FEF744FBA088DFF8F3
:1073E0006813088033E00FF20C510A88ADF80020D2
:1073F0006946A0888FDF27E0A088132176DF23E08D
:10740000A088002166DF1FE06846A11D1022FEF75C
:1074100071FA9DF80000D0B19DF8080004281CBF47
:107420000628052813D19DF80000022807BF022175
:107430008DF8101001208DF810004FF4C171ADF8D7
:10744000141004A9A088A8DF08B1FEF70BFB08B050
:1074500010BD80B50021BD4800F0DBFC00B1A2E703
:1074600001BD80B5B8490A88042804D0072806D091
:107470000A2810D110E01321104676DF06E04FF6FF
:10748000FF70824207D1081D00F0FAFF082818BFDC
:10749000002800D087E701BDBDE8014068E7000093
:1074A00038B50446A74D20780F283DD8DFE800F016
:1074B000083C0E3C1E3C28383C363C382F383C33C8
:1074C00028880FF2A83100F043F831BD6088FDF73D
:1074D00028FB0246207A0FF2C0310090288863888A
:1074E000000440F00300FFF78DFC31BD0FF20840AF
:1074F00001788DF8001069466088FEF702FE31BD04
:10750000FCF7CBFC0E2818BF08280DD009E000209E
:1075100000F00BF831BDFEF7F9FD31BD206900E048
:10752000A06808B1FEF79EFA31BD80B5012808D1E8
:10753000844A0FF22831108800F00AF8FEF7EEFDB9
:1075400003E00321824800F077FE00B12BE701BD84
:10755000000440F00300FFF743BC80B501F01AFAC5
:1075600008B1FEF77FFA0020FFF70FFB08B1FEF726
:1075700079FA01F08FFA7749012000F0F3FA08B1A7
:10758000FEF770FA01F0F0FA6946002000F0CDFB3A
:1075900008B1FEF767FA01F010FB08B1FEF762FAD6
:1075A00001BD10B5A8B001F046FC08B1FEF75AFACB
:1075B000002000906946012001F0D0FC08B1FEF7E0
:1075C00051FA684601F05DFD08B1FEF74BFAFEF78F
:1075D00050FD08B1FEF746FA05216846FCF7F2FDBA
:1075E00031208DF80000072110208DF802008DF861
:1075F00001109DF8030040F003008DF803009DF892
:10760000040040F003008DF804006846FEF770FDAA
:1076100008B1FEF727FA5048FEF758FD08B1FEF70B
:1076200021FA11208DF800000A220FF22421684669
:107630007CDF08B1FEF716FA01A800210022C0E99C
:1076400000125020A021ADF80610ADF804004FF450
:10765000C871ADF80820ADF80A1001A87ADF08B1AA
:10766000FEF700FAFFF7F5FE0FF2842001680091A3
:1076700001F098FE08B1FEF7F5F9684602F01EF831
:1076800008B1FEF7EFF9A0216846FCF79BFD022048
:107690008DF80000002105208DF803008DF8021000
:1076A0000121294CADF84C1004F1DC0014908DF848
:1076B0007C101FA84FF49671C160B4210161274965
:1076C000C161201D694600F01CFD08B1FEF7CAF932
:1076D0000121201D00F012FD1C216846FCF772FDFF
:1076E000002000904FF420314FF47020029001915F
:1076F00000200321ADF80E008DF810008DF80C105D
:107700001748184905900691684602F083F808B1B9
:10771000FEF7A8F928B010BD80B5FFF71EFFFFF7F0
:1077200040FF08480FF2B0110088FFF711FF00205A
:10773000FFF7FBFEFFF772FB0028FBD101F05AFABE
:10774000F8E70000842C0020682A00207C440020F8
:107750006C2A002063740200A1740200917302007D
:10776000557302006D730200446576696365206994
:107770007320707265706172696E6720746F206526
:107780006E74657220626F6F746C6F6164657220D5
:107790006D6F64652E00000044657669636520772F
:1077A000696C6C20656E74657220626F6F746C6FAB
:1077B00061646572206D6F64652E0000526571759D
:1077C00065737420746F20656E74657220626F6FCC
:1077D000746C6F61646572206D6F646520666169A9
:1077E0006C6564206173796E6368726F6E656F7526
:1077F000736C792E000000005265717565737420FA
:10780000746F2073656E64206120726573706F6E93
:10781000736520746F20636C69656E74206661699E
:107820006C65642E00000000556E6B6E6F776E20E5
:107830006576656E742066726F6D20626C655F643C
:1078400066755F627574746F6E6C6573732E00007D
:1078500052414B3831335F444655000045726173E5
:107860006520626F6E64732100000000436F6E6ECE
:10787000656374656420746F206120707265766939
:107880006F75736C7920626F6E64656420646576D1
:107890006963652E00000000436F6E6E6563746956
:1078A0006F6E20736563757265643A20726F6C65E4
:1078B0003A2025642C20636F6E6E5F68616E646C85
:1078C000653A20307825782C2070726F6365647576
:1078D00072653A2025642E004170706C6963617492
:1078E000696F6E20737461727465640A0000000031
:1078F0000D730200000000000000FEE74FF0A04200
:1079000002EB8000D0F8002722F44032C0F80027B4
:10791000D0F8002742EA0142C0F80027704701F082
:107920000DB9F8B505460E4601F02AF9002428BB2A
:10793000B74F787886B1022E17D017D23C7840B175
:10794000FA1D4FF4004107F1540001F059F800B955
:10795000FD71B878387209E007F1540001F068F859
:10796000BC78387AA04209D100E0044620001CBF50
:107970003969002902D0BDE8F4400847F1BD00781C
:107980000221CEE7A249887900281CBF002001F01F
:10799000B0B801F0B3B800002DE9FC419C4C06469C
:1079A0006079002510B16571FFF7ECFF8DF800607C
:1079B000304617280190974FDFF85C82974E5FD8CA
:1079C000DFE800F08B0C0C1C232E40464A524A5232
:1079D000A45F5F5F5F5F8B8E949BA4A49DF80050B3
:1079E00000F0A7F828B100F0A1F8022D12D18C4EBA
:1079F0001EE001F079F8022D1AD00FE000F099F89E
:107A0000A0B100F093F8874E12E000F092F818B1A0
:107A100000F08CF846460BE001F066F83E4607E0C1
:107A200000F087F810B100F081F801E000F07BF879
:107A30009DF8000020710021304600F06FF80146EB
:107A4000002218E0002001F05DF80620207107E018
:107A500000F069F807205DE00120607101F052F844
:107A6000002240F6CD4106E00120607101F04AF8A5
:107A700000224FF4804104F1140000F0C1FF0546DC
:107A800049E004F1340000F0D3FF05460198D0F13D
:107A900011001CD0DDB9022814D380B2C82148439C
:107AA000C117C90341EA5041C00310F5FA7041F112
:107AB000000100F033F80146002204F1340000F028
:107AC0009FFF0546022001F00FF8012003E002208D
:107AD00001F00FF80020A0711DE0FFF753FF17E041
:107AE000FFF750FF00F01FF8132013E0FFF74AFFE5
:107AF000012000F0F9FF14200CE0FFF743FF00F035
:107B000012F8012000F0F0FF152003E000F0F8FF6C
:107B10009DF8000020712846BDE8F6814FF47A7286
:107B2000002301F03DBF002000F0DEBF002000F088
:107B3000E0BF002000F0D4BF3548017BCA0744BF36
:107B40000079FFF729BF7047022000F0DBBF80B546
:107B50002F4A137B0021DA0702D5FFF71DFF0146EC
:107B6000084602BD70B5054629480024C56001617C
:107B7000A80720D5002606E001220121304600F0AA
:107B800030F80446761C54EA0600F5D03CB940F2C1
:107B9000666201210FF2BC0001F0CFFF044614B968
:107BA00001F0FEFF044634B91F4A0FF2A400002181
:107BB00000F012FF0446E80748BF00F0B1FF34B9F7
:107BC0001A4A0FF28400002100F006FF044634B97F
:107BD000174A0FF27800012100F0FEFE044620460D
:107BE00070BD0346002083B9012A03D101290CBFCF
:107BF0000E220022064B31B1022902D005D21A70A2
:107C000070475A7070479A7070470720704700009D
:107C100040410020F401C800F401D007F4016400E1
:107C2000F4018403F40190017F790200397B0200A2
:107C3000497B020080B500F0AAFF0321FFE7FFF7B0
:107C40005DFE002002BD0000544100207441002070
:107C5000944100201B0003002379020080B501221B
:107C600000F05AF8002818BF07280DD100F058F886
:107C7000002818BF072807D10A22002100F04DF87C
:107C8000002814BF0728002002BD80B50020FFF7A0
:107C9000D1FF002818BF062806D10120FFF7CAFF30
:107CA000002814BF0628002002BD10B52B4C014649
:107CB00009886068102902D011291FD010BDC8B9E9
:107CC00001220021FFF78DFF002818BF07280CD1E3
:107CD00000F026F8002818BF072806D1042200F07B
:107CE0001BF8002818BF072804D000281EBF2168F1
:107CF000002988476068401C606010BD401E6060BD
:107D000009D1FFF7ABFF00281CBF2168002902D072
:107D1000BDE81040084710BD02210020FFF761BFF9
:107D2000072202210120FFF75CBF70B50B4E0C4605
:107D3000002530605CB10120FFF7F1FD10B1022198
:107D4000217004E0FFF7EBFD00B10B20207070689C
:107D500010B9FFF783FF0546284670BDB0440020E8
:107D6000F721018017214180002101714171FB2120
:107D700081711B21C1717047F0B583B08C88027985
:107D800000EBC405AE1DB271C97B012902D00229E6
:107D900002D003E0008800E040883080318870889D
:107DA0007B4F88420ED220469EDF020002D1012086
:107DB000707107E0112A02D10120307102E0388889
:107DC00000F020F8F079B17988421AD20FF204302D
:107DD000D0E90023CDE90023287BADF80000002284
:107DE000297BADF802102046694690DF030008D0D9
:107DF00038880FF2B0110004224640F00100FEF76F
:107E0000F8FFF7BD0FF2FC11000440F00100FEF78F
:107E1000EABF80B508B90E2002BD0161F7210180DB
:107E20004180FB210171801DFFF79AFF002002BDF8
:107E3000F0B503468DB0988800280C4640F0A58028
:107E40001988534D10290AD011290DD0232970D03B
:107E5000242950D03A290BD055292AD085E019463B
:107E60002046FFF789FF80E0A01DFFF779FF7CE047
:107E7000A61D58893188884228BF084670807088BE
:107E80001728B8BF17207080216900291CBF70799E
:107E900000280AD00FF2442100F07CF8694670886F
:107EA000ADF80400204622699047002070713071BF
:107EB0005BE0D888A61D17283188B8BF17208842F4
:107EC00028BF0846708000203071ADDF020004D06A
:107ED00028880FF27411FFF797FF7179002944D1B8
:107EE0002069002841D00FF2FC1100F053F870888F
:107EF000ADF8040018E06846191D3422FDF70AFDAC
:107F0000BDF80010BDF8040004EBC10670732069D1
:107F100058B30FF2D817D7E90023CDE90023ADF805
:107F20000210707B8DF80400694622692046904754
:107F30001BE0A01D19898279CEB2B24288BF3246B9
:107F40000FF2B016D6E90001CDE90001ADF800202E
:107F5000ADF8022000229888694690DF28B10246D9
:107F600028880FF22811FFF74FFFA07A68B1E18847
:107F700000209EDF18B9A0720120E07205E01128F0
:107F800003D002462888FFF73DFF0DB0F0BD00008A
:107F9000302C00200020D1E90023CDE90023ADF8EA
:107FA0000200704773645F626C655F6761705F6455
:107FB0006174615F6C656E6774685F75706461742D
:107FC00065282920287265717565737429206F6E84
:107FD00020636F6E6E656374696F6E2030782578EC
:107FE0002072657475726E656420756E6578706553
:107FF000637465642076616C756520307825782E11
:108000000000000073645F626C655F676174746395
:108010005F65786368616E67655F6D74755F7265D3
:10802000717565737428292072657475726E656444
:1080300020756E65787065637465642076616C7513
:108040006520307825782E0073645F626C655F6709
:10805000617474735F65786368616E67655F6D7482
:10806000755F7265706C7928292072657475726EFF
:10807000656420756E6578706563746564207661EB
:108080006C756520307825782E00000073645F627F
:108090006C655F6761705F646174615F6C656E677A
:1080A00074685F7570646174652829202872657032
:1080B0006C79292072657475726E656420756E65C1
:1080C000787065637465642076616C7565203078BE
:1080D00025782E000000000000000000770A000054
:1080E00000000000770A0000000000007ADA0000BB
:1080F00000000000000000000000000080F82410D4
:108100007047F8B504460D0018BF002C01D10E20B1
:10811000F2BD0120207005F178010020E0702022DE
:10812000201DFDF7F7FB04F124060020307005F157
:108130002C0704F1C800F96E4160396F81604FF679
:10814000FF71018004F125000721FCF737F83C217D
:1081500004F13000FCF736F82878307304F140025F
:10816000A878B073E878F07368787073D5E9040183
:10817000C2E9000104F13802D5E90201C2E90001B7
:1081800004F14802D5E90601C2E9000104F15C01ED
:1081900078784870686AC8B104F16C02326304F1FF
:1081A00078008861686A336B02881A80326B808835
:1081B0009080002006E06A6A93681B5C04F17802F4
:1081C0001354401C326B93889842F4D3A86AE0B1F0
:1081D00004F1A400486404F1980272639060AA6AF2
:1081E000D6F834C09388ACF80430736B12881A80C8
:1081F000002204E0AB6A9B689B5C8354521C736B47
:108200009B889A42F6D338780870286A40B104F106
:10821000C400F062296A4A8842800888F16A0880AE
:10822000686800B1306105F13C0104F13000BDE83F
:10823000F44001F015BF0000F0B5044685B0207889
:108240000F4608B90820BBE0E7700020FBF7D9FE15
:1082500010B101206070B2E0072104F12500FBF7A6
:10826000ADFFA07904F1240604F1CC0510B1E1784A
:10827000012906D0E07968B1E078012818BF02280A
:1082800008D1296821B1012030720820884701E017
:10829000002030720021601890F82600002840F07D
:1082A0009180491C0629F6D37F1E032F16D8DFE8DC
:1082B00007F002070D11A17911B138B101200EE0CC
:1082C000E17900291CBF0028022008D1207A08B1DA
:1082D000032004E0607A08B1042000E00020E07090
:1082E000296879B1E078032818BF04280AD1627997
:1082F00042B1287A30B9012000226872AA720720A0
:10830000884701E0002068726846002100220023AF
:10831000002780E88E008DF800108DF80810E078B6
:1083200004280BD8DFE800F04603131D32000120BB
:1083300000F04AF8ADF80C20ADF80A20E0780028EB
:1083400039D03178684673DF002834D038E0022015
:1083500000F03AF82069ADF80C00E068ADF80A00CA
:10836000ECE76069ADF80A00A069ADF80C0060792F
:1083700050B1297A41B9A87A30B100F02DF800281F
:10838000DCD10520A070D9E70320FBE7E069ADF858
:108390000A00206AADF80C00607948B1297A39B931
:1083A000A87A28B100F018F80028C7D10620E9E71C
:1083B0000420E7E7A170296809B1A0788847002068
:1083C00005B0F0BD01206FE7A070012104F1250088
:1083D00001908DF80010704702218DF808100420DC
:1083E000F073002104F1300001F03ABE10B50246EE
:1083F00008461188102900F1C80404D0112908D0BA
:108400001B2911D010BDD07B012820D1918821805B
:1084100010BD0021217391882288914204BF027906
:10842000002A14D101210AE0117A81B9C178491CCE
:10843000052291FBF2F202EB8202891AC9B2FFF720
:10844000FBFE00281CBFA168002900D015E010BD6C
:1084500010B5801E01280C460ED8607860B100214E
:1084600061702046E178FFF7E7FE00281CBFD4F8D2
:10847000D010002900D000E010BDBDE81040084732
:1084800038B5044674DF04F1D005012028710021BD
:108490000020A871062084F83300FFF7A3FF48B935
:1084A000E1782046FFF7C8FE00281EBF2968002992
:1084B0008847002032BDFEE7012200F01F01DFF8EF
:1084C0008C3504E0012200F01F01DFF884358A407A
:1084D000400943F820207047012200F01F01DFF817
:1084E0007435F4E74901002807D5DFF86C2500F062
:1084F0000F00104400F8041C7047DFF86025115489
:1085000070470000002840D0DFF85415DFF85425EC
:10851000096800BF00BF00BF00BF00BF00BF00BFB1
:1085200000BF91422FD000BF00BF00BF00BF00BFFF
:1085300000BF00BF00BF00BF00BF00BF00BF00BF43
:1085400000BF00BF00BF00BF00BF00BF00BF00BF33
:1085500000BF00BF00BF00BF00BF00BF00BF00BF23
:1085600000BF00BF00BF00BF00BF00BF00BF00BF13
:1085700000BF00BF00BF00BF00BF00BF00BF00BF03
:1085800000BF00BF00BF401EC3D1704710B5DFF869
:10859000D814DFF8D8444FF4003008604FF480312D
:1085A000DFF8CC04016401600120206000F0BFF816
:1085B000012161600020DFF8BC44A06000F0B7F842
:1085C0000020A07010BD14207CE72DE9F84FDFF8E3
:1085D000A474DFF8A4548046786800904FF0000936
:1085E00000E07E60B8F1000F7DD04646D6F81C80D2
:1085F00031E0A346E469002C73D08442F9D1A3454D
:1086000002BFC8697860002808D1DFF87014012023
:1086100008600021F870B96000F089F82068E4690A
:10862000CBF81C4014B1216840182060786882455E
:1086300057D04FF0010954E0307C002853D18A68AC
:108640007260C868B0600869F0604869B061F87825
:1086500008B100217160B8687168DFF824340A1A23
:1086600022F07F429A4203D2B0688218326008E05A
:10867000401AB16820F07F40884234BF081A0020B9
:10868000306000207060B060012030740020F06124
:1086900079680029A5D008683268904203D3801A0F
:1086A0000860F1619DE708460368934239D20146AC
:1086B000C069D21A0028F7D135E0B9F1000F02BF26
:1086C00078680099884214BF01200020BDE8F28F2D
:1086D000786800281FBF00210174C0697860F7D155
:1086E00001E000203074287869788842E5D01822AB
:1086F000291D12FB00F21144401CAB78C2B29A4211
:1087000008BF002028700A784868012A064693D0DE
:108710000CD3032ADCD009D279688B468A465C46A2
:1087200069E79B1A03603260F061CE615AE72F203F
:10873000E8E62DE9F843DFF83C436068002838D0CC
:10874000D0F80080DFF83C633768A568781B20F01C
:108750007F4000F10309A07890B9DFF82C034FF4B3
:108760008031016401601120FFF7B6FE1120FFF790
:10877000A3FEC64901200860FFF7D9FF0120A070C1
:10878000C14538BFC1464D4425F07F45F563ED1B1B
:108790003068C71B27F07F4725F07F45FF1CBD428F
:1087A0000AD23068F063FFF7C2FFBDE8F243112040
:1087B00088E6BDE8F143E9E6BDE8F1832DE9F04143
:1087C000AC4C94F800C06778A1686068002200266D
:1087D000BC450B46804611D00CF101055FFA85FCC3
:1087E000BCF1020F04F10C0708BF944657F82C7037
:1087F000791821F07F41A160012101E000270021CB
:1088000084F800C0F9B114E07F1A8E190021CCF869
:1088100000108646DCF81C00DCF80C1049B1F51895
:10882000CCF81C2025F07F45CCF80450CCF808107B
:10883000724638B18446DCF800108F42E4D2CF1B78
:10884000CCF80070012660601046FFF7BEFE0028DD
:108850000EBF002E4046FFF76CFF0020E070BDE821
:10886000F08110B584494A788C78521CD3B2A34267
:1088700008BF00220C78D3B2A34201D1002010BD62
:10888000027018204A7842438818001D10BD2DE957
:10889000F04182B0804600240D4616461F4600F087
:1088A0003DF80DF10100FFF7DCFF08B904240BE0EF
:1088B00001210170C0F80480724909688160C560B7
:1088C0000661476100F025F89DF80000FEF70AFCFC
:1088D0000CB9FFF778FE2046BDE8F68170B582B08E
:1088E000054600240E4600F019F80DF10100FFF7CF
:1088F000B8FF08B9042403E00670456000F009F8E9
:108900009DF80000FEF7EEFB0CB9FFF75CFE204679
:1089100076BD9DF801005849487070478DF80040B9
:108920006846FEF7C1BBF8B55948524E00210164B4
:1089300041648164C16401604160746844B3514919
:108940000F68B0683F1A002527F07F4720688742EC
:108950000CD33F1A45192146E469087C20B1002256
:1089600088690A7449698847002CEFD1707831789A
:10897000814201BF401C7070C0B2022804BF0020B9
:108980007070707806EB8001CD60BDE8F1401AE6AA
:10899000F1BD13E738B5FFF7F9FD3748354C394DD0
:1089A000002101800B2181700020606020706070C8
:1089B0001420FFF791FD07211420FFF793FD1420E9
:1089C000FFF77AFD0020686007211120FFF78AFD7C
:1089D0002868A060002032BD10B5274CA37843B1B1
:1089E000130018BF002801D1072010BD0368187CB0
:1089F00008B1082010BD00241C7459745A6110BDC0
:108A000010B51D4C1346A278002A18BF002805D0C7
:108A1000052901D2072010BD42690AB9082010BDFE
:108A2000427CBDE81040012A0CBF0A4600222EE716
:108A3000114A9178002918BF002801D0416909B96D
:108A40000820704700220274022147E700E100E09D
:108A500000E200E080E200E018ED00E000E400E069
:108A6000EC2B00200024F40080E100E00410014021
:108A70000813014054440020683B002008100140C6
:108A8000FFFF7F0004150140041301400010014066
:108A90000011014010B501F015FB044C04212046E3
:108AA000FEF7B2FA0120607210BD00BF482B002013
:108AB00030B5039D049C41EA420141EA830141EA49
:108AC0000521254A41EA044142F8201030BD012227
:108AD00002FA00F0214A09B95060704710607047EF
