:020000040002F8
:10300000507400204D35020055350200573502003E
:10301000593502005B3502005D35020000000000FA
:103020000000000000000000000000005F3502000A
:1030300061350200000000006335020065350200C2
:10304000456102006735020035990200597A020095
:10305000A57A020067350200A1420200673502002E
:1030600067350200673502006735020067350200E8
:1030700067350200673502006735020067350200D8
:103080006735020069680200673502006735020093
:10309000B57A020067350200B97A0200673502008E
:1030A00067350200673502006735020067350200A8
:1030B00067350200673502000000000000000000D4
:1030C0006735020067350200673502006735020088
:1030D0008D680200673502006735020000000000BD
:1030E00000000000000000000000000000000000E0
:1030F00000000000000000000000000000000000D0
:1031000000000000000000000000000000000000BF
:1031100000000000000000000000000000000000AF
:10312000000000000000000000000000000000009F
:10313000000000000000000000000000000000008F
:10314000000000000000000000000000000000007F
:10315000000000000000000000000000000000006F
:10316000000000000000000000000000000000005F
:10317000000000000000000000000000000000004F
:10318000000000000000000000000000000000003F
:10319000000000000000000000000000000000002F
:1031A000000000000000000000000000000000001F
:1031B000000000000000000000000000000000000F
:1031C00000000000000000000000000000000000FF
:1031D00000000000000000000000000000000000EF
:1031E00000000000000000000000000000000000DF
:1031F00000000000000000000000000000000000CF
:10320000DFF80CD000F0D4FD00480047FDE00200DC
:103210005074002030B4044654E8000F0D4644E8D2
:103220000053002BF8D1156030BC704730B4044611
:1032300054E8000F40EA010544E80053002BF7D1A1
:10324000156030BC704730B4044654E8000F00EA03
:10325000010544E80053002BF7D1156030BC7047DE
:1032600030B4044654E8000F80EA010544E80053F6
:10327000002BF7D1156030BC704730B4044654E8D9
:10328000000F00EB010544E80053002BF7D1156057
:1032900030BC704730B4044654E8000FA0EB010581
:1032A00044E80053002BF7D1156030BC7047000094
:1032B00030B4044654E8000F0D4644E80053002B98
:1032C000F8D1156030BC704730B4044654E8000FA4
:1032D00040EA010544E80053002BF7D1156030BCEB
:1032E000704730B4044654E8000F00EA010544E892
:1032F0000053002BF7D1156030BC704730B4044642
:1033000054E8000F80EA010544E80053002BF7D190
:10331000156030BC704730B4044654E8000F00EB31
:10332000010544E80053002BF7D1156030BC70470D
:1033300030B4044654E8000FA0EB010544E8005304
:10334000002BF7D1156030BC7047000030B4044644
:1033500054E8000F0D4644E80053002BF8D11560E7
:1033600030BC704730B4044654E8000F40EA010511
:1033700044E80053002BF7D1156030BC704730B4DF
:10338000044654E8000F00EA010544E80053002B0E
:10339000F7D1156030BC704730B4044654E8000FD4
:1033A00080EA010544E80053002BF7D1156030BCDA
:1033B000704730B4044654E8000F00EB010544E8C0
:1033C0000053002BF7D1156030BC704730B4044671
:1033D00054E8000FA0EB010544E80053002BF7D19F
:1033E000156030BC7047000030B450E8012F93B234
:1033F000C48923448489A34228BF1B1B0489A34298
:1034000002BFBFF32F8F002007E0C3EA020340E8AA
:103410000134002CE9D14FF001000A6030BC704744
:1034200050E8012FC2EA024240E801210029F7D109
:10343000704730B450E8022F1FFAA2F3C488A342A9
:1034400002BFBFF32F8F00200DE0C489234484897D
:10345000A34228BF1B1BC2EA034340E80234002CEE
:10346000E8D14FF001000A6030BC704750E8022FED
:10347000C2EA224240E802210029F7D17047034600
:1034800053E8022FD988B2EB324F4FF0000017BF3C
:1034900092B241EA014142EA014104E05A68B2EBCA
:1034A000324F08BF012043E80212002AE8D17047DA
:1034B00030B4044654E8000F0D4644E80053002B96
:1034C000F8D1156030BC704730B4044654E8000FA2
:1034D00040EA010544E80053002BF7D1156030BCE9
:1034E000704730B4044654E8000F00EA010544E890
:1034F0000053002BF7D1156030BC704730B4044640
:1035000054E8000F80EA010544E80053002BF7D18E
:10351000156030BC704730B4044654E8000F00EB2F
:10352000010544E80053002BF7D1156030BC70470B
:1035300030B4044654E8000FA0EB010544E8005302
:10354000002BF7D1156030BC70470000064880475B
:1035500006480047FEE7FEE7FEE7FEE7FEE7FEE778
:10356000FEE7FEE7FEE7FEE7999502000132020062
:103570002DE9F05F0546002092469B4688460646A8
:10358000814640241BE0284641464746224600F03B
:10359000FCFA53465A46C01A914110D311461846B8
:1035A000224600F0E3FA2D1A67EB01084F46224647
:1035B0000120002100F0DAFA17EB00094E41201E2D
:1035C000A4F10104DFDC484631462A464346BDE803
:1035D000F09F00000048704704570300A0F161010C
:1035E000192900D82038704740EA01039B0703D00F
:1035F00009E008C9121F08C0042AFAD203E011F832
:10360000013B00F8013B521EF9D27047D2B201E0F3
:1036100000F8012B491EFBD270470022F6E710B5D7
:1036200013460A4604461946FFF7F0FF204610BD30
:10363000CAB2401E10F8011F8A4202D00029F9D1F7
:1036400000207047421C10F8011B0029FBD1801A92
:10365000704710B5002200E0521C835C8C5CA342D2
:1036600001D1002BF8D1D8B2E1B2401A10BD30B56B
:1036700004460020034600E05B1C934203D2E05C5A
:10368000CD5C401BF8D030BD034611F8012B00F88B
:10369000012B002AF9D11846704730B505460020A5
:1036A000034600E05B1C934205D2EC5CC85C201A28
:1036B00001D1002CF6D130BD2DE9F05F93460F46C5
:1036C00080460446002606F0C1FAD0F800908246F3
:1036D00014F8015B2DB1FFF77DFF0068405DC00766
:1036E000F6D12B2D02D02D2D1AD0641E0021CAF840
:1036F00000105A463946204600F069FA014627B1C3
:103700003868A04201D1C7F80080DAF8000002282A
:1037100009D0CAF80090700505D54842BDE8F09F71
:1037200046F48066E2E70846F8E72DE9FE4F80465A
:1037300081EA0300C00F0C46009021F0004123F005
:103740000045B8EB0200A94105D24046214690460B
:103750001C460B46024623F00040104347D0270D7D
:10376000C7F30A00C3F30A510290401A019040289F
:103770006BDAC3F3130040F4801B0098924620B12B
:103780000023D2EB030A63EB0B0B01985946C0F1FF
:103790004002504600F0EAF906460D4650465946AA
:1037A000019A00F002FA10EB08006141002487EA58
:1037B000115284EAE7731A4340D0009A62B3019A27
:1037C000012A4FEA075215DC001B61EB02014FF0A2
:1037D000004202EA0752CDE90042001C41F5801187
:1037E00032462B4600F051FA03B0BDE8F08F404658
:1037F0002146F9E7001B61EB0201001C41F5801333
:1038000000185B412018A2F5001747EB030140EABE
:10381000D570B6196D4111E06D084FEA360645EADC
:10382000C0754FEA0752001B61EB0201001C41F515
:10383000801149084FEA30000019514132462B46A9
:1038400003B0BDE8F04F00F011BA0098012240002B
:103850000023D0EB020263EBE073009821464FEAAD
:10386000E074B8EB000061EB0401E9E783F000438A
:103870005BE781F0004158E72DE9FE4F81EA030440
:1038800004F0004421F0004100944FF0000B23F0BD
:10389000004350EA01045ED052EA03045BD0C3F354
:1038A0000A54C1F30A552C44A4F2F3340194A0FB4A
:1038B0000254C1F3130141F48011C3F3130343F421
:1038C000801301FB024400FB034E840A970A44EA7A
:1038D000815447EA8357A4FB076802958D0A05FBCC
:1038E00007854FEA932C04FB0C542705029D4FEAF1
:1038F000065847EA1637B5EB08056EEB070C870E3E
:10390000920E47EA811742EA8312A7FB0201B6EB47
:103910000B0164EB00042B0D43EA0C335E1844EBFF
:103920001C50DA465146E7FB0201C5F313044FEA87
:103930000B3343EA14534FEA0432019C43EA060373
:10394000A4F10C040294009CCDE900B400F09DF9B0
:1039500003B0BDE8F08F00200146F9E72DE9F04DF6
:1039600081EA030404F0004B21F0004514464FF0B7
:10397000000A23F0004150EA050220D054EA010277
:103980001DD0C5F30A570246C5F31303C1F3130054
:10399000C1F30A5640F4801543F48013A7EB0608E0
:1039A000101BD64608F2FD3873EB050002D308F170
:1039B000010801E092185B41B8F1000F03DA002022
:1039C0000146BDE8F08D00204FF480110646844684
:1039D0000EE0171B73EB050705D3121B63EB050302
:1039E00006434CEA010C49084FEA300092185B414B
:1039F00050EA0107EDD152EA030012D082EA040036
:103A000083EA0501084305D0101BAB4106D2012211
:103A1000002306E000224FF0004302E06FF00102B5
:103A200053101AEB06004CEB085110EB0A0041EB67
:103A30000B01BDE8F04D00F019B90EB5C10F80EAD9
:103A4000E0700844CA07002140F233438DE80E00BD
:103A50000A460B4600F019F903B000BD0EB540F25E
:103A6000334102910021CDE900110A460B4600F0D6
:103A70000CF903B000BD70B5C1F30A5201F0004566
:103A80000024C1F3130140F2FF3341F480119A4244
:103A900001DA002070BD40F233439A42A2F2334271
:103AA00003DC524200F071F800E090402C43F1D06A
:103AB000404270BDC1F30A5210B5C1F3130140F288
:103AC000FF3341F480119A4201DA002010BD40F228
:103AD00033439A42A2F2334203DC524200F055F8DB
:103AE00010BD904010BD00F0004230F000400AD000
:103AF000C10D01F56071C0F3160042EA0151C20820
:103B000040071143704700200146704730B5041E3E
:103B100071F1000404DB4FF00044404264EB01010A
:103B2000141E73F1000405DB1C464FF000435242A3
:103B300063EB04038B4208BF824230BD30B5041EE4
:103B400071F1000404DB4FF00044404264EB0101DA
:103B5000141E73F1000405DB1C464FF00043524273
:103B600063EB0403994208BF904230BD202A04DB76
:103B7000203A00FA02F1002070479140C2F1200380
:103B800020FA03F3194390407047202A04DB203ABF
:103B900021FA02F00021704721FA02F3D040C2F16D
:103BA00020029140084319467047202A06DBCB17B4
:103BB000203A41FA02F043EAE07306E041FA02F3E8
:103BC000D040C2F1200291400843194670472DE9C8
:103BD000F05F82460078002715468B460AF1010403
:103BE000B946302801D09DB113E014F8010B01272C
:103BF000782803D0582801D045B10AE00DB1102D26
:103C000007D10027102514F8010B02E0082500E079
:103C10000A250026B0460EE005FB080005FB06F16C
:103C2000012701EB10461FFA80F8B6F5803F00D35C
:103C3000B94614F8010B294600F0CCF80028EBDA5D
:103C4000BBF1000F05D00FB1641E00E05446CBF865
:103C50000040B9F1000F06D005F0F8FF0221016025
:103C6000C81EBDE8F09F48EA0640FAE710B5141EEA
:103C700073F1000408DA401C41F1000192185B4125
:103C80001A4301D120F0010010BD2DE9F04D9246FC
:103C90009B4611B1B1FA81F202E0B0FA80F2203213
:103CA0009046FFF763FF04460F4640EA0A0041EAE8
:103CB0000B0153465A46084313D0114653EA0100FC
:103CC00019D0C8F140025046FFF75FFF05460E4687
:103CD000504659464246FFF749FF084305D00120A8
:103CE00004E020463946BDE8F08D0020054346EA51
:103CF000E0762C4337430A986305E40AA0EB0800FA
:103D00000022FD0A44EA47540A3002D50020014649
:103D1000E9E7010510196941DDE908450019694124
:103D2000BDE8F04DA2E700002DE9F041054621F085
:103D300000400C46284309D0C4F30A5040F23341F6
:103D4000884205DD28462146BDE8F0812846FBE78C
:103D500040F2FE31884210DC0CDB4FEA043040EACE
:103D6000155050EA053105D0104804F000410143D8
:103D70000020E9E700200146E6E7A0F23340464292
:103D8000C6F1400228462146FFF7F0FE0746884666
:103D9000284621463246FFF7F8FE43463A46FFF7EB
:103DA00065FF3246BDE8F041FFF7E0BE0000F03F9E
:103DB000064C074D06E0E06840F0010394E8070078
:103DC00098471034AC42F6D3FFF71EFA945E030016
:103DD000B45E03003A2800D2303820F02002412A95
:103DE00001D3A2F13700884201D34FF0FF30704772
:103DF00070B58C1810F8015B15F0070301D110F8AD
:103E0000013B2A1106D110F8012B03E010F8016BD9
:103E100001F8016B5B1EF9D12B0705D40023521E5C
:103E20000DD401F8013BFAE710F8013BCB1A921CC4
:103E300003E013F8015B01F8015B521EF9D5A142C2
:103E4000D8D3002070BD70B588B00C46054610224E
:103E5000002168460AF096FA69462246084606F0AE
:103E60007BFB9DF80000694600064FF000000FD56F
:103E70000B180A5C5B78520042EAD3120A54401CC9
:103E80000F28F5DB9DF80F00400080F087000CE064
:103E90000B180A5C5B78520042EAD3120A54401CA9
:103EA0000F28F5DB9DF80F0040008DF80F00D4F8C7
:103EB0001401102814D09DF8000000061CD5002025
:103EC0000B180A5C5B78520042EAD3120A54401C79
:103ED0000F28F5DB9DF80F00400080F0870019E007
:103EE000002022180E5C92F80131401C734082F8C9
:103EF00001311028F5DB2AE000228B18885C5B7802
:103F0000400040EAD3108854521C0F2AF5DB9DF87C
:103F10000F0040008DF80F00D4F8146104F2011274
:103F20008023B354002300E08354D4F81401401CD0
:103F3000C4F814011028F7D3002022180E5C92F860
:103F40000131401C734082F801311028F5DB00205C
:103F50002118401C11F8F12F0B7C5A400A701028D0
:103F6000F6DB102204F1F10104A80AF0B9F92246A7
:103F7000294604A806F0F0FA1022002168460AF04B
:103F800001FA08B070BD10B5044610220021F130CE
:103F90000AF0F8F900200146C4F814012046BDE8F3
:103FA0001040F0220AF0EEB90B46024610211846E6
:103FB00006F0FABA2DE9FF470446D0F814010F467F
:103FC000154604F2011804F1F10918B3C0F1100606
:103FD000AE4200D31646B2B2404439460AF080F9E8
:103FE000D4F814013044C4F81401102837D3B54272
:103FF00035D000202118401C11F8F12F0B7C5A40BD
:104000000A701028F6DB49462246084606F0A4FA54
:104010003744AD1B1AE0002021183B5C11F8F12F4A
:10402000401C5A400A701028F6DB102249466846A8
:104030000AF056F969462246084606F08DFA102223
:10404000694648460AF04CF9103D1037102DE2D869
:10405000AAB2394640460AF043F9C4F81451BDE803
:10406000FF8700002DE9F047224B924698465A7A86
:104070000126C2F18002D7B298F8082098F809808A
:104080001446521CC8F18008A0F1020C1A4D08F029
:10409000FF08D2B2A8F10109BCF1090F27D2DFE86D
:1040A0000CF0050905090E0905052100BC421BD2CB
:1040B000285502E04C4511DB16E01A720AE0BF1EDB
:1040C000BC4211DA2855A954521CD0B205F800A000
:1040D000401C187200260120D87105E02855A9540B
:1040E000521CEAE7BC42F9D33046BDE8F087022013
:1040F000FBE70000C42D00207E3A002072B6024883
:104100004168491C416070475C2D002003494868A4
:10411000401E486000D162B6704700005C2D002050
:1041200000B50021124A00F08BF9F0B1508841F23D
:104130003601884201D3FE2117E0A0F68141B1F596
:104140006D7F0BD8481C00EB4001C1EB002040F212
:10415000B63190FBF1F0401CC1B206E0A0F61D4064
:10416000632801D8012100E0FF21084600BD0000BE
:104170005C2D002010B50AF0E3FF08B106F044FB07
:1041800003F0BAFBBDE8104003F03CBE3EB50F4C57
:10419000E1788DF80010217D8DF802108DF8030074
:1041A000606B05F079FB0190E06B0290E07D8DF88B
:1041B00001006946207C02F09CFB218CE06B4143AE
:1041C000081AA16D0844A0653EBD0000C42D002062
:1041D00010B51B2007F070FD07F006FD50B1C82098
:1041E00000F059F81B2007F067FD07F0FDFC08B14F
:1041F000012010BD002010BD2DE9FF4F002083B02D
:104200009A469046814605460746012600900024BE
:1042100038F8171006FA04F001422BD005EB040B16
:104220000BEB4B015AF8212022B3039A0AB940073D
:1042300020D00AEB8100019090F90800021140F3B0
:104240000301049840B202F0BDFD98B10198417A93
:10425000109800EB0110C06820B109F1010000F0D6
:10426000FF0907E0009A119901F802B00098401C7C
:10427000C0B20090641CE4B2102CC9D310357F1C6E
:10428000EDB2FFB2102DC2D3129981F800900098C0
:1042900007B0BDE8F08F4FF47A7148430AF0DEBCF6
:1042A0002DE9F04700268CB0DFF86091B0464FF45E
:1042B000807501243746069628460BF00BFF38B16F
:1042C000D9F80403204203D028460BF0F9FE264318
:1042D0002D1D64007F1CADB2082FEDD34FF4BE74CA
:1042E00020460BF0F7FE48B120460BF0E9FE46F001
:1042F000004606AA012100200BF0CEFE444D16F028
:10430000FF0F15D00127002437420DD009EB84019F
:10431000D1F81005D1F81015C0F3042055F8242069
:10432000C1F3014102B190477F00641C082CEBD31C
:10433000002E67DA4FF0FF30CDE9088000263446C2
:10434000281910F8507F90F9000027F0C008401C91
:1043500044D009A940460AF0A7FB58B34FEA971981
:10436000404607F0F7FE55F820701FB1B9F1030F72
:1043700003D00FE0B9F1030F30D108A84FEAD802FB
:1043800008F00703815C4FF0010C0CFA03FC41EAD2
:104390000C0181544FF0A04101EB8800D0F80007D8
:1043A00006A9C0F3014A40460AF07EFB18B1BAF1F3
:1043B000020F03D012E0BAF1030F0FD1B9F1030FCE
:1043C00008D1BAF1020F1BD0022140460BF03AFE91
:1043D000761CF6B217B149464046B847641C042C17
:1043E000AED3002E0ED06A46012100200BF054FE01
:1043F00006990098884205D00690089809909DE794
:104400000321E2E70CB0BDE8F08700000060004047
:10441000E8480020094951F8200000F57760B0F520
:10442000783006D000F57760B0F5783F03D00020F3
:10443000704701207047022070470000484E03007B
:104440000348007808B10020704701207047000041
:104450005C2D0020094A002152F83130834208D8EF
:1044600002EBC1039B68834203D902EBC1000079D0
:104470007047491CC9B21529EED3FEE7BC4E0300B4
:1044800010B50446406800280FD0607810B10128AC
:1044900005D008E094F900000AF02EFE03E094F93C
:1044A00000000AF0F1FE0020606010BDF8B50B4678
:1044B0000446DDE90601656825B12046BDE8F840FF
:1044C00000F070B8237062700025A070E5700126BE
:1044D00062B1009509B18DF80160694618460AF08D
:1044E0006FFEB8B1BDE8F84006F08EB90A49012860
:1044F0000968009102D0022804D005E003208DF85D
:10450000010001E08DF80160044A694618460AF08E
:104510008DFDE6E76460F8BD34450300C91903006A
:10452000F8B5044640781E460D46002833D1606831
:1045300028B194F900000AF0DFFD00206060164801
:10454000406800900120E570012D02D0022D03D0BB
:1045500005E08DF8000002E002218DF80010A1783E
:10456000012902D0022901D002E003208DF80100C8
:1045700094F90000094A69460AF058FD00280AD15A
:1045800094F90000064941F8206094F900000121E7
:104590000AF0FAFC6460F8BD34450300C919030051
:1045A000883600204278012A09D14268002A06D0C4
:1045B00090F9000009B10AF05FBE0AF0F9BD70473A
:1045C0002DE9F04117460A460546DDE9064119483E
:1045D000089E447183711C0AC4711C0C04721B0E6A
:1045E000437281720B0AC3720B0C0373090E417381
:1045F000D4B2C4731048FFF7C6FC39460E48FFF723
:10460000D3FC10220B490C48FFF7D4FC2246294664
:104610000948FFF7CFFC0849A1F58270FFF713FCAA
:1046200006480178D0F8010041EA00203060BDE87A
:10463000F0810000302E0020483E0020443D002044
:10464000F8B50E46040017467ED020680028FBD03F
:1046500060680028F8D0A0680028F5D010460DF05A
:10466000BDFE01467BA005F0E1FA384603F09AF85A
:1046700000286AD0824D002005F11A01C5E91746CD
:104680002F7408706874A863287601266E76E87423
:104690006865A8650B208DF800006946384603F070
:1046A00073F800B10120287508208DF800006946D4
:1046B000287C03F069F8734C6946207005208DF85A
:1046C0000000287C03F060F860700C208DF800007A
:1046D0006946287C03F058F8E0600D208DF8000052
:1046E0006946287C03F050F820610E208DF8000008
:1046F0006946287C03F048F860610F208DF80000BF
:104700006946287C03F040F8A06110208DF8000075
:104710006946287C03F038F8E06113208DF800002A
:104720006946287C03F030F884F8210014208DF8C5
:1047300000006946287C03F027F8606215208DF898
:1047400000006946287C01E07FE080E003F01CF86F
:1047500084F828001A208DF800006946287C03F0B0
:1047600013F884F82C001B208DF800006946287C83
:1047700003F00AF884F82D001C208DF8000069462B
:10478000287C03F001F820631D208DF800006946A5
:10479000287C02F0F9FF60630021287C02F0FCFF16
:1047A00084F820600A2206216260A4F13800217298
:1047B00042600172E168C160216901616169416122
:1047C000A1698161E169C16180F8206003F052F85C
:1047D0002D4904F1380005F069F84FF47A7104F1BD
:1047E000380005F074F8294904F17C0005F05EF802
:1047F000274904F1A40005F059F8264904F1CC003A
:1048000005F054F8244904F58E7005F04FF805F0D2
:1048100041F8686304F1600020490160204981602B
:104820002049016120494160214C2049C160216833
:104830008847606980470EF09BFCAE74A16D3046DE
:104840008847E06A80470020F8BD0320F8BD0A20B1
:10485000F8BD00000D0A53656C6563746564204CF7
:104860006F726157414E20312E302E3220526567D3
:10487000696F6E3A202573200D0A0D0A00000000B2
:10488000C42D0020B83B00200D560200A16002009C
:10489000755F02000D600200D5550200255E020022
:1048A00039580200495D0200395F0200A55D02002F
:1048B0004C4503002DE9F04105461C4617460E46BF
:1048C0000C48FFF760FB39460A48FFF76DFBF2B270
:1048D00029460848FFF76EFB0649A1F58270FFF7ED
:1048E000B2FA05480178D0F8010041EA00202060C2
:1048F000BDE8F081483E0020443D00202DE9FF4105
:1049000084B00F460446984606ADF02200211D48AB
:104910000E9E09F037FD1B4A1021204605F044FE8B
:1049200010220021684609F02DFD01208DF80000BD
:104930006C4606223946601C09F0D2FC0222294648
:10494000E01D09F0CDFC0F4A4146684605F004FE23
:1049500010220021684609F015FD02208DF80000A4
:1049600006223946601C09F0BBFC02222946E01DE4
:1049700009F0B6FC034A3146684605F0EDFD08B083
:10498000BDE8F081543D00202DE9F04117460E4668
:1049900005461C46F02200210C4809F0F3FC0B4AA6
:1049A0001021384605F000FE084A2146284605F049
:1049B000D3FD102E08D304F1100105F11000BDE85D
:1049C000F041024A05F0C8BDBDE8F081543D002029
:1049D0002DE9FE4F4FF0000904004FF0020A4E4649
:1049E00078D04249886BC20702D18B46C00602D5F7
:1049F0000120BDE8FE8F00208DF800000146142242
:104A00003B4809F0BFFC3A48012141708BF80D107A
:104A10002278584622B1012A0AD0032A27D119E068
:104A200001739DF80020012622F0E002403207E0E9
:104A3000E27B02739DF80020012622F0E002803222
:104A40008DF8002094F80490A78994F90E50D4F8BA
:104A500008800CE001739DF80020012642F0E0027E
:104A60008DF80020278994F90A50D4F804808DF835
:104A70000810204991F82C108DF80A1002A99BF813
:104A8000100002F081FEA84200D9054668B2F6B1D6
:104A90009BF804105D4679B9164E8DF80400042287
:104AA00096F82C008DF8060001A9287C02F0D9FEAA
:104AB00078B19DF8040070703B464246494668460E
:104AC00004F0C8FB5FEA000A06D000206871504677
:104AD0008FE7FFE703208CE7054821780170034842
:104AE0001A30017841F001010170F0E7C42D002077
:104AF000143D0020803B0020F8B504004FF0000575
:104B00001AD03648364B277803F12001027C01F198
:104B100038061E2F5FD2DFE807F0111316181A1D92
:104B20001F222426282B32303A3D3F414345474936
:104B30004D4B4F51535557590320F8BD407C00E071
:104B4000C078207148E00079FBE7C06C00E0006DA0
:104B5000606041E02348FBE722481030F8E7807CA2
:104B6000EFE7C07CEDE719200AE0D3E9110101E08D
:104B7000D3E91F01C4E901012EE0172000E016204F
:104B80008DF800006946104602F0FEFDE0E791F85E
:104B90002000D6E7C868DBE70869D9E74869D7E7A6
:104BA0008869D5E7C869D3E77078CAE74878C8E765
:104BB0003078C6E70878C4E7806AC9E7C06AC7E703
:104BC000406AC5E74868C3E7087ABAE791ED0D0A7D
:104BD00084ED010A00E002252846F8BDC42D00201E
:104BE000603B0020603800202DE9FF5F07004FF098
:104BF000000408D08E4D95F83800C00705D001207C
:104C000004B0BDE8F09F0320FAE7DFF82C92884853
:104C100009F15808A8F138063B78864A96F82D1015
:104C2000007C4FF0000B4FF0010A1E2B7CD2DFE816
:104C300003F00F1F2225282B313A3FFB427C908B3B
:104C400099A1A4A7AAADB0BDD6C9E4E7FBEAF1F6E5
:104C50003879687420B1012804D0022802D102E01A
:104C6000D06A8047E1E085F805B001F0CFF9DCE0DB
:104C70003879E870D9E038792871D6E07868E86446
:104C8000D3E078682865D0E07968002971D01022D7
:104C90006A4805E0796800296BD068481022103016
:104CA00009F01EFBC1E03879A874916D8847BCE01B
:104CB0003879E874B9E03A7A8DF804208DF8051057
:104CC000062201A902F0CDFD002852D0D7E9011239
:104CD000C9E91112687C022825D1E878002822D081
:104CE000574F0097327A96F92810287C736802F0A3
:104CF00071F8687D3870706A786096F82D003874A5
:104D0000E87C787487F813A087F812A007F14002B6
:104D10003946287C02F074FD58B3B87CF16802F083
:104D20005FFEF87CE87380E07EE03A7A8DF804203C
:104D30008DF80510062201A902F093FDC8B1D7E94C
:104D40000112C9E91F1270E0796802918DF80CA078
:104D500003E0796802918DF80CB002A901F0CFFD53
:104D600038B162E03879411E0E2944D886F8200017
:104D70005BE040E07868F06057E07868306154E0CC
:104D80007868706151E07868B0614EE07868F061F1
:104D90004BE039798DF80410052201A902F061FD7C
:104DA00048B39DF8040088F801003EE039798DF899
:104DB0000410042201A902F054FDE0B19DF80400A2
:104DC000707032E039798DF80410082201A902F0E0
:104DD00048FD80B19DF8040088F8000025E039798D
:104DE0008DF80410072201A902F03BFD18B19DF8CF
:104DF0000400307019E0032417E07868A86214E01A
:104E00007868E86211E07868C8F8040070600CE027
:104E100005E0FFE7387988F80800307205E097ED83
:104E2000010A86ED0D0A00E002242046E8E60000B3
:104E3000C42D00204C450300603B0020603800205A
:104E4000C03C00202DE9FF4704004FF0020832D09B
:104E5000464E96F83800C00718D10C22002144486D
:104E600009F090FA424F01204FF000097870207845
:104E700006F11A0530B1012857D0022861D0032865
:104E80004BD167E096F83800C00603D5012004B086
:104E9000BDE8F087606870B1A06860B1E06850B1AB
:104EA000207C40B18DF808001E2202A9307C02F05F
:104EB000D8FC10B109E00320E9E71F208DF80C00B1
:104EC00003A9307C02F060FC2074287840F00800D0
:104ED00028702078387060683064A0687064E0687A
:104EE000B064207C707686F818908DF8009002F0FF
:104EF000C1FC307E01A9401CADF80400307C01F0FB
:104F0000DDFC1C4900231A4648701946684604F027
:104F1000A1F900BF5FEA000805D086F8059028785F
:104F200020F0080028704046B1E72878002240F0C1
:104F3000080028702078387011460220FFF792F898
:104F4000E8E73870287840F008002870A08804F05E
:104F50002DFADFE73870287840F008002870227BAF
:104F6000A088A16804F052FAD4E70000C42D002004
:104F7000283D0020803B0020FEB508AF97E8700078
:104F80008DE8700000F002F8FEBD00002DE9FF5F23
:104F90000D46DDE90F8A814600261F460124F022D6
:104FA00031462C48DDF838B009F0ECF9294A1021D7
:104FB000029805F0F9FA2848390A80F805B0877197
:104FC000C171390C0172390E417280F80A804FEAC2
:104FD0001821C1724FEA184101734FEA18611D4F41
:104FE0004173203F804619E088F80F40194A641C3D
:104FF000A4B2A2F12001184805F0AEFA0020311841
:105000003B5C19F80120401C5A4080B20AF801208C
:105010001028F4D3103D1036ADB2F6B2102DE3D205
:10502000002D14D00B4A88F80F40A2F120010A4845
:1050300005F092FA002008E031183B5C19F80120D5
:105040005A40401C0AF8012080B2A842F4D3BDE8BF
:10505000FF9F0000543D0020402E00202DE9F0432A
:1050600081462E4887B00E0041788DF804102C4CF4
:1050700000788DF81800207A617A0844C5B238D0DB
:105080004FF000088DF808802079244F8DF8090032
:10509000206B383F039078788DF8100038788DF8C1
:1050A000110097F82C008DF8120004F130000090E8
:1050B00006AB01AA02A9207C01F0F0FB97F82C00B6
:1050C0008DF816009DF804008DF8150009208DF864
:1050D0001400E07C10B10A208DF8140005A9207C92
:1050E00002F052FBC0B27070A84206D3401B307071
:1050F00009E0032007B0BDE8F083307084F8088031
:10510000002584F809802A469DF90410484604F0D9
:105110001FFC08B10020EDE70820EBE7B83B0020BA
:10512000C42D002038B5064D04468DF800000B2232
:105130006946287C02F095FB002800D02C7538BD0C
:10514000C42D002001490120087170478C2D0020DA
:105150002DE9F04341788BB000292DD1674C22789E
:10516000012A02D1A189491CA181417B012923D1B6
:10517000C178634D012917D0022915D0E0291BD130
:10518000002601270221D2B182684FF004084FF0B7
:105190000309137810226370082B0DD2DFE803F0A7
:1051A00032424446485D6383017B012904D1806813
:1051B000007800F00100E8700BB0BDE8F083027BDE
:1051C000042AF9D180680278012AF5D14278012AAF
:1051D000F2D18278012AEFD1C0780128ECD1AE70EB
:1051E000E02028706970A681A673E6732674277084
:1051F00067708DF800108DF804706846FFF7F4FCB6
:1052000000200CE0AE7029706A70A68126708DF8BF
:1052100000108DF804706846FFF7E6FC0120FFF7E8
:1052200081FFC9E76970C7E7AF7065E0AE7063E002
:10523000344A037B6B7082F80080012105E08468AA
:10524000645C641C5454491CC9B2F22B01D21C4644
:1052500000E0F2248C42F2D8AEE78DF80C7003A87F
:10526000FFF7F0FDA8E7AE7029706A70A68126707E
:105270008DF820108DF8247008A8FFF7B5FC0120E8
:10528000FFF750FF1E488DF80C6014300490083072
:105290000590083006908DF81C9003A8FFF7D2FD0A
:1052A00085F8078088E7027B032A02D0072A09D005
:1052B00022E08DF80C108068B0F8010040BAADF81B
:1052C000100016E08DF80C908168B1F8011049BA11
:1052D000ADF810108168CA780B791204497942EA56
:1052E00003220A4364214A430592806880798DF83D
:1052F000180003A8FFF7A6FD67705DE724380020BB
:105300008C2D00200837002070B501780F4C012546
:1053100011B1012918D10CE0407808B1E57113E012
:105320000220E0710AA004F081FC0FA004F0AAFBA7
:105330000AE0417841B910490A78012A04D18D73F5
:10534000027ACA73407A0874257170BD8C2D0020D2
:105350004F544141204A6F696E20537563636573F2
:1053600073200D0A000000004F5441412053756323
:1053700063657373000000002438002000F01F02F2
:10538000012191404009800000F1E020C0F8801226
:10539000704700F01F02012191404009800000F198
:1053A000E020C0F80011704700F01F020121914079
:1053B0004009800000F1E020C0F800127047490762
:1053C000090E002806DA00F00F0000F1E02080F856
:1053D000141D704700F1E02080F800147047002091
:1053E000AFF3008070B506465FF0000404F1B00032
:1053F000C0B204F01FFB002004F01CFB102004F0DE
:1054000019FB0025304604F035FB6D1CEDB2802DF4
:10541000F8D3641CE4B2082CE8D370BD10B52C4856
:1054200009F062FCAE2004F005FB202004F002FB32
:10543000102004F0FFFAB02004F0FCFAC82004F0B9
:10544000F9FA002004F0F6FA102004F0F3FA4020F4
:1054500004F0F0FA812004F0EDFAFF2004F0EAFAFB
:10546000A12004F0E7FAA62004F0E4FAA82004F052
:10547000E1FA3F2004F0DEFAA42004F0DBFAD320A6
:1054800004F0D8FA002004F0D5FAD52004F0D2FABE
:10549000F02004F0CFFAD92004F0CCFA222004F056
:1054A000C9FADA2004F0C6FA122004F0C3FADB20AD
:1054B00004F0C0FA202004F0BDFA8D2004F0BAFAFE
:1054C000142004F0B7FABDE81040AF2004F0B2BADF
:1054D000A086010010B50446B031C8B204F0AAFAA3
:1054E000102040EA141004F0A5FA04F00F00BDE803
:1054F000104040F0010004F09DBA00002DE9F04793
:10550000002591468A460446012B22D0DFF8BC8054
:10551000022B24D155E02038C7B27E2C04D90AF1E1
:105520000100002400F0FF0A51462046FFF7D2FF99
:1055300007EB4700002608EB4007B85D04F09AFA35
:10554000761CF6B2062EF8D3A41D6D1CE4B2EDB2A3
:1055500001E0DFF87C8019F805000028DBD1BDE808
:10556000F0872038C7B2782C04D90AF10100002452
:1055700000F0FF0A51462046FFF7ACFF5FF000063F
:1055800006EB071118F8010004F074FA761CF6B265
:10559000082EF5D30AF10100C1B22046FFF79AFFA9
:1055A0005FF0000606EB071101EB0800007A04F03B
:1055B00061FA761CF6B2082EF4D308346D1CE4B2FE
:1055C000EDB219F805000028CBD1C8E72048030048
:1055D000F845030010B50B4804F09FF90A484179DB
:1055E00029B101218173816B21F004018163407C29
:1055F000022805D104481A30017841F010010170E9
:1056000010BD0000D43C0020C42D00202DE9F8433B
:105610000027864804F081F9854DA5F11A04287801
:10562000C10670D5A16B4A0602D521F04101A163E4
:1056300080490207A1F114084FF0000601D4C20707
:1056400012D098F801304246022B02D04B78022B40
:105650000AD1A36B012723F00103A3632672637BA6
:1056600053711671C8F8086062793A436F4FA7F119
:1056700070072FD1020702D4C10702D12AE00A78AD
:105680003AB197F82010A27A91420DD9810711D42E
:105690001BE0227E8A72497819B1617E8A420FD25C
:1056A00013E0A662A6720BE0800703D42672206B7B
:1056B000401C2063A672607810B9A06A401CA062EA
:1056C000A06B20F00100A06304E020F0100028701F
:1056D00000F0E6FC2878800716D598F80410012918
:1056E00003D0617B227B91420ED9A67366716178EB
:1056F00011B9A16A491CA162617B88F80510A06BF1
:1057000020F00100A0634EE0A07B98B394F838002D
:10571000C00648D4A673607B217B884230D208281B
:105720002ED8401C6073C0070ED020208DF80000DA
:1057300097F82C008DF8020078788DF80100694602
:10574000207C02F021F8787003F004FD98B1092163
:1057500088F801102672A16B21F00101A163667126
:1057600088F80460617B88F80510797888F8021061
:105770006078A8B117E0287820F01000287012E0B7
:105780000121207C02F008F8A06B20F00100A0634A
:105790002672667188F80460617B88F80510E7E777
:1057A000A06A401CA062A06B810702D520F0020015
:1057B000A06370B14FF47A711C4804F088F81B485C
:1057C00004F08AF8287880072DD5607C02281CD048
:1057D0001DE02878C00708D0E06D0168154814382E
:1057E0008847287820F0010028702878000707D51E
:1057F000E06D81680F488847287820F008002870FD
:10580000287820F010002870DCE700F0FFFB2878F3
:10581000400704D4E06D416806482C388847287852
:1058200020F006002870BDE8F8830000F03B00205F
:10583000DE2D0020283D00202DE9FF4F4FF000090C
:1058400097B004460E464846CDF818904F46FE499C
:10585000CDF81090099110310C9101F2A441CDF8CE
:105860005090CDF84C90A1F1180581F80490EA8190
:10587000DFF8D8B31A9929749BF80F106974E8708F
:10588000A8706871A86028736873A874686128702C
:10589000EF48C06A8047A5F1780004F03EF8207810
:1058A00001904FEA50180F90EA484FF0010A424623
:1058B0000188032000EB0140E7A10AF0D7FD414633
:1058C000301FA6F101080E90012919D003297DD0BF
:1058D00005297BD007297AD085F801A000F0D6FDF4
:1058E000DA481A30017841F0100101700121DD48D9
:1058F00003F0EDFFDB4803F0EFFF1BB0BDE8F08FD6
:105900009BF803005F4610B185F801A0C3E0D64DB7
:105910001FFA88F16B1C601CBA6CFFF735F8019810
:1059200028700E9806AB81B22846BA6CFEF7C2FF0B
:10593000A81905F2A93410F8041D427841EA0221A1
:105940008278C07841EA024141EA006006998842C3
:105950004FD1A4F597600090BB4BFA8B691CB86CD3
:10596000FEF7CCFF28796979A4F5D47840EA0120C4
:10597000A97940EA0140F864E879297A40EA0120EF
:10598000697A40EA0140A97A40EA01603865E87A1C
:10599000C0F3021188F8211000F00F0088F82800E9
:1059A000287B10F00F00C8F8100002D15046C8F84C
:1059B00010A04FF47A714843C8F8100000F57A70CF
:1059C000C8F81400A8480D30113E01E014E0A2E12F
:1059D00011908DF8486011A9387C00F076FF002006
:1059E0006070A04887F803A03838407888F8010034
:1059F00076E70720607073E79A48703890F82D00BA
:105A00008DF84200994800798DF8410009208DF801
:105A100040009BF8130010B10A208DF8400010A937
:105A20009BF8100001F0B0FE6FF00C0101FA86F255
:105A300012B2002A03DD01FA86F109B200E000216A
:105A4000814203D9894981F801A024E06078A178D6
:105A50007E4A40EA0120E17840EA0140217940EAAB
:105A600001610391126D05209142784916D04F6A69
:105A70000CE03A6803998A4207D101211491391D3B
:105A8000099110310C917D6A09E0BF6A002FF0D1B5
:105A90000B217648417000F0F9FC2EE7CD6A215CBD
:105AA000401C8846225C401C049B205C42EA002289
:105AB00001F00F0008300790A01910F8041D1943D9
:105AC000437841EA03218378C07841EA034141EAFF
:105AD00000600490501B1FFA80FB06A9BBF5004F25
:105AE00012D25D44CDF800A0CDE901510E98039B80
:105AF00081B22046099AFEF763FD06990498884210
:105B000019D10120139016E005FA8BF000F58030D2
:105B1000CDF800A01590CDE901010E98039B81B24C
:105B20002046099AFEF74CFD06990498884202D156
:105B30000120159D139011208DF84000434810A9B5
:105B4000007C01F021FE584504D848480A214170E4
:105B50004561A0E71398002874D044490020DFF87D
:105B6000ECB04870149A8A70C8F300124A718860C9
:105B7000087301F118024D615070CBF830008BF8BA
:105B8000090014984FF0080C58B1384802210170F0
:105B9000796AA94203D111B180F801C07BE77D6227
:105BA00020E00F980521B1EB501F0CD12F4B8BF843
:105BB00006A083F800A0DBF82C00A84210D178B131
:105BC0004FF001090CE0294900238BF806300B70D7
:105BD000DBF82C00A84203D110B181F801C05AE7CC
:105BE000CBF82C50214818300078012802D15FEA08
:105BF000886002D500208BF808000798301A001F33
:105C0000002858DD079F07987F1CF11B091F205CA7
:105C1000C9B2049115490028C8704FEA08702ED007
:105C200038B11A980821C3B2781EC2B2204600F0DB
:105C30009FFC0D4ECDF800A0CDE90156DDE9033102
:105C4000E01915E065E0000060380020C42D002058
:105C50004C450300AC3000204D547970653D2564FF
:105C60000D0A0000F03B00207F390020FC3C0020A2
:105C70000C9AFFF781F9B9F1000F15D041E010B18E
:105C80004FF001093DE02D48CDF800A0CDE90150CD
:105C9000DDE90331E019099AFFF76EF91A9800213E
:105CA000C3B22648049A0EE0254886600499017321
:105CB00080F80DA00CE05FEA087006D01A98082161
:105CC000C3B22046079A00F053FCB9F1000F18D177
:105CD0005FEA886007D51A49183181F804A018399D
:105CE00081F812A009E016490020183108719BF8CC
:105CF0000D109BF80C00814203D91148283803F09D
:105D00000CFE1049087840F0020069F38200087028
:105D1000E6E50C21BDE6611C3246084808F0E0FAD1
:105D200003202870002068700448A860054885F8A2
:105D30000C80017841F002010170D1E57F3900202B
:105D4000FC3C0020DE2D002070B5134C607C022846
:105D500003D01248C06A804701E000F057F91048AC
:105D60000D4DE27B63791A3500F1140122B1062250
:105D700003B142704A7009E0052203B142704A70D3
:105D8000606D03F089FDA16E884203D3287840F04E
:105D90001000287070BD0000C42D00204C45030089
:105DA000143D002070B5194C607C022803D01848BF
:105DB000C06A804701E000F029F9144D1548E27BE4
:105DC0001A3500F114010326A2B16379042203B14C
:105DD00042704A70607C022803D0287840F010009E
:105DE00028700D480DA1008806EB0040BDE870400A
:105DF0000AF038BB627902B146704E70606D03F0F4
:105E00004BFDA16E8842E8D2EBE70000C42D0020D4
:105E10004C450300143D0020AC3000205278546FF4
:105E20000D0A00002DE9FE4F03F034FD3C4C064600
:105E3000607C022803D03B48C06A804701E000F044
:105E4000E5F8374DDFF8E0A0A0781A350AF114081C
:105E50004FF00109002758B3A8F1CC00616E03F0A0
:105E600036FDA8F1CC0003F037FD607C02280DD090
:105E7000A8F1A400A16E03F02AFDA8F1A40003F08C
:105E80002BFD607C022801D06079F8B112208DF8DA
:105E9000080002A9207C01F077FCA16E0144224891
:105EA000403803F014FD2048403803F015FD0DE0A4
:105EB0008AF80170042188F80110287810B9484642
:105EC00085F80090C0B240F01000287028780007D4
:105ED00002D598F8000080B1E775607DA0758DF857
:105EE0000000E0788DF8010001966946207C01F001
:105EF00097FC6665607918B107E084F81790ECE7C5
:105F00008AF80170A07A401CA0720848032100881A
:105F100001EB004006A10AF0A5FABDE8FE8F0000E3
:105F2000C42D00204C450300143D0020AC3000205F
:105F300054446E0D0A0000000B4810B5407C022846
:105F400003D00A48C06A804701E000F05FF80849C2
:105F5000022048701431487003481A30017841F02B
:105F60001001017010BD0000C42D00204C4503003D
:105F7000143D002070B51A4803F0CFFC194C184DA1
:105F80000020E0735035617DA5F59676297096F86E
:105F90002110E97096F82D102974E17C6974A874B9
:105FA000E874607C022802D10F48006B80470C4ADD
:105FB000207CA432A2F1540101F022FCA87CF168FB
:105FC00001F00EFD094895F901306A680088BDE8C6
:105FD0007040032101EB004005A10AF04EBA000019
:105FE0005C3C0020C42D00204C450300AC30002058
:105FF0000D0A5278315F467265713D25642C20444C
:10600000725F74625B25645D200D0A0070B51A48EA
:1060100003F083FC194D184C3C34687DA4F5A07640
:106020002070706A606096F82D002074E87C6074BF
:106030000120E074697C022900D000200E4AA0747F
:106040007C32A2F14001287C01F0DAFB002812D05A
:10605000A07CF16801F0C4FCE07CE873084894F986
:10606000013062680088BDE87040032101EB004008
:1060700004A10AF002BA70BD843C0020C42D0020A7
:10608000AC3000200D0A5278325F467265713D25B2
:10609000642C2044725F74625B25645D200D0A00ED
:1060A0001FB5184803F039FC174CA06B20F0100006
:1060B000A06304F11A000078000720D51148F430DD
:1060C0000078E0B901F0D6FB207E03A9401CADF8B2
:1060D0000C00207C00F0F2FB0A49B4394870002023
:1060E0008DF804002279014662F3C7118DF808107B
:1060F00003460246009002A901A800F077F803F0D9
:1061000029F81FBD343C0020C42D00203EB50B48AB
:1061100003F003FC01248DF800406846FEF7ECFC18
:10612000002805D19DF804100548012901D0C4714B
:106130003EBD0221C17104713EBD0000FC3700204C
:106140008C2D00202DE9F0414FF48077384608F07F
:1061500075FD0124104EA50748B1384608F075FDBD
:106160000120C5F808037470002006F039F84FF4D8
:106170008277384608F062FD00280BD0384608F0D8
:1061800064FD0220C5F80803B470BDE8F0410120A9
:1061900006F026B8BDE8F081D4480020F0B505002F
:1061A0004FF00003184600D0E2B90020F0BDEC5CCF
:1061B000A61E092E14D2DFE806F0131113050F11E5
:1061C0000B1305005B1C1454DBB2401CEC5CC0B22A
:1061D0001454401CC0B203E09B1C00E05B1CDBB20B
:1061E0005B1CDBB28B42E2D3F0BD00002DE9F04F27
:1061F00087B0DFF884824FF0000B109CCDF80CB014
:106200000E46A8F81CB001461D00174688F805B0D8
:1062100000D10024E2B2994C88F800200878207060
:1062200009784FF0010C6046490909D002294AD08B
:10623000042946D007297DD0022007B0BDE8F08FA1
:10624000A8F81C00601C0822D8F8441008F052F886
:10625000B8F81C000822083080B2A8F81C002044BE
:10626000D8F8401008F046F8B8F81C000830A8F834
:106270001C008348406980470146A8F81E00B8F812
:106280001C0003AB2154401C80B2090A2154401C5D
:10629000A8F81C00C1B27948D8F84820FEF70AFBDC
:1062A000B8F81C0003992154401C80B20A0A2254F9
:1062B000401C80B20A0C2254401C80B2090E2154AA
:1062C000D4E088F805C098F80300002867D00120C2
:1062D0008DF8100030786B4AC0098DF81100D8F89D
:1062E0003000059012F8010F8DF8180012F8010C1B
:1062F0008DF8190092F82B008DF81A005E48614B5A
:106300003030009004A998F8100000F0C7FA014658
:10631000307861F38610307098F8061021B188F853
:1063200006B040F020003070D8F85010C246A146A8
:10633000617000E092E00A0AA2700A0CE270090E95
:10634000217131786171B8F82810A171090AE171E1
:106350004D4898F80810082408444B4998F809203B
:10636000803107F0BDFF98F8081098F8090008443C
:10637000C1B288F80810EDB19AF800205046CAB1B1
:10638000C279FAB10F2919D830783F4B421862F31D
:106390000300307089F805004A46002007E0072016
:1063A0004BE71E5C1655641C401CE4B280B2884268
:1063B000F7D307E0504629B1C2791AB1324D8AF8B5
:1063C00000100027304AD84656468AF807B0803277
:1063D0002D48FFF7E3FE707208B10120F0719DB106
:1063E000317889B109F80470641CE4B257B3B36A18
:1063F00009EB0400CDF80080CDE901301F4A336D70
:10640000103A2846FEF7C2FD307803AA2118B1835E
:10641000B36ACDF80080CDE90132184A1748203A16
:10642000336DFEF7CDF8B18B039809EB010209F843
:106430000100030A5370030C000E9370D070091D05
:10644000B18316E086F80880404609EB0403B26A7F
:106450008DE80D00094A336D203AD2E74BB142B1C5
:10646000601C294607F03CFF98F80000401CA8F883
:106470001C000020E1E60000C42D00208038002030
:106480004C450300803B00207E3A00200C4810B5AC
:10649000816B41F040018163407908B1FFF79AF8C0
:1064A00007481A30017841F01201017001210548B6
:1064B00003F00DFABDE81040024803F00DBA0000E9
:1064C000C42D0020F03B002070B500251E4C012299
:1064D00002280ED0E0280BD11C48A0F58E71837BDA
:1064E000012B20D04378012B27D0042B00D1427000
:1064F00070BD1748007898B1A079C0EBC00101EBDE
:106500000010144901441448FDF7BEF81248FDF785
:1065100099F8C1B2617011A003F088FB657170BD7C
:106520006570627170BD85730323637005230B7002
:10653000C37B4B70037C8B70D9E702226270808929
:10654000020A0A70487070BD8C2D0020243800208B
:10655000352D002040350020083700204170704460
:1065600061746153697A653D25640D0A000000007D
:106570002DE9FF4F8BB017460C4605464FF0000A39
:10658000DFF8C4B2DFF8C48236E1B14803212A5DE6
:10659000008801EB0040AFA109F068FF285D641C92
:1065A000801EE4B2092871D2DFE800F005106371A3
:1065B000A7B2DBF3F100AA4981F801A0285D0872B7
:1065C000641CE0B22A5C4A72401C50E028198DF825
:1065D00020A0401E0390381B8DF81CA0401C8DF895
:1065E00018A08DF808A08DF8100098F804108DF808
:1065F00012109BF82C108DF811109BF801108DF8DB
:1066000013109BF800108DF814109BF820108DF8D3
:10661000151002AA08A9CDE900125E4607AB06AA2A
:1066200003A998F8100001F0C3F80990C04340078F
:1066300009D19DF8180070709DF81C0030709DF80D
:10664000200086F8200000264FF0050906E0002211
:1066500003200999FDF706FD761CF6B29DF8081097
:10666000B1FBF9F0B042F2D8C8B22044401EC4B227
:10667000C2E0295D641C012288F80B108A40A8F84A
:1066800020200022E4B211460420B3E0B7E0285DE8
:10669000C0F302108DF80100285D641C00F00F00AB
:1066A0008DF80000E0B2295C401CC0B201912A5C68
:1066B000401C41EA0221C0B201912A5C401C41EA1F
:1066C0000241C4B20846642148430190694698F8E3
:1066D000100001F09EF80146C84340070AD19DF81A
:1066E00000208BF82820019ACBF824209DF8012067
:1066F0008BF82120002205207CE0D8F86000FF21E3
:1067000018B1006808B18047014606200E9A71E072
:10671000285D8DF81000641CE0B2CDF80CD0295C27
:10672000401CC0B200912A5C401C41EA0221C0B268
:1067300000912A5C401C41EA0241642200915143CD
:10674000CDE9001AC0B2295C8DF80810401CC4B213
:1067500003A998F8100001F03CF801460022072038
:1067600048E0285D04F1010410F00F00E4B200D10C
:1067700001204FF47A7110FB01F0CBF8100000F506
:106780007A700022CBF814001146082032E039E07C
:10679000FFE7285D641C8DF800A0E4B28DF801A02D
:1067A000810602D501218DF80110C10602D5012113
:1067B0008DF8001000F00F008DF80200694698F87F
:1067C000100001F047F8401C16D058469DF8001004
:1067D00000F82C1F9DF8011041709DF80210214A0D
:1067E0000920515C002200EE101A1146B8EE400A52
:1067F0008BED0C0AFDF736FCBC42FFF4C6AE0FB0C1
:10680000BDE8F08F285D8DF80000641CE0B2295CC3
:10681000401CC0B201912A5C401C41EA0221C0B276
:1068200001912A5C401C41EA0241C4B2084664213D
:1068300048430190694698F8100000F0DAFA0146E2
:1068400000220A20D6E70000803B0020C42D002053
:10685000AC3000204D61633D25640D0A000000004E
:10686000283D0020204E030007480021C0F84011B9
:10687000C0F84411C0F84811C0F84C11C0F800111C
:10688000C0F804110CF074BD001001400422002176
:10689000014808F067BD000000400240F0B41C460B
:1068A000049B15460E46052802D0F0BC0020704718
:1068B000224629463046F0BC00F0A2BA052801D095
:1068C00000207047084600F0D9BA052802D10846D2
:1068D00000F0F4BA704730B414460D46052802D0D3
:1068E00030BCD0B270472146284630BC1A4600F072
:1068F00020BB052802D1084600F022BB70470528BE
:1069000001D000207047084600F03ABB30B502467F
:106910000068D17A092301EB410103EB81010025D5
:10692000405C51680C2401EB001304EB00141B883D
:106930000D51507A48B1907A012805D1106900FBB9
:1069400003F1081A5168085130BDD06800F062F9AF
:10695000834200D31846917A09B9117A19B11169A5
:106960004843401AEEE75068055130BD10B50B0999
:10697000B3EB121F01D8914201D3002010BD01F0EA
:106980000F0430F813200121A1408A4320F813207E
:10699000012010BD10B500280CD000290AD000231A
:1069A00006E000BF31F8134020F813405B1CDBB257
:1069B0009342F7D310BD2DE9F0479246DDE908294F
:1069C0000E4680461946504600F0FCF9002824D0B7
:1069D000002425461EE00023012736F8150007FA9B
:1069E00003F108420ED0E01800EB400109EB8100F2
:1069F000007AC0F30312C0F30301504600F0E2F93D
:106A000001280AD05B1CDBB2102BE6D310346D1CBE
:106A1000E4B2EDB24445DED30020BDE8F0870000CB
:106A20002DE9F05F04462DED068B1F469146B0EE32
:106A3000408AF0EE608A4800DDF84080FDF70EF8ED
:106A40008B4606464BEC190B6FF0070000EB440039
:106A5000FCF7F3FF8A464AEC100B054653EC182B63
:106A600051EC100BFCF708FF53EC192BFCF75DFE03
:106A700053EC182BFCF772FF41EC100B03F0ECF811
:106A800051EC100BFDF716F8A0421AD34AEC105B3C
:106A90004BEC196B53EC182B51EC100BFCF7ECFE84
:106AA00053EC192BFCF741FE53EC182BFCF756FF67
:106AB00041EC100B03F0D0F851EC100BFCF7FAFF8F
:106AC000044648463C60FCF7C9FF41EC190B2046E0
:106AD000FCF7C4FF53EC182BFCF7CEFE9FED121B06
:106AE00053EC112BFCF7C8FE9FED110B41EC1A0B78
:106AF00053EC102B51EC180BFCF7BEFE53EC1A2B89
:106B0000FCF7B4FE53EC192BFCF7B0FE41EC100B74
:106B100003F0A2F851EC100BFCF7ADFFC8F8000031
:106B2000BDEC068BBDE8F09F000000000000E03FD8
:106B3000000000000000104010B5FCF78FFF41EC92
:106B4000100B53EC102B9FED040B51EC100BFCF7CA
:106B500005FF41EC100B10BD0000000000002040BC
:106B600010B504462DED028B0846FCF777FF41EC8B
:106B7000180B0120A040FCF760FF53EC182BFCF72A
:106B8000EDFE9FED051B53EC112BFCF775FEBDECE4
:106B9000028B41EC100B10BD0000000000408F4044
:106BA000400001EE100A10B5B8EE411A30EE410A6D
:106BB00030EE600A10EE100AFCF795FF41EC100B66
:106BC00003F0D6F851EC100BFCF755FF40B210BDA6
:106BD000F0B505004FF0000001D0012717E00020BC
:106BE000F0BD00BF35F811E000244FF0100C234633
:106BF00007FA03F636EA0E0601D1641CE4B25B1C08
:106C0000DBB26345F4D32044491CC0B2C9B29142FF
:106C1000E8D3F0BD0649884201D264207047054997
:106C2000884202D24FF47A70704742F21070704777
:106C300080EE3600803F5C022DE9FC4F89460678E5
:106C400090F9028090F9035090F9047041789B46C6
:106C50009246044659B9B8F10F0F01D10F2D02D059
:106C600094F90770002694F9058094F906501EB334
:106C7000616994F91100CDE9000194F91030207A8E
:106C80004246E168FFF797FE08B906F0FD0694F961
:106C9000182094F91910284600F094F838B994F99E
:106CA0001900A84201DD054601E006F0FB06072EAB
:106CB00002D10FB994F9077089F800808AF8005062
:106CC0008BF800703046BDE8FC8F03780022032B60
:106CD00014D1427802F00F038B70C2F303124A7092
:106CE00082788A80C37842EA03228A800079C0F3DE
:106CF0000212CA7000F00F0008700522104670479B
:106D00008A60002800D14A6070472DE9FF5F0025A6
:106D10001E46934689464FF0FF34AA464CE0009841
:106D200070B1B9F1000F40D00BEB0517B86802F055
:106D3000B3FD0146F868814229D3C7F80CA039E0B9
:106D40000BEB0518D8F8040002F0A6FD07465FEA31
:106D5000090003D0D8F8080002F09EFD87420DD24A
:106D60005FEA090003D0D8F8080002F095FDD8F8D2
:106D70000C10814205D8C8F80CA01BE0D8F804001C
:106D8000F3E7B9B1081AA04214D2044612E088B160
:106D9000B86802F081FDF968081AA0420AD2B86802
:106DA00002F07AFDF9680C1A04E00BEB05100024E0
:106DB000C0F80CA06D1CEDB2B542B0D304B02046B3
:106DC000BDE8F09F884203DB904201DC0120704760
:106DD00000207047F0B41C46049B15460E4605285B
:106DE00005D1224629463046F0BC00F05FB9F0BC20
:106DF0007047052801D000207047084600F07EB992
:106E00002DE9F84304460F4690F9080094F909600B
:106E100061681960617800259046012925D158B133
:106E20006168402901D30125002660291DD301F0A6
:106E30001F01012903D018E00021196015E020216D
:106E40008DF800108DF80100A07A8DF802006846D8
:106E500000F074F940B240B921780025012904D12D
:106E600005490A8842F007020A80387088F80060F5
:106E70002846BDE8F8830000502E0020014630224D
:106E800009880020B1FBF2F302FB1312002A0CD098
:106E9000C8060BD01820B1FBF0F200FB121038B17D
:106EA000080707D0480707D0052070470120704722
:106EB000022070470320704704207047F0B587B068
:106EC000074650208DF80800387910282FD100246B
:106ED0000325264601E0082D1AD23868611C005DA2
:106EE00000903A68515C40EA012000903A68A11C89
:106EF000515C40EA014064214843CDE900060BD0D3
:106F0000CDF80CD08DF8105003A800F04FF808E031
:106F100000968DF8086001968DF8145005A800F0D1
:106F2000AFF8E41C6D1CEDB2E4B2102DD3D307B062
:106F3000F0BD881A40B2002800DA0020C0B27047C5
:106F400000B585B00C4900910C49019141788DF84C
:106F5000081001788DF8091081788DF80A10C17831
:106F60008DF80B1041680391806804906846FFF724
:106F7000CDFC05B000BD0000603F0020542E002075
:106F800010B5017919B1012905D0002010BD0168A3
:106F90000122054803E0016803480122801CFFF735
:106FA000F9FC012010BD0000502E00202DE9F8430F
:106FB000054600208DF800002E7904460746102E65
:106FC00002D30320BDE8F883286807220021007A55
:106FD00040F30300FFF7F6FE00B9012428680722FA
:106FE000002190F908000011FFF7ECFE00B9012420
:106FF000286890F9080040F30301B1EB201F00DD81
:107000000124DFF87480032E11D2002900DD012451
:10701000001107220521FFF7D5FE00B901242868D9
:1070200006EB4602016858F82200814209D128681F
:107030006946006802F0B2FC18B13C4203D0062059
:10704000C0E70127F9E70CB10520BBE70FB1042029
:10705000B8E72B6806EB460108EB81000ECB80E811
:107060000E009DF80010417204480122B2400188D0
:10707000114301800020A5E7603F0020502E002032
:1070800001784FF0000003290BD3064B01EB4102BE
:1070900003EB820210605060906010220248FFF7FC
:1070A00065BC7047603F0020502E0020F8B51C469C
:1070B00015460E46072800DB07206070FDF7AAF989
:1070C000A07094F901000C4A072811D002F11801B0
:1070D00051F82010105CFFF743FD00BF04F10C00D5
:1070E000031F0090012229463046FFF799FCF8BDA6
:1070F000105CFFF721FDF1E7304E030038B505467F
:1071000000208DF8000003246946686802F046FC00
:1071100000B902242878084900EB400051F82020EB
:107120000AB904F0FD04032C03D101EB80006A6866
:107130004260204638BD0000603F002010B5024686
:10714000002013784FF47A71212B19D2DFE803F075
:10715000181818181818181818191D182326282B6D
:107160002E3134183A183C3E4143181845484D4DCD
:10717000110092F90100002108B1401EC1B248B2CD
:1071800010BD92F901001A4903E0194992F9010072
:107190000831085C10BD40F6B83010BD084610BD7F
:1071A0004FF4FA6010BD41F2883010BD41F27070AA
:1071B00010BD4FF4804010BD0E480AF065FF00F589
:1071C000FA6010BD0C4810BD0C4810BD0B48801C67
:1071D00010BD102010BD0A4810BDB3EE000A01E03A
:1071E0009FED080A10EE100A10BD302010BD0000FF
:1071F000384E030018FCFFFF08E6D333502E002062
:10720000603F00209A99094030B40E4A40B10128ED
:1072100004D1901E128801881143018030BC704750
:1072200009480A4938C838C138C838C119C881E87E
:107230001900072010800349012230BC881EFFF787
:10724000A9BB0000522E0020684E0300603F0020C2
:107250002DE9FF4F07258FB0002693460446374699
:10726000ADF800604FF00109DFF82CA142E0206882
:107270000AA93044FFF729FDA8B33044C6B2BDF8CF
:107280002C00ADF800009DF82B100725084304D012
:10729000481E042801D9072901D306252AE0002029
:1072A0004A46534606290ED0BDF8008002FA00FC7B
:1072B0001CEA080F1AD000EB400C53F82CC0BCF1AC
:1072C000000F11D012E000EB400C53F82CC0BCF1C1
:1072D000000F0BD0BDF8008002FA00FC4CEA080C4D
:1072E000ADF800C002E008E005F0FE05401CC0B2A9
:1072F0001028D7D32079B042B9D88DF8349060796E
:107300008DF836000DA8FFF719FF8DF80850A17908
:107310008DF809109DF829108DF80A109DF82A1093
:107320008DF80B109DF828108DF80C10E1798DF870
:107330000D10217A8DF80E10617A8DF80F108DF8EE
:107340001800072010218DF820000AAB8DF81010CE
:107350008DF81900CDF814D0CDF81CA08DF821704F
:107360009A1C591C02A8FFF767FC072803D10B4998
:10737000BDF800200A8010999DF829200A709DF818
:107380002A208BF8002012999DF828200A701C9959
:107390000E7013B0BDE8F08F603F0020502E00202B
:1073A0003EB5016803240A6862B1009100798DF846
:1073B00004006846FFF7FAFD88B104280AD00528C2
:1073C0000CD109E000798DF8080002A8FFF758FEFB
:1073D00020B104E0022402E0012400E00024204661
:1073E0003EBD00002DE9F0478CB0002516468A46C8
:1073F00004468DF824501F460395049505950122F7
:10740000294628480695FFF7E3FBDFF8989028B94E
:10741000B9F8001041F00701A9F80010606802F007
:107420003BFA2168884221D33D601E4AA17A607AE6
:107430000523121DFFF769FC07461A480DF10C08D9
:1074400009AA4146001D8DE80700217A607A164B93
:10745000144AFCF7D1FE98B1411E00200AF014FE38
:1074600018F800108AF8001035600DE09DF824002F
:10747000401C8DF82400606802F00EFA21680F1A93
:107480009DF8240020B1376001200CB0BDE8F087E2
:10749000B9F80010002041F00701A9F8001035608C
:1074A000F3E70000502E0020603F00202DE9F04758
:1074B000344E044690F90150476870688AB08A4695
:1074C000804718B100200AB0BDE8F087E07C58B9C9
:1074D000207800EB40012C4850F8217000EB81002F
:1074E000406800B1074667602848F16810F90590C8
:1074F0003846884700204FF00108072D24D0A17C92
:107500000690CDE9088107902189012789B2CDE94C
:107510000210082105900490CDE90001D6F818C0AA
:10752000A1783B464A464046E047607C012825D08A
:1075300016480830726D405D0D30C1B23846904734
:107540008AF800500120BEE7A17C06900790CDE9A3
:1075500008012189002789B2CDE9021005210C4AD2
:10756000CDE900214FF47A7219FB02F2CDE904084B
:107570003B464CF25031D6F818C0D5E703481030DE
:10758000D8E700004C450300603F0020304E030068
:107590008545010070B50E4905460724096A406813
:1075A000884700B9062495F9000007220021FFF75B
:1075B00009FC08B904F0FD0495F901000522002139
:1075C000FFF700FC08B904F0FB04204670BD000082
:1075D0004C4503000178064B01EB410103EB8101AF
:1075E000044B497A426803EB01114078FFF788BBEE
:1075F000603F0020542E002070B5044690F9021020
:1076000000780F4B00EB400203EB82000D4D407AF7
:1076100005EB001090F90200814200DB084653F8A8
:107620002250D4ED020A94ED010AFFF7B9FA01469F
:107630000548A289C36B2846BDE870401847000082
:10764000603F0020542E00204C4503002DE9F04FF0
:10765000054691462A78354F02EB420207EB82023B
:107660008A463149527A324B90F9010003EB0212FB
:107670000E5695F9021092F902408BB0A14200DB40
:107680000C46FCF7C7FE0990D5ED020A95ED010AFC
:107690002046FFF785FA8346287800EB400057F82C
:1076A0002000244FF96888476A78002040F6B831F6
:1076B0004FF0010C072A21D005900690CDE9070173
:1076C0000821CDE901C10096CDE9030CFE694FF018
:1076D0000108002259466046099BB0477A6D297B14
:1076E000404690477A6A297B40469047C9F8000097
:1076F0008AF800400BB00120BDE8F08F059006909D
:10770000CDE907010521CDE901014FF000084FF453
:107710007A7116FB01F10091CDE9030CFE6946F286
:10772000A8125946099BD8E7304E0300603F00205D
:10773000542E00204C4503004FF0FF30704710B529
:1077400007290ED006DC04290BD005290DD0062907
:1077500018D106E0082904D00B2913D01E2911D115
:107760000DE090F90000072202E090F900000522E8
:107770000021FFF727FB002800D0012010BD007872
:107780003028FAD2002010BD0022052801D0104672
:1077900070470846FFF7D2BC052802D10846FFF71C
:1077A00033BD7047052801D0002070470120704785
:1077B000F8B51C460E46DDE906311546052801D010
:1077C0000020F8BD0091224629463046FFF740FDD3
:1077D000F8BD052801D0002070470846FFF7E0BD3E
:1077E000F0B41C46049B15460E46052802D0F0BC9A
:1077F00000207047224629463046F0BCFFF7F2BD14
:107800000B46052801D00020704711461846FFF7A7
:107810004DBE052801D0002070470846FFF7BABECC
:10782000052802D10846FFF7D5BE7047052802D1CA
:107830000846FFF7E1BE704730B414460D460528F0
:1078400002D030BC002070472146284630BC1A4682
:10785000FFF7FCBE052801D0002070470846FFF75F
:107860006BBF0B46052801D0002070471146184613
:10787000FFF765BF70B51E4800210122C17081620B
:10788000C16201638172027342738173C1720284A7
:10789000017241728270174AA2F1380314781C7089
:1078A00054785C7092F8214083F82140A2F158048A
:1078B000D4E91F56C4E9115692F82C4083F82C40A5
:1078C00092F82D4083F82D4092ED0C0A83ED0C0ABE
:1078D00092ED0D0A83ED0D0A41718171C171426A09
:1078E00001E05162926A002AFBD14175817570BD39
:1078F000C42D0020B83B00201CB51049104AD1E926
:107900000001CDE900014FF4A370ADF800000B4871
:107910006946083007F0F6FC08B102F075FF074829
:107920000021083007F090FD04480121083007F0DD
:1079300079FD0248083007F0D9FC1CBD3C45030026
:10794000A923030070B5092000F0C0FD05460620FC
:1079500000F0BCFD0404072000F0B8FD44EA002458
:10796000082000F0B3FD2043FCF778F89FED191BC9
:1079700053EC112BFBF780FFFCF79CF80446002129
:10798000092001F0CDFB3B2000F0A0FD40F04001BC
:107990003B2001F0C5FB3B2000F098FD8006FAD4A7
:1079A0000E4800F081FE3B2000F090FD40F04001C9
:1079B0003B2001F0B5FB3B2000F088FD8006FAD4A7
:1079C0002946092001F0ACFB2046BDE8704000F0DC
:1079D0006BBE00000000000080844E4000A1BC335C
:1079E0000200044802D0416B00200847426B084661
:1079F000104700004C45030002F08AB870B50E46EF
:107A0000144900EB400001EBC0051446E86A183544
:107A100020B101280FD0022805D113E0284602F03A
:107A2000ABF8A04201D2002411E02246314628469C
:107A300002F0DAF80BE0284602F09EF8A042F4D2F9
:107A40000446F2E73146284602F0A1F804462046F3
:107A500070BD0000C4510020F8B511480F4D044618
:107A60004FF48C7109F099F8002815D00026C4F85D
:107A70001861D4F818010090A87F2C46FF2801D087
:107A800008F0F1FA66772672D4E9002101B004F11A
:107A90000800BDE8F0401047F8BD00004049002054
:107AA0000030004002494FF0402005F099BE000030
:107AB000644900200BF0AABB09F004B810B50448D3
:107AC000FCF7DEFC0248BDE810400830FCF7D8BCEB
:107AD000782D00207CB50125002423462A46172155
:107AE0000748CDE90045FCF7E1FC054800230122E9
:107AF00016210830CDE90045FCF7D8FC7CBD00001C
:107B0000782D002001207047014890F85C007047F4
:107B10002041002070B50D462DED0E8B01004FF079
:107B200000009FED84BB9FED85CB9FED86AB874C1E
:107B30009FED878B0ED001297ED1D4F89C00B0EE4A
:107B4000489AF0EE689A07285FD0082860D0092884
:107B500063D160E0606FFBF781FF41EC190B2846B1
:107B6000FBF77CFF41EC1D0B302000F0AFFC30F048
:107B7000F90004D0B0EE4AEAF0EE6AEA03E0B0EEB3
:107B800048EAF0EE68EA272000F0A0FC20F0F800B8
:107B9000B4F87810401C0844FBF760FF41EC100B70
:107BA00094F87A00012803D1B0EE48AAF0EE68AA52
:107BB00053EC1A2B51EC100BFBF7B7FD53EC1E2BBB
:107BC000FBF7B3FD53EC1D2BFBF7AFFD41EC100BA6
:107BD00094F87C00012801D19FED5F8B51EC100BD4
:107BE00053EC182BFBF7A1FD53EC1B2BFBF744FECA
:107BF00053EC192BFBF7B2FE53EC1C2BFBF73CFEAE
:107C000041EC100B02F040F989E09FED559B04E038
:107C10009FED559B01E09FED569B54F8A06F01200E
:107C2000B040FBF70AFF41EC100B51EC190B53EC81
:107C3000102BFBF793FE00E079E041EC100B51ECC8
:107C40001A0B53EC102BFBF789FE41EC190BE08863
:107C5000FBF704FF9FED481B53EC112BFBF765FD71
:107C600053EC192BFBF708FE41EC1D0B6079001D4E
:107C7000FBF7F4FE41EC1E0B2079A03C00B1022082
:107C8000301A8000FBF7EAFE41EC1A0BE800714263
:107C900000EB810094F8AA1000EB011094F8A810F2
:107CA00001B11421401A1C30FBF7D8FE53EC1A2BFB
:107CB000FBF754FE41EC100B01F0CEFF53EC1E2BF2
:107CC00051EC100BFBF7D8FD41EC1A0B53EC182BC1
:107CD000FBF734FF03D2B0EE4A8AF0EE6A8A53EC27
:107CE0001B2B51EC180BFBF720FD53EC192BFBF76A
:107CF000C3FD41EC100B51EC1D0B53EC102BFBF7AB
:107D000014FD53EC1C2BFBF7B7FD9FED1D1B53EC33
:107D1000112BFBF70AFD41EC100B02F029F8BDEC2A
:107D20000E8B51EC100BBDE87040FBF7C3BEBDECF1
:107D30000E8B70BD0000000000002040000000001D
:107D400000408F40000000000000F03F2041002074
:107D500000000000000000000000000000000040E3
:107D6000000000008084FE400000000080840E417E
:107D70000000000080841E4100000000000011404F
:107D80002B8716D9CEF7EF3F70B51A4908601A490C
:107D90001A4801F08BFD19481749283001F086FD7B
:107DA00016481549503001F081FD00F0CBFBFFF77C
:107DB000C9FD002000F0F2FC0E48001D00F066F83E
:107DC0000F4D002404EB4406A85D00F0ABFC7019D5
:107DD0008178407801F0A4F9641CE4B2102CF1D34E
:107DE000002000F09FFC05490020C03981F85C00AC
:107DF00070BD0000A42E0020A9830200E0410020F5
:107E00008C4E03007FB50E2000900B230C220D2119
:107E10001D4801F041FB01251B4800242B462A4642
:107E200006214038CDE90045FCF740FB0023012244
:107E3000052102A8CDE90045FCF738FB02251248D0
:107E4000CDE9005400231A4607213038FCF72EFBF9
:107E50000D48CDE9005400231A4608212838FCF7C4
:107E600025FB0948CDE9005400231A460921203892
:107E7000FCF71CFB0448CDE9005400231A460A21F4
:107E80001838FCF713FB7FBD6041002010B5044695
:107E90000368032201210D48FCF742FB0B48032233
:107EA000012108306368FCF73BFB084803220121ED
:107EB0001030A368FCF734FB0448E3680322012177
:107EC000BDE810401830FCF72BBB0000304100200B
:107ED0002DE9F0411D4617460E468046012400F06C
:107EE00021FC304600F0E0FB052000F057FC0120AB
:107EF000FCF7D1F901F0CEFC064606E0404600F062
:107F000001FBB84201DD002404E0304601F0C4FC6E
:107F1000A842F3D300F01EFF2046BDE8F081000028
:107F2000F8B500258DF80050904C914E94F85C0007
:107F300001280AD0022854D104F1C00001F0EDFC60
:107F400094F85D0001287DD100E194F85D00B8B19E
:107F5000012846D14021122001F0E2F8122000F061
:107F6000B5FA8DF800009DF8000080066BD5202141
:107F7000122001F0D5F894F8AE0000287DD08CE0F6
:107F800094F87C00012833D13F2000F09FFA8DF84F
:107F900000009DF8000080072AD40B213E2001F04C
:107FA000BFF810213F2001F0BBF87048E83001F025
:107FB000B4FC94F87E00A8B10D2000F087FA40F0E0
:107FC00040010D2001F0ACF86A4801F085FC3068F2
:107FD00010B1006900B1804704F8885F6570A58121
:107FE0006581F8BD634801F098FC84F85C50EEE7C9
:107FF000B4F89200604F10B9B4F8941031B1B4F8ED
:108000009420801AC1B2D01992340DE094F87A000D
:10801000A0B3322000F05AFAA4F8920014F8921F8C
:108020006088091AC9B2384400F064FA34F8020BC7
:1080300024F894094F48283801F06FFC94F87E002A
:1080400018B301E086E031E00D2000F03FFA40F087
:1080500040010D2001F064F8464801F03DFC306815
:108060000028B9D08668002EB6D094F98A20B4F8DA
:10807000921000234048B047AEE70CE0FFE73D48D0
:1080800001217E3800F036FAC8E784F85C503948A0
:1080900001F043FCE3E784F85C503648283801F0EF
:1080A0003CFC306800289CD0006959E0192000F0A1
:1080B0000DFA40B284F8B800010605D5C043401C53
:1080C000C0F38500474201E0C0F385071A2000F0A5
:1080D000FDF92A49226E002F06DA00EB20108A42B1
:1080E000384405D99D3804E08A4200EB2010F9D8C5
:1080F000A438A4F8BA00132000F0E8F984F8BC0012
:108100001020AE3400F0E2F901460D2001F008F82D
:10811000A17B194800F0EEF914F8AE0908B984F80B
:108120005C501448283801F0F8FB30680028BAD0B9
:108130008568002DB7D014F9B83FAC46B4F90220D9
:10814000217901B00C48BDE8F040604708211220B9
:1081500000F0E6FF84F85C5030680028A3D0006887
:108160000028A0D001B0BDE8F04000472041002029
:10817000A42E0020304200202040002040DD4A1F75
:1081800070B5344C204694F85C3090F85D20B0F81F
:108190009210B0F89400A4F58075012B15D0022B35
:1081A00012D1002A10D10A1A234694F89710B3F876
:1081B0009430284618448A4244DD00F0C3FF34F866
:1081C000940FE1780844208070BDB2B1012AFBD140
:1081D0002048E83001F0A1FB8021122000F0A0FF30
:1081E000002084F85C001C4800680028ECD0C068BF
:1081F0000028E9D0BDE87040004741B938B994F88B
:108200007A00A0B1322000F061F9A4F89200B4F82D
:108210009210B4F894000A1A94F896108A420CDD71
:10822000284400F067F934F8940FA178CAE70948A8
:108230000121923000F05EF9E9E7D1B2284400F064
:1082400059F902E0D1B200F07DFF34F8920F60805E
:1082500070BD000020410020A42E002070B52E4CDF
:108260002E4D204694F85C2090F85D1090F8AB00FD
:10827000012A03D0022A00D109B970BDB9B1012980
:10828000FBD10128F9D10221122000F049FF286812
:108290000028F2D040690028EFD01C2000F016F929
:1082A000296800F03F004969BDE870400847606BED
:1082B000012568B394F888000128DED194F889007C
:1082C0000028DAD1164801F028FB04F8895F112054
:1082D00000F0FCF84008404260701C2000F0F6F806
:1082E00005461B2000F0F2F845EA0020FBF7B6FB3C
:1082F0009FED0C1B53EC112BFBF7BEFAFBF7BBFBFE
:10830000C4F803000C2000F0E1F84009E07170BDF2
:1083100084F88850D2E7000020410020A42E0020DD
:10832000304200200000000080844E40144810B508
:1083300090F85D00002821D001281FD1122000F004
:10834000C5F8104CC0070BD00521122000F0E8FE44
:108350002068002812D0816900290FD001200AE08E
:108360000421122000F0DCFE2068002806D081697C
:10837000002903D00020BDE81040084710BD0000D0
:1083800020410020A42E0020064890F85D1000290E
:1083900006D190F88810002902D1012180F88810B8
:1083A00070470000204100202DE9F047334CDFF8F2
:1083B000D0904FF0000894F85C0001282BD00228E0
:1083C00059D100F0BFF8FFF7BDFA002000F0E6F940
:1083D0002C4E002505EB4507F05D00F0A3F9B81918
:1083E0008178407800F09CFE6D1CEDB2102DF1D329
:1083F000002000F097F994F8B40000F0E7F984F851
:108400005C80D9F80000002835D04068002832D0C0
:10841000BDE8F047004794F85D00D0B984F8888043
:1084200084F88980A4F89480A4F8928045460B21B2
:108430003E207E3400F074FE10213F2000F070FEDC
:1084400014F87E0901280AD084F85C500E4801F027
:1084500064FAD9F8000000280DD0C068D6E70D20D6
:1084600000F034F840F040010D2000F059FE0648BD
:1084700001F032FAEDE7BDE8F0870000204100206E
:10848000A42E00208C4E03003042002070B5002541
:10849000012000F047F9FF21112000F041FE0520E6
:1084A00000F07CF900240120FBF7F5FE2C2000F001
:1084B0000DF800F00100A040641C0543E4B2202C3C
:1084C000F1D300F047FC284670BD000008B5014616
:1084D00001236A46024800F0B7FF9DF8000008BD7E
:1084E0006041002013460A460146014800F0ACBF37
:1084F000604100200B4602460021014800F0A4BF65
:108500006041002010B520B1012808D04FF0FF30A5
:1085100010BD1120FFF7DAFF4008404210BD0748A8
:108520000749006E88424FF01B0003D9FFF7CEFFCA
:108530009D3810BDFFF7CAFFA43810BD20410020B0
:1085400040DD4A1F1CB50024009423460122062169
:108550000A480194FBF7AAFF0120FBF79CFE0120CB
:10856000CDE9004000231A4606210448FBF79EFF90
:10857000BDE81C400620FBF78EBE00002041002015
:1085800073B53B4C0546002094F85D1011B10129EC
:108590006BD12DE00020A4F894009DF80410A4F8FD
:1085A000921094F87A0058B1322000F0B9FD00BF63
:1085B0009DF80420501E3F2807D884F897200BE030
:1085C000012101A800F0BEFDF2E72946294805F087
:1085D00087FE202084F8970094F89710284680346E
:1085E00000F0B0FDA08AE17D0844A08220683CE054
:1085F00094F8AD0001284FF0330021D0FFF766FF5B
:1086000000F0BE013320491C00F08AFD1D213B20F3
:1086100000F086FD9DF8041084F8BC10222000F0C4
:108620007FFD00210E2000F07BFD00210D2000F0D9
:1086300077FD0120FFF74AFF30F0F80009D00DE088
:10864000FFF744FF00F0BE01332000F069FD19215F
:10865000DDE700F093FB0120FBF71DFE9DF8041001
:10866000284600F06FFDD4F8B00000F09BFB7CBD05
:108670002041002020400020032803D00021024890
:10868000FBF790BF0121FAE7802D002005490A7809
:10869000824205D0087008B1FFF710BAFFF71ABA86
:1086A00070470000742D00200E4910B50866FBF7D6
:1086B000D5F99FED0D1B53EC112BFBF74FF9FBF791
:1086C000F9F90446C0F30741062000F029FDC4F380
:1086D0000721072000F024FDE1B2BDE8104008208A
:1086E00000F01EBD204100200000000080844E40AC
:1086F00070B50D46044600F015F824B1012C0DD1DB
:108700002946232006E0064890F87A00002805D183
:1087100029463220BDE8704000F002BD70BD000067
:108720002041002010B504460120FFF7CFFE1A4972
:10873000000601D5012000E0002081F85D00C0B2F4
:10874000A04227D081F85D40012C0FD000F002FB41
:108750000120FFF7BBFE00F07F01012000F0E0FCEC
:108760000021402000F0DCFC30210EE000F0F2FAA5
:108770000120FFF7ABFE40F08001012000F0D0FCAB
:108780000021402000F0CCFC0021BDE81040412039
:1087900000F0C6BC10BD00002041002010B5040050
:1087A00010D00020FFF772FF2046FFF765FF012081
:1087B000FFF78CFE00F0F8012143BDE810400120D6
:1087C00000F0AEBC0120FFF761FFF0E710B50446F2
:1087D0000120FFF7A7FF064880F8B4400CB1342110
:1087E00000E01221BDE81040392000F099BC0000E3
:1087F0002041002070B504460920FFF767FE0646B9
:108800004D20FFF763FE054646F0F00001062BD52C
:10881000112C02DD45F0070502E005F0F8052D1DDD
:10882000E943490703D0022C0CDA02240DE0052CA1
:1088300001DA052402E0142C00DD142400F0F0011C
:10884000641F05E0112C00DD112400F0F001A41ECE
:1088500004F00F000143092000F062FC2946BDE846
:1088600070404D2000F05CBC4FF0FF318C4201DACB
:108870000C4602E00E2C00DD0E2400F0F001641C1A
:10888000E6E7000070B57B4C0546002694F85D00D5
:1088900010B1012824D124E014F87E6F4020FFF7A6
:1088A00015FE00F0030040F00C01402000F038FC01
:1088B0004120FFF70BFE40F0C101412000F030FCE9
:1088C0003520FFF703FE00F03F0020761E210D202B
:1088D00000F026FC0020A072E072E082A0827E3CC4
:1088E00088E094F8AD0001284FF0330027D0FFF75F
:1088F000EDFD00F0BE013320491C00F011FC1D21EC
:108900003B2000F00DFCD4F89C0009284FF031000A
:108910007DD2FFF7DBFD00F07F01312000F000FC8D
:108920000021302000F0FCFBD4F89C00092847D23D
:10893000DFE800F00E161E262E3641414100FFF7FB
:10894000C5FD40F04101332000F0EAFB1921D7E7D3
:1089500048212F2000F0E4FB41F68261206E26E0E2
:1089600044212F2000F0DCFB42F6B401206E1EE013
:1089700044212F2000F0D4FB43F60451206E16E072
:1089800044212F2000F0CCFB45F25E11206E0EE05A
:1089900044212F2000F0C4FB47F61221206E06E090
:1089A00044212F2000F0BCFB206E4AF2C62108446F
:1089B000FFF77AFE04E040215FF02F0000F0B0FBEB
:1089C00094F8AB0094F8AE60012833D01F21112039
:1089D00000F0A6FB4020FFF779FD00F03F014020AA
:1089E00000F09EFB00210F2000F09AFB00210D20DB
:1089F00000F096FB4FF480711F48FAF70EFE01203D
:108A000084F85C0055B11B482946E83000E00BE0D3
:108A100000F05DFF1748E83000F05EFF94F85D005D
:108A200090B106B305201FE0FFF750FD40F0800134
:108A30003120C3E71D21112000F072FB4020FFF719
:108A400045FD00F03301CAE70520FFF7A7FE002E21
:108A50000ED10A48D4F8841000F039FFBDE8704008
:108A6000064800F039BF0620BDE87040FFF796BE0B
:108A700070BD000020410020204000203042002036
:108A80002DE9F04F9B462DED028B81B014468A46AE
:108A90008046DDF844900D9F0F9EFFF743FE380A95
:108AA000A24D0090B8F1000F06D0B8F1010F73D1BC
:108AB000BAF1020F71D9FEE745F86CAFAC600C98C3
:108AC0006860AE731098E87385F810901498687415
:108AD0001598A874AF812046FAF7C0FF884648EC85
