:020000040002F8
:10300000B06B0020B1340200B9340200BB340200BE
:10301000BD340200BF340200C134020000000000D1
:10302000000000000000000000000000C3340200A7
:10303000C534020000000000C7340200C934020099
:10304000C94C0200CB34020031520200B54D0200DF
:10305000014E0200CB340200DD3D0200CB34020001
:10306000CB340200CB340200CB340200CB3402005C
:10307000CB340200CB340200CB340200CB3402004C
:10308000CB340200214D0200CB340200CB340200CD
:10309000114E0200CB340200154E0200CB34020068
:1030A000CB340200CB340200CB340200CB3402001C
:1030B000CB340200CB34020000000000000000000E
:1030C000CB340200CB340200CB340200CB340200FC
:1030D000454D0200CB340200CB340200000000005A
:1030E00000000000000000000000000000000000E0
:1030F00000000000000000000000000000000000D0
:1031000000000000000000000000000000000000BF
:1031100000000000000000000000000000000000AF
:10312000000000000000000000000000000000009F
:10313000000000000000000000000000000000008F
:10314000000000000000000000000000000000007F
:10315000000000000000000000000000000000006F
:10316000000000000000000000000000000000005F
:10317000000000000000000000000000000000004F
:10318000000000000000000000000000000000003F
:10319000000000000000000000000000000000002F
:1031A000000000000000000000000000000000001F
:1031B000000000000000000000000000000000000F
:1031C00000000000000000000000000000000000FF
:1031D00000000000000000000000000000000000EF
:1031E00000000000000000000000000000000000DF
:1031F00000000000000000000000000000000000CF
:10320000DFF80CD000F08CFD0048004791950200DB
:10321000B06B002030B4044654E8000F0D4644E87B
:103220000053002BF8D1156030BC704730B4044611
:1032300054E8000F40EA010544E80053002BF7D1A1
:10324000156030BC704730B4044654E8000F00EA03
:10325000010544E80053002BF7D1156030BC7047DE
:1032600030B4044654E8000F80EA010544E80053F6
:10327000002BF7D1156030BC704730B4044654E8D9
:10328000000F00EB010544E80053002BF7D1156057
:1032900030BC704730B4044654E8000FA0EB010581
:1032A00044E80053002BF7D1156030BC7047000094
:1032B00030B4044654E8000F0D4644E80053002B98
:1032C000F8D1156030BC704730B4044654E8000FA4
:1032D00040EA010544E80053002BF7D1156030BCEB
:1032E000704730B4044654E8000F00EA010544E892
:1032F0000053002BF7D1156030BC704730B4044642
:1033000054E8000F80EA010544E80053002BF7D190
:10331000156030BC704730B4044654E8000F00EB31
:10332000010544E80053002BF7D1156030BC70470D
:1033300030B4044654E8000FA0EB010544E8005304
:10334000002BF7D1156030BC7047000030B450E856
:10335000012F93B2C48923448489A34228BF1B1B35
:103360000489A34202BFBFF32F8F002007E0C3EA06
:10337000020340E80134002CE9D14FF001000A605B
:1033800030BC704750E8012FC2EA024240E80121F8
:103390000029F7D1704730B450E8022F1FFAA2F38A
:1033A000C488A34202BFBFF32F8F00200DE0C48961
:1033B00023448489A34228BF1B1BC2EA034340E87D
:1033C0000234002CE8D14FF001000A6030BC704795
:1033D00050E8022FC2EA224240E802210029F7D138
:1033E0007047034653E8022FD988B2EB324F4FF0B3
:1033F000000017BF92B241EA014142EA014104E0F4
:103400005A68B2EB324F08BF012043E80212002A8B
:10341000E8D1704730B4044654E8000F0D4644E844
:103420000053002BF8D1156030BC704730B404460F
:1034300054E8000F40EA010544E80053002BF7D19F
:10344000156030BC704730B4044654E8000F00EA01
:10345000010544E80053002BF7D1156030BC7047DC
:1034600030B4044654E8000F80EA010544E80053F4
:10347000002BF7D1156030BC704730B4044654E8D7
:10348000000F00EB010544E80053002BF7D1156055
:1034900030BC704730B4044654E8000FA0EB01057F
:1034A00044E80053002BF7D1156030BC7047000092
:1034B0000648804706480047FEE7FEE7FEE7FEE7CE
:1034C000FEE7FEE7FEE7FEE7FEE7FEE7354F020018
:1034D000013202002DE9F05F0546002092469B462E
:1034E00088460646814640241BE02846414647461A
:1034F000224600F0F6FA53465A46C01A914110D3BC
:1035000011461846224600F0DDFA2D1A67EB010835
:103510004F4622460120002100F0D4FA17EB0009A3
:103520004E41201EA4F10104DFDC484631462A4604
:103530004346BDE8F09F000000487047DCFC0200F5
:10354000A0F16101192900D82038704740EA010331
:103550009B0703D009E008C9121F08C0042AFAD249
:1035600003E011F8013B00F8013B521EF9D270470D
:10357000D2B201E000F8012B491EFBD270470022B5
:10358000F6E710B513460A4604461946FFF7F0FF62
:10359000204610BDCAB2401E10F8011F8A4202D058
:1035A0000029F9D100207047421C10F8011B0029A6
:1035B000FBD1801A704710B5002200E0521C835CDA
:1035C0008C5CA34201D1002BF8D1D8B2E1B2401AF1
:1035D00010BD30B504460020034600E05B1C93425A
:1035E00003D2E05CCD5C401BF8D030BD034611F83F
:1035F000012B00F8012B002AF9D11846704730B58D
:1036000005460020034600E05B1C934205D2EC5CBB
:10361000C85C201A01D1002CF6D130BD2DE9F05F35
:1036200093460F4680460446002601F08DFFD0F8F1
:103630000090824614F8015B2DB1FFF77DFF006812
:10364000405DC007F6D12B2D02D02D2D1AD0641E5F
:103650000021CAF800105A463946204600F063FAA5
:10366000014627B13868A04201D1C7F80080DAF8D6
:103670000000022809D0CAF80090700505D548421C
:10368000BDE8F09F46F48066E2E70846F8E770B5CB
:10369000064601F059FF046805460A22002130461B
:1036A00000F090FA2C6070BD2DE9FE4F804681EA53
:1036B0000300C00F0C46009021F0004123F00045AC
:1036C000B8EB0200A94105D24046214690461C466F
:1036D0000B46024623F00040104347D0270DC7F3A6
:1036E0000A00C3F30A510290401A019040286BDA95
:1036F000C3F3130040F4801B0098924620B10023CE
:10370000D2EB030A63EB0B0B01985946C0F1400260
:10371000504600F0D7F906460D4650465946019AE4
:1037200000F0EFF910EB08006141002487EA115224
:1037300084EAE7731A4340D0009A62B3019A012ADF
:103740004FEA075215DC001B61EB02014FF000420B
:1037500002EA0752CDE90042001C41F580113246D1
:103760002B4600F076FA03B0BDE8F08F40462146C4
:10377000F9E7001B61EB0201001C41F58013001802
:103780005B412018A2F5001747EB030140EAD57012
:10379000B6196D4111E06D084FEA360645EAC0756D
:1037A0004FEA0752001B61EB0201001C41F580113A
:1037B00049084FEA30000019514132462B4603B008
:1037C000BDE8F04F00F036BA009801224000002317
:1037D000D0EB020263EBE073009821464FEAE074FD
:1037E000B8EB000061EB0401E9E783F000435BE71D
:1037F00081F0004158E72DE9FE4F81EA030404F00F
:10380000004421F0004100944FF0000B23F00043EE
:1038100050EA01045ED052EA03045BD0C3F30A54B9
:10382000C1F30A552C44A4F2F3340194A0FB0254D2
:10383000C1F3130141F48011C3F3130343F4801364
:1038400001FB024400FB034E840A970A44EA8154B8
:1038500047EA8357A4FB076802958D0A05FB078595
:103860004FEA932C04FB0C542705029D4FEA06589F
:1038700047EA1637B5EB08056EEB070C870E920E7C
:1038800047EA811742EA8312A7FB0201B6EB0B015C
:1038900064EB00042B0D43EA0C335E1844EB1C5020
:1038A000DA465146E7FB0201C5F313044FEA0B3336
:1038B00043EA14534FEA0432019C43EA0603A4F19D
:1038C0000C040294009CCDE900B400F0C2F903B0EE
:1038D000BDE8F08F00200146F9E72DE9F04D81EABF
:1038E000030404F0004B21F0004514464FF0000A99
:1038F00023F0004150EA050220D054EA01021DD015
:10390000C5F30A570246C5F31303C1F31300C1F30D
:103910000A5640F4801543F48013A7EB0608101BE9
:10392000D64608F2FD3873EB050002D308F1010812
:1039300001E092185B41B8F1000F03DA0020014664
:10394000BDE8F08D00204FF48011064684460EE05D
:10395000171B73EB050705D3121B63EB0503064327
:103960004CEA010C49084FEA300092185B4150EADA
:103970000107EDD152EA030012D082EA040083EA83
:103980000501084305D0101BAB4106D201220023DC
:1039900006E000224FF0004302E06FF001025310F6
:1039A0001AEB06004CEB085110EB0A0041EB0B013F
:1039B000BDE8F04D00F03EB90EB540F23341029142
:1039C0000021CDE900110A460B4600F042F903B090
:1039D00000BD70B5C1F30A5201F000450024C1F3E7
:1039E000130140F2FF3341F480119A4201DA0020C2
:1039F00070BD40F233439A42A2F2334203DC52429A
:103A000000F06FF800E090402C43F1D0404270BDD0
:103A100000F0004230F000400AD0C10D01F56071A5
:103A2000C0F3160042EA0151C20840071143704733
:103A3000002001467047000030B5041E71F10004FB
:103A400004DB4FF00044404264EB0101141E73F1AB
:103A5000000405DB1C464FF00043524263EB0403B5
:103A60008B4208BF824230BD30B5041E71F10004A4
:103A700004DB4FF00044404264EB0101141E73F17B
:103A8000000405DB1C464FF00043524263EB040385
:103A9000994208BF904230BD30B50B460146002028
:103AA0002022012409E021FA02F59D4205D303FA00
:103AB00002F5491B04FA02F52844151EA2F1010281
:103AC000F1DC30BD202A04DB203A00FA02F10020AC
:103AD00070479140C2F1200320FA03F3194390404C
:103AE0007047202A04DB203A21FA02F000217047B7
:103AF00021FA02F3D040C2F1200291400843194656
:103B00007047202A06DBCB17203A41FA02F043EA3D
:103B1000E07306E041FA02F3D040C2F12002914086
:103B20000843194670472DE9F05F82460078002768
:103B300015468B460AF10104B946302801D09DB1E3
:103B400013E014F8010B0127782803D0582801D07E
:103B500045B10AE00DB1102D07D10027102514F84A
:103B6000010B02E0082500E00A250026B0460EE021
:103B700005FB080005FB06F1012701EB10461FFAC3
:103B800080F8B6F5803F00D3B94614F8010B2946FA
:103B900000F0D8F80028EBDABBF1000F05D00FB128
:103BA000641E00E05446CBF80040B9F1000F06D087
:103BB00001F0CAFC02210160C81EBDE8F09F48EA7E
:103BC0000640FAE72DE9F04791460F468046044645
:103BD000002614F8015B2DB1FFF7AEFC0068405DD4
:103BE000C007F6D12B2D02D02D2D18D0641E4A46C9
:103BF00039462046FFF797FF27B13968A14201D126
:103C0000C7F8008071054FF002040BD54042002830
:103C100003DD01F099FC0460A007BDE8F08746F4DD
:103C20008066E4E70028F8DA01F08EFC04606FF0AB
:103C30000040F2E710B5141E73F1000408DA401CCE
:103C400041F1000192185B411A4301D120F00100BB
:103C500010BD2DE9F04D92469B4611B1B1FA81F2AB
:103C600002E0B0FA80F220329046FFF72BFF0446C4
:103C70000F4640EA0A0041EA0B0153465A46084300
:103C800013D0114653EA010019D0C8F14002504642
:103C9000FFF727FF05460E46504659464246FFF7B6
:103CA00011FF084305D0012004E020463946BDE855
:103CB000F08D0020054346EAE0762C4337430A980E
:103CC0006305E40AA0EB08000022FD0A44EA475419
:103CD0000A3002D500200146E9E7010510196941C3
:103CE000DDE9084500196941BDE8F04DA2E7C1F3DF
:103CF0000A52C1F3130140F2FF3341F480119A429A
:103D000002DA00200146704740F233439A42A2F2A1
:103D1000334202DC5242FFF7E4BEFFF7D3BE00009D
:103D2000064C074D06E0E06840F0010394E8070008
:103D300098471034AC42F6D3FFF766FA0804030044
:103D4000280403003A2800D2303820F02002412A0B
:103D500001D3A2F13700884201D34FF0FF30704702
:103D600070B58C1810F8015B15F0070301D110F83D
:103D7000013B2A1106D110F8012B03E010F8016B6A
:103D800001F8016B5B1EF9D12B0705D40023521EED
:103D90000DD401F8013BFAE710F8013BCB1A921C55
:103DA00003E013F8015B01F8015B521EF9D5A14253
:103DB000D8D3002070BD000072B602484168491C8B
:103DC00041607047602D002003494868401E4860EC
:103DD00000D162B670470000602D00202DE9F04749
:103DE00000268CB0DFF86091B0464FF48075012456
:103DF00037460696284607F047F838B1D9F8040345
:103E0000204203D0284607F035F826432D1D6400D4
:103E10007F1CADB2082FEDD34FF4BE74204607F0DF
:103E200033F848B1204607F025F846F0004606AAC8
:103E30000121002007F00AF8444D16F0FF0F15D0BD
:103E40000127002437420DD009EB8401D1F8100579
:103E5000D1F81015C0F3042055F82420C1F3014116
:103E600002B190477F00641C082CEBD3002E67DA68
:103E70004FF0FF30CDE9088000263446281910F8AD
:103E8000507F90F9000027F0C008401C44D009A9D9
:103E9000404605F026FF58B34FEA9719404603F015
:103EA00009FD55F820701FB1B9F1030F03D00FE0E1
:103EB000B9F1030F30D108A84FEAD80208F0070380
:103EC000815C4FF0010C0CFA03FC41EA0C018154B7
:103ED0004FF0A04101EB8800D0F8000706A9C0F31D
:103EE000014A404605F0FDFE18B1BAF1020F03D0B9
:103EF00012E0BAF1030F0FD1B9F1030F08D1BAF1F3
:103F0000020F1BD00221404606F06BFF761CF6B272
:103F100017B149464046B847641C042CAED3002E66
:103F20000ED06A460121002006F090FF0699009805
:103F3000884205D00690089809909DE70321E2E7A2
:103F40000CB0BDE8F0870000006000404840002051
:103F500070B58A4C00202DED108B2118401C0A28CA
:103F6000CA7C02F00F02CA74F7DB207DFFF724FD44
:103F700041EC190BE07CFFF71FFD9FED818B53ECAB
:103F8000182BFFF738FC53EC192BFFF78DFB41EC96
:103F90001B0BA07DFFF710FD41EC190B607DFFF7B7
:103FA0000BFD53EC182BFFF726FC53EC192BFFF7F6
:103FB0007BFB41EC1C0BE07EFFF7FEFC41EC1A0B97
:103FC000A07EFFF7F9FC53EC182BFFF714FC41EC33
:103FD0001F0B607EFFF7F0FC9FED6B9B53EC192BE2
:103FE000FFF709FC41EC1E0B207EFFF7E5FC9FED7F
:103FF00068DB53EC1D2BFFF7FEFB53EC1E2BFFF78A
:1040000053FB53EC1F2BFFF74FFB53EC1A2BFFF71F
:104010004BFB9FED61EB53EC1E2BFFF7ECFB53ECDE
:104020001C2BFFF741FB9FED5EAB53EC1A2BFFF708
:1040300054FC53EC1B2BFFF737FB5B4D41EC100B93
:1040400085ED060B607F532805D151EC100B81F0F4
:104050000041C5E9060100202118401CCA7F0A283A
:1040600002F00F02CA77F7DB94F821001F34FFF744
:10407000A3FC41EC1B0B6078FFF79EFC53EC182B64
:10408000FFF7B9FB41EC1C0B2078FFF795FC53ECD4
:10409000192BFFF7B0FB53EC1C2BFFF705FB53EC80
:1040A0001B2BFFF701FB41EC1B0B2079FFF784FC76
:1040B00041EC1C0BE078FFF77FFC53EC182BFFF76B
:1040C0009AFB53EC1C2BFFF7EFFA41EC1C0BE07949
:1040D000FFF772FC53EC192BFFF78DFB41EC190B2A
:1040E000A079FFF769FC53EC1D2BFFF784FB53EC21
:1040F000192BFFF7D9FA41EC190B607AFFF75CFC3A
:1041000041EC1D0B207AFFF757FC53EC182BFFF7FF
:1041100072FB53EC1D2BFFF7C7FA41EC100B51EC6F
:10412000190B53EC102BFFF7BFFA53EC1E2BFFF7C4
:1041300062FB53EC1A2BFFF7D0FB41EC180B53EC4E
:104140001A2B51EC1C0BFFF7C8FB53EC1B2BFFF792
:10415000ABFA53EC182BFFF7A7FA41EC100B85EDE7
:10416000080BE07A572805D151EC100B81F0004183
:10417000C5E90801BDEC108B70BD0000523900206C
:104180000000000000002440000000000000594032
:104190000000000000408F402D431CEBE2361A3F28
:1041A0000000000000004E40782D002010B52D4C7E
:1041B0002DED0A8B9FED258B94ED060B9FED1FCB0C
:1041C0009FED209B9FED23AB9FED24BB53EC182B61
:1041D00051EC100BFFF748FC02D853EC1A2B01E00E
:1041E00053EC1B2B94ED060B51EC100BFFF703FB6C
:1041F00053EC1C2BFFF771FBFFF7EBFB606094EDBA
:10420000080B53EC182B51EC100BFFF72DFC02D8C8
:1042100053EC1A2B01E053EC1B2B94ED080B51ECE3
:10422000100BFFF7E8FA53EC192BFFF756FBFFF7DB
:10423000D0FBA060BDEC0A8B10BD000000000000A8
:104240000080564000000000008066400000000032
:1042500000000000000000C0FFFF5F410000000000
:1042600000006041782D002070B5052211491248E8
:10427000FFF7C5F9104D114C38B10E490522891DC3
:104280002846FFF7BCF988B10AE095F82C003028E1
:1042900001D9012000E00020FFF78EFBC4E90401F2
:1042A000FFF756FEBDE87040FFF780BF687C4128ED
:1042B000F1D1EEE74CF8020052390020782D0020B1
:1042C00010B50D4CFFF778FD9FED0C0B53EC102B48
:1042D00094ED040B51EC100BFFF7AEFB03D1094832
:1042E000FFF7D5F901E04FF0FF306080FFF76CFD7C
:1042F000B4F9020010BD0000782D0020000000007D
:104300000000F03F893900202DE9F0410E4C9FED6F
:104310000F0B0E4653EC102B94ED040B07460025B3
:1043200051EC100BFFF788FB01D1012501E000F0F3
:1043300043FA94ED060B284687ED000B94ED080B2D
:1043400086ED000BBDE8F081782D00200000000014
:104350000000F03F70B5002416462546631E60B18C
:104360005EB1012909DD0278242A08D1012406E082
:104370006A40641CD5B28C4201DB184670BD0257FE
:104380002A2AF5D1280900F098FB307005F00F00BB
:1043900000F093FB7070601C70BD0000F8B505461E
:1043A000007801240026242815D10F466A462846A5
:1043B000FFF7D0FF00280EDBBF1EB8420BDA2956EC
:1043C0009DF900209142EFD128449DF9011090F908
:1043D0000100884202D0E9E1062EFCD8A019761C23
:1043E000285CF6B22C28F7D10020F14F05E0295DBA
:1043F0003954401C641CC0B2E4B2B042F7D3052269
:10440000EC49EB48FFF7FBF850B1EA490522891D5A
:10441000E748FFF7F4F8002874D0C7E10B28DAD892
:104420002118401C695CC0B22C29F7D1002106E09C
:104430007B182A5D491C641C9A71C9B2E4B281429E
:10444000F6D3002001E00A28C5D82118401C695C79
:10445000C0B22C29F7D1002106E07B182A5D491C47
:10446000641CDA74C9B2E4B28142F6D3002001E0E0
:104470000228B0D82118401C695CC0B22C29F7D1A1
:10448000002106E07B182A5D491C641C5A77C9B2DA
:10449000E4B28142F6D3002001E00B289BD821181A
:1044A000401C695CC0B22C29F7D1002106E07B18C2
:1044B0002A5D491C641CDA77C9B2E4B28142F6D3A2
:1044C000002001E0022886D82118401C695CC0B297
:1044D0002C29F7D1002107E07B182A5D491C641CB8
:1044E00083F82A20C9B2E4B28142F5D3002001E06A
:1044F000022892D82118401C695CC0B22C29F7D13F
:10450000002108E090E07B182A5D491C641C83F8B8
:104510002C20C9B2E4B28142F5D3002001E0032887
:1045200092D82118401C695CC0B22C29F7D1002117
:1045300007E07B182A5D491C641C83F82E20C9B251
:10454000E4B28142F5D3002001E0062891D8211879
:10455000401C695CC0B22C29F7D1002107E07B1810
:104560002A5D491C641C83F83120C9B2E4B281423F
:10457000F5D3002001E0082890D82118401C695C80
:10458000C0B22C29F7D1002107E07B182A5D491C15
:10459000641C83F83720C9B2E4B28142F5D300200D
:1045A00001E002288FD82118401C695CC0B22C2978
:1045B000F7D1002107E07B182A5D491C641C83F8B1
:1045C0003F20C9B2E4B28142F5D3002001E00828BF
:1045D00071D82118401C695CC0B22C29F7D1002188
:1045E00007E07B182A5D491C641C83F84120C9B28E
:1045F000E4B28142F5D3002001E002285BD8211803
:10460000401C695CC0B22C29F7D1002107E07B185F
:104610002A5D491C641C83F84920C9B2E4B2814276
:10462000F5D3BFE00B2846D82118401C695CC0B206
:104630002C29F7D1002106E07B182A5D491C641C57
:104640009A71C9B2E4B28142F6D3002001E0022897
:1046500031D82118401C695CC0B22C29F7D1002147
:1046600006E07B182A5D491C641C5A74C9B2E4B286
:104670008142F6D3002001E00A281CD82118401CF2
:10468000695CC0B22C29F7D1002106E07B182A5DB5
:10469000491C641CDA74C9B2E4B28142F6D300202A
:1046A00001E0022807D82118401C695CC0B22C29FF
:1046B000F7D1002107E079E07B182A5D491C641CD2
:1046C0005A77C9B2E4B28142F6D3002001E00B2848
:1046D0006CD82118401C695CC0B22C29F7D100218C
:1046E00006E07B182A5D491C641CDA77C9B2E4B283
:1046F0008142F6D3002001E0022857D82118401C3F
:10470000695CC0B22C29F7D1002107E07B182A5D33
:10471000491C641C83F82A20C9B2E4B28142F5D353
:10472000002001E0082841D82118401C695CC0B273
:104730002C29F7D1002107E07B182A5D491C641C55
:1047400083F84B20C9B2E4B28142F5D3002001E0E6
:1047500008282BD82118401C695CC0B22C29F7D13D
:10476000002107E07B182A5D491C641C83F8532054
:10477000C9B2E4B28142F5D3002001E0082815D87F
:104780002118401C695CC0B22C29F7D1002107E038
:104790007B182A5D491C641C83F85B20C9B2E4B213
:1047A0008142F5D3FFF760FD0120F8BD0020F8BD80
:1047B000523900204CF8020006484FF0FF319FEDBF
:1047C000060B418080ED060B80ED080B0021416057
:1047D00081607047782D002000000000000000007C
:1047E00010B51F2006F0DAFABDE810401F2006F0D1
:1047F000D5BAF8B56D4604466E1C2946282000F04F
:104800002BF8002827D03146292000F025F8002871
:1048100021D0BDF80000208029462A2000F01CF895
:10482000002818D031462B2000F016F8002812D0AE
:10483000BDF80000608029462C2000F00DF800280B
:1048400009D031462D2000F007F8002803D0BDF82C
:104850000000A0800120F8BD10B505F085FD08B16D
:10486000002010BD012010BD38B504466946202047
:10487000FFF7F2FF00280ED09DF8000004F00701BA
:1048800000F0F80001438DF80010202000F08AF8B5
:10489000002800D0012038BD38B5044669462320E1
:1048A000FFF7DAFF00280ED09DF8000000F0CF00DF
:1048B00040EA0410C1B28DF80010232000F072F815
:1048C000002800D0012038BD1CB5044669462020D0
:1048D000FFF7C2FF002816D001A92320FFF7BCFF75
:1048E000002810D09DF8001021480A0905D102784F
:1048F00002F0F0020A438DF800202CB1012C18D0F0
:10490000022C09D000201CBD9DF80010017001F0A0
:104910000F008DF800001AE09DF8000000F0F7008D
:104920008DF800009DF8040000F0F70040F008004A
:104930000BE09DF8000000F0F70040F008008DF853
:1049400000009DF8040000F0F7008DF804009DF8C9
:104950000010202000F026F80028D4D09DF8041084
:10496000232000F01FF80028CDD001201CBD00003E
:10497000702D002038B5044669462020FFF76CFFF3
:1049800000280ED09DF8000000F00F0040EA04104F
:10499000C1B28DF80010202000F004F8002800D0EB
:1049A000012038BD10B505F0E5FC08B1002010BDB0
:1049B000012010BD70B50125064E0024FF2000F037
:1049C0000BF8FF2804D03055641CE4B2002DF5D15B
:1049D000002070BDEE36002008B501468DF80000BD
:1049E00001236A46422008F0CDF9020007D00548AD
:1049F0000321008801EB004003A106F011FC9DF8A3
:104A0000000008BD8C2F00204750532072616B5F5F
:104A10006932635F73696D706C655F726561642094
:104A20006572722025640D0A0000000070B5094D02
:104A3000002400BF05EB041100231022422008F0DF
:104A40000FFA08B1002070BD641C072CF2DB0120B6
:104A500070BD0000A4EF020000F01F020121914090
:104A60004009800000F1E020C0F88012704700F09B
:104A70001F02012191404009800000F1E020C0F8B0
:104A80000011704700F01F02012191404009800091
:104A900000F1E020C0F8001270474907090E002815
:104AA00006DA00F00F0000F1E02080F8141D7047D6
:104AB00000F1E02080F8001470470A2801D230305D
:104AC00002E0102802D2373040B270473F207047D2
:104AD000002000F001B8000070B506465FF0000449
:104AE00004F1B000C0B200F0B1FB002000F0AEFB5A
:104AF000102000F0ABFB0025304600F0C7FB6D1C1A
:104B0000EDB2802DF8D3641CE4B2082CE8D370BD5C
:104B100010B52C4805F004FAAE2000F097FB2020D9
:104B200000F094FB102000F091FBB02000F08EFB11
:104B3000C82000F08BFB002000F088FB102000F064
:104B400085FB402000F082FB812000F07FFBFF20EE
:104B500000F07CFBA12000F079FBA62000F076FBA2
:104B6000A82000F073FB3F2000F070FBA42000F0B1
:104B70006DFBD32000F06AFB002000F067FBD5201E
:104B800000F064FBF02000F061FBD92000F05EFB38
:104B9000222000F05BFBDA2000F058FB122000F02E
:104BA00055FBDB2000F052FB202000F04FFB8D2056
:104BB00000F04CFB142000F049FBBDE81040AF2092
:104BC00000F044BBA086010010B50446B031C8B265
:104BD00000F03CFB102040EA141000F037FB04F01A
:104BE0000F00BDE8104040F0010000F02FBB0000B6
:104BF0002DE9F047002591468A460446012B22D034
:104C0000DFF8BC80022B24D155E02038C7B27E2CBF
:104C100004D90AF10100002400F0FF0A51462046A1
:104C2000FFF7D2FF07EB4700002608EB4007B85D0F
:104C300000F02CFB761CF6B2062EF8D3A41D6D1CDA
:104C4000E4B2EDB201E0DFF87C8019F8050000283D
:104C5000DBD1BDE8F0872038C7B2782C04D90AF13F
:104C60000100002400F0FF0A51462046FFF7ACFF88
:104C70005FF0000606EB071118F8010000F006FBD4
:104C8000761CF6B2082EF5D30AF10100C1B2204617
:104C9000FFF79AFF5FF0000606EB071101EB080033
:104CA000007A00F0F3FA761CF6B2082EF4D308343A
:104CB0006D1CE4B2EDB219F805000028CBD1C8E7AD
:104CC0004CF2020024F002002DE9F0414FF480770D
:104CD000384605F0CFF80124104EA50748B13846F4
:104CE00005F0CFF80120C5F808037470002002F029
:104CF00027FE4FF48277384605F0BCF800280BD029
:104D0000384605F0BEF80220C5F80803B470BDE8C7
:104D1000F041012002F014BEBDE8F08134400020D3
:104D200007480021C0F84011C0F84411C0F84811EC
:104D3000C0F84C11C0F80011C0F8041109F06CB9AA
:104D40000010014004220021014805F01BBB0000B7
:104D50000040024000F046BB70B50E46144900EB1F
:104D6000400001EBC0051446E86A183520B101285F
:104D70000FD0022805D113E0284600F067FBA042BF
:104D800001D2002411E022463146284600F096FB6D
:104D90000BE0284600F05AFBA042F4D20446F2E7AA
:104DA0003146284600F05DFB0446204670BD0000F9
:104DB00024490020F8B511480F4D04464FF48C717A
:104DC00006F0C5FD002815D00026C4F81861D4F8F7
:104DD00018010090A87F2C46FF2801D006F012F899
:104DE00066772672D4E9002101B004F10800BDE81D
:104DF000F0401047F8BD0000A04000200030004007
:104E000002494FF0402003F0F1BF0000C4400020F1
:104E100009F050B806F030BD7CB50C460546694631
:104E200001A800F01DF808B101207CBDBDF900000B
:104E300000EE100AF8EEC00A9FED080A80EE801A14
:104E400084ED001ABDF9040000EE900A0020F8EE8F
:104E5000E00A80EE801A85ED001A7CBD0000C84291
:104E60007CB50C46054606226946442007F0C0FF83
:104E700030BB9DF8000050B99DF8010038B99DF88D
:104E80000300FF2803D19DF80400FF2818D0BDF8C7
:104E900000004FF6FF7142BA44F25C404243B2FB5D
:104EA000F1F0BDF8032042F2107352BA5A43B2FB3C
:104EB000F1F1A0F5885094382080298000207CBD35
:104EC00001207CBD08B506A002220068009069465A
:104ED000442007F0A9FF002800D0012008BD0000F1
:104EE000240000002DE9F04717460E4681460024B5
:104EF0001CE000BF06EB440116F8140091F8018095
:104F0000FEF71EFB3038C5B2092D01D9ED1FEDB2F9
:104F10004046FEF715FB3038C0B2092801D9C01F42
:104F2000C0B200EB051009F80400641CBC42E1DBD0
:104F3000BDE8F087F0B5AE480023021D01780125D9
:104F4000101D4FF0805406290BD11678360708D172
:104F50000678C6F30316032E06D0042E04D0052EC1
:104F600002D0062907D00EE0B4F82463A14FC6F39F
:104F700004263E6002E01678360704D10678C6F3B0
:104F80000316032E02D0062904D00FE09B4F9A4E41
:104F90007E670EE01678360708D10678C6F303164A
:104FA000032E06D0042E04D0052E02D0062907D0E9
:104FB0000EE0D4F84462924FC6F342363E6002E0FF
:104FC0001678360704D10678C6F30316032E02D0EE
:104FD000062906D011E08B4E376827F080773760BE
:104FE0000EE01678360708D10678C6F30316032EAE
:104FF00006D0042E04D0052E02D006290AD011E0D6
:105000004FF08046C6F80C31C6F810317C4E361F82
:10501000336002E01678360704D10678C6F303162B
:10502000032E02D0062905D00CE0754F0326643705
:105030003E600AE01678360704D10678C6F30316F8
:10504000032E02D006290DD014E06F4F05263E60D6
:105050006D4E783635606C4E083633603F263F1D06
:105060003E6002E01678360704D10678C6F30316D0
:10507000052E02D0062957D062E0644E3668644F90
:105080003E60624E361D36683F1D3E605F4E0836FC
:1050900036683F1D3E605D4E0C3636683F1D3E60F3
:1050A0005A4E103636683F1D3E60584E14363668EC
:1050B0003F1D3E60554E18363668554F20373E60CE
:1050C000524E1C3636683F1D3E60504E20363668C4
:1050D0003F1D3E604D4E243636683F1D3E604B4EB0
:1050E000283636683F1D3E60484E2C3636683F1DD8
:1050F0003E60464E30363668454F40373E60434E40
:10510000343636683F1D3E60404E383636683F1DA7
:105110003E603E4E3C3636683F1D3E603B4E40365C
:1051200036683F1D3E6002E01678360708D10678E3
:10513000C6F30316032E06D0042E04D0052E02D08B
:10514000062907D019E0D4F85812324A01F04F016D
:10515000116002E0117809070FD10078C0F3031045
:10516000032803D0042801D0052806D12A48016865
:10517000C90702D06FF0010101602248743801684C
:1051800041F470010160BFF34F8FBFF36F8F4FF099
:105190001021D1F80002002803DBD1F80402002816
:1051A00021DA1E4A15601E480468002CFCD0152424
:1051B000C1F800420568002DFCD0C1F80442016826
:1051C0000029FCD0136001680029FCD0BFF34F8F89
:1051D0000C48F0380168134A01F4E06111430160A2
:1051E000BFF34F8FFEE711490F480860F0BD000084
:1051F000E00F00F0403501400DF0ADBA00C00740AF
:105200003C050040FCED00E0105600400404001096
:1052100020C50040E40E00400004004004E50140C9
:1052200000E401400400FA050090D0035C2D00204A
:105230000448017F04480029024901D009F011BB4C
:1052400009F080BAEC4000200020004001B50123A5
:105250006A4600213C2007F01FFE020007D00448E8
:105260000321008801EB004002A105F0D9FF08BD31
:105270008C2F002072616B5F6932635F7772697493
:1052800065206572722025640A00000001B50123C3
:105290006A4640213C2007F0FFFD08BD2DE9F041A2
:1052A000A6B08046FEF780F9C0B2C0F11500344CBC
:1052B00000EBD070470894F8282032A103A800F032
:1052C0002FF9A069FEF7A4FB05460E466069FEF7BC
:1052D0009FFB41EC100BCDE9005653EC102B2DA198
:1052E0000AA800F01DF9208A029094ED000B2EA16F
:1052F0008DED000B94ED020B11A853EC102B00F078
:105300000FF9D4E907232DA118A800F009F92EA15F
:105310001FA8626A00F004F9FFF7FAFBFFF7D8FB59
:1053200001232BA200210A20FFF762FC012303AA1C
:1053300019460020FFF75CFC01230AAA0221002085
:10534000FFF756FC012311AA03210020FFF750FCB0
:10535000012318AA04210020FFF74AFC01231FAAF9
:1053600005210020FFF744FC07EB8700C0B20123B2
:1053700042460621FFF73CFC26B0BDE8F081000064
:1053800050350020426174746572793A25642500B5
:1053900000000000543A252E3166432C20483A255F
:1053A0002E31662500000000252E32664E2C252E5B
:1053B0003266452C25644D0000000000583A2564F3
:1053C00020593A25640000005A3A25640000000084
:1053D00052414B38313320427265616B426F6172CA
:1053E0006400000010B5124C02202061606111A021
:1053F000A06104F17800E0614FF4007020620020A9
:10540000A06260620BA1A164E06204F51E71E16418
:105410001021A065C4E91410E06509A1E01DFEF7A4
:10542000E5F808A12046FEF7E1F82020A07110BDA4
:10543000244900205465726D696E616C00000000A3
:105440005254540053454747455200000269C16811
:105450008A4203D88068401A104400E0501A401E67
:1054600070472DE9F047C4681746894606464FF055
:1054700000083069A04201D9051B02E0B168201A7A
:105480000D1AB0686D1E001BA84200D80546BD422B
:1054900000D33D4670682A4620444946FEF756F838
:1054A000B0687F1B2C44A844A944A04200D100242A
:1054B000F460002FDDD14046BDE8F0872DE9F041D2
:1054C00004468846D4E90207C51BE16860681646B1
:1054D0000844B54206D94146FEF738F8B819E060ED
:1054E000BDE8F0812A464146FEF730F8761B08EB0E
:1054F000050132466068FEF729F8E660F0E7000033
:105500000FB4054B10B503A9044A029800F000F946
:1055100010BC5DF814FB0000F5810200782E00201D
:105520000FB4084B10B504A902AA039800F0F0F8D4
:10553000044602A9002000F082FC204610BC5DF861
:1055400014FB00003F5E020000487047E82E002078
:1055500002E008C8121F08C1002AFAD1704770473C
:10556000002001E001C1121F002AFBD1704700009A
:105570000121202803DA81400548014003E040284A
:1055800002DA2038814009B10120704700207047BD
:10559000FC06FFBD082806D228B1012803D0042844
:1055A00001D0012070470020704700002DE9FF5F07
:1055B000DDE90220010DDDF838B0024318D044F6D1
:1055C0001050A1F2FF3141430D140F98012820D053
:1055D000A5EB0B00401C5FEA000A4FF00004474EA9
:1055E000DFF81C91A046504616D5CAF1000728E006
:1055F0000F98012443A2012808D0002100980F9B96
:10560000C0E90021C0E90243BDE8FF9F6FEA0B013A
:10561000F4E7CBF10000DEE7074612E0F80707D019
:105620002246334640464946FEF7E5F8804689461D
:105630002246334610461946FEF7DDF804460E466C
:105640007F10002FEAD1DDE90201BAF1000F4246D6
:105650004B4602DAFEF7CFF801E0FEF73EF90446CA
:105660000E460022284BFEF7FFF903D84FF0FF301B
:10567000014607E00022254B20463146FEF714F88C
:10568000FEF735FB102409E0002C0ADB0A22002378
:10569000FDF720FF019B30321A55641E50EA0102CB
:1056A000F2D1641C019AC4F1110314440F9A012A27
:1056B00003D0012208430DD10AE0084304D00020A2
:1056C0004FF0110B0F9080E7A3EB0B056D1E0DE063
:1056D0005B4504DD4FF0000205F1010504E003DA4B
:1056E0004FF00002A5F10105002AECD000980F99B7
:1056F000C0E90231C0E9004586E70000000024400F
:105700000000F03F300000000000F0430000E03FE8
:105710002DE9FF4F95B09B468946064600250FE2CE
:10572000252877D100242746F84A0121059400E076
:10573000044316F8013F203B01FA03F01042F7D171
:1057400030782A2811D06FF02F033078A0F1300282
:10575000092A16D8059A44F0020402EB820203EBF0
:1057600042021044761C0590EFE759F8042B05928D
:10577000002A03DA504244F40054059044F0020435
:10578000761C30782E2816D116F8010F44F0040448
:105790002A280DD06FF02F023078A0F13003092BAA
:1057A00009D807EB870302EB4303C718761CF3E71E
:1057B00059F8047B761C30786C280FD006DC4C2816
:1057C00017D068280DD06A2814D104E0742810D0AE
:1057D0007A280FD10DE044F400140AE044F4801458
:1057E00001E044F440147278824202D104F580143E
:1057F000761C761C307866280BD013DC582877D0BE
:1058000009DC002875D04528F6D04628F4D0472872
:105810001AD19DE118E0632835D0642879D0652835
:1058200012D195E1702873D008DC6728F1D069287F
:105830006FD06E280DD06F2806D1B5E073282CD01C
:10584000752875D0782874D05A46179990476D1CE2
:1058500075E1C4F30250022809D003280DD0D9F80D
:10586000001004280DD00D6009F1040967E1D9F892
:105870000010EA17C1E90052F6E7D9F800100D80D0
:10588000F2E70D70F0E719F8041B8DF80010002006
:105890008DF80100EA46012003E059F804AB4FF00F
:1058A000FF3061074FF0000102D40DE008F1010163
:1058B0008846B9420FDA8045F8DB1AF8081000294B
:1058C000F4D108E008F1010188468142FADB1AF8B8
:1058D00008100029F6D105985B46A0EB0807214681
:1058E0003846179A00F094FA284400EB080507E0C0
:1058F0004DE029E10DE01AF8010B5A46179990473F
:10590000B8F10108F7D25B4621463846179A13E1F1
:1059100042E00A220092C4F302524FF0000A022A27
:1059200008D059F804CB032A4FEAEC710AD00DE0F5
:1059300029E02AE009F1070121F00702F2E802C19B
:10594000914609E00FFA8CFC4FEAEC71042A03D16E
:105950004FFA8CFC4FEAEC71002907DA0A46002165
:10596000DCF1000C61EB02012D2202E0220504D5DE
:105970002B228DF80420012203E0E20701D020222F
:10598000F7E7904659E00A2102E010220DE01021CD
:105990004FF0000A00910BE010224FF0000A44F093
:1059A00004040827009203E008224FF0000A009246
:1059B000C4F30252022A05D059F804CB0021032A6D
:1059C00008D009E009F1070121F00702F2E802C15D
:1059D000914605E01FFA8CFC042A01D10CF0FF0C63
:1059E0004FF00008220728D5702806D0009B83F0CE
:1059F000100353EA0A0305D00EE040228DF804207C
:105A0000012208E05CEA010206D030228DF8042071
:105A10008DF8050002229046009B83F0080353EAAC
:105A20000A030AD15CEA010201D1620705D53022DE
:105A30008DF804204FF001087F1E582804D034A0B0
:105A400003900EA802900DE036A0F9E75346604699
:105A5000009AFDF73FFD84460398825C0298401E41
:105A6000029002705CEA0100F0D1029806A9081ABF
:105A700000F1200A600702D524F4803400E00127F9
:105A8000574502DDA7EB0A0000E0002000EB0A0109
:105A9000009005984144401A0590E00306D45B4607
:105AA0002146179A059800F0B3F90544002706E04F
:105AB00001A85A46C05D179990476D1C7F1C474549
:105AC000F6DBE0030CD55B462146179A059800F0FB
:105AD0009FF9054404E030205A46179990476D1C01
:105AE0000099481E00900029F5DC08E00298029910
:105AF0005A460078491C0291179990476D1CBAF1DB
:105B00000001AAF1010AF1DC65E1000009280100A9
:105B10003031323334353637383961626364656623
:105B200000000000303132333435363738394142E5
:105B3000434445460000000000F058F90544761C37
:105B4000307800287FF4ECAD19B02846BDE8F08F1E
:105B5000620700D4062709F1070222F0070CFCE8CF
:105B60000223E14603F000485FEA080C02D00FF27E
:105B7000702C0DE05FEA045C02D50FF2682C07E0A0
:105B80005FEAC47C02D00FF2602C01E0AFF2700C2F
:105B90004FF0FF3823F00043CDF850C065280CD0FB
:105BA00006DC452809D046281DD047283DD13DE0D8
:105BB000662818D067287ED138E00021112F01DB3C
:105BC000112000E0781CCDE9000106A90EA8FFF71E
:105BD000EDFCDDE90F010E9A03910021009207F11F
:105BE000010A04914DE04FF000400097CDE901100B
:105BF00006A90EA8FFF7DAFCDDE90F0203920E9B5F
:105C000011990022DDF80CA00093049211B9791CBF
:105C100000EB010AB7EB0A0004D4C0F1FF3007F132
:105C2000010A0490AAEB0700019044E0012F00DA7A
:105C300001270021112F01DD112000E03846CDE9B8
:105C4000000106A90EA8FFF7B1FCDDE90F010E9ACD
:105C50000391002104910092BA4621070CD40399C4
:105C6000514500DA8A46BAF1010F05DD009AAAF122
:105C70000101515C302908D0B84202DA10F1040F5A
:105C800006DA0121CDE9011015E0AAF10101E9E7E9
:105C9000002805DC049901440491AAEB000102E00C
:105CA000411C514500DD8A460499401A401C019070
:105CB0004FF000400290200704D40198504501DBCA
:105CC000CDF8048000208DF84F0002980DF14F07A9
:105CD000B0F1004F25D02B200E9002984FF0020813
:105CE00000280CDA404202902D200E9007E00A2195
:105CF0000298FDF7D1FE3031029007F8011DB8F18E
:105D00000001A8F10108F2DC02980028EFD1791E09
:105D10000E980870307800F0200040F0450007F839
:105D2000020D12A8C01B00F107081498007800B1FA
:105D3000012000EB0A01019801EBE0710598414454
:105D4000401A401E0590E00306D45B462146179A90
:105D5000059800F05DF805441498007818B15A468B
:105D6000179990476D1CE00324D55B462146179A8E
:105D7000059800F04DF805441CE00498002807DB66
:105D8000DDE90301884203DD0098405C179901E0DA
:105D9000179930205A469047049805F10105401C98
:105DA00004900198401E019004D12E205A46179964
:105DB00090476D1CBAF10001AAF1010ADDDC05E093
:105DC00017F8010B5A46179990476D1CB8F100015E
:105DD000A8F10108F4DC5B462146179A0598ABE66A
:105DE0002D0000002B000000200000002DE9F041F4
:105DF000044600251E461746880404D405E03946AB
:105E00002020B0476D1C641EF9D52846BDE8F081FE
:105E10002DE9F041044600251E469046C80301D5F1
:105E2000302700E02027880404D505E041463846A5
:105E3000B0476D1C641EF9D52846BDE8F0810A689C
:105E4000531C0B60107070472DE9F74F284E82B03D
:105E500000207778274C904689460090019027B122
:105E60000A2F2CD20025A24627E02249D9F800208B
:105E700044394A65B9F80400A1F858001D48029950
:105E8000FDF7B4FB84F8168001202EE0C5EBC500B9
:105E900000EB051101EB0A0404F110008346062211
:105EA0004946FDF796FB002809D058460622694668
:105EB000FDF78FFB30B16D1CEDB2BD42E6D305B0EE
:105EC000BDE8F08FC5EBC50000EB05115144D9F8D2
:105ED00000200A61B9F80400888220460299FDF783
:105EE00085FB84F816807078401C7070E7E700002E
:105EF000342D00206434002010B560B159B102780F
:105F00000B785208B2EB530F05D10622401C491CF6
:105F1000FDF75FFB08B1002010BD012010BD800718
:105F200001D00020704701207047C3688B4206D81B
:105F300011440069491E814201D8012070470020A8
:105F4000704710B501220221002001F0DFFA08B1EC
:105F5000072810D107220221012001F0D7FA08B149
:105F6000072808D100210A22084601F0CFFA08B11B
:105F7000072800D1002010BD70B58CB015460E4624
:105F800000236C46C3F10F01415CE1545B1C102BF4
:105F9000F8D30D2104F11000FDF7F1FA0020C0F153
:105FA0000F02315C2244401C11740328F7D3684669
:105FB00043DF0020C0F10F01214491F82010295443
:105FC000401C0328F6D30CB070BD022001F0DAB9F2
:105FD0000149097900F034BEE42D002070B5002499
:105FE000064D06E06868012110F8340004F0C4F89A
:105FF000641C28788442F5D3002070BD1C2E00203C
:10600000F8B515460C460646052A01D20720F8BD0C
:1060100004F098F918B904F067F90028F7D110498D
:1060200000204E600C70C1E902500E4D08610DE079
:1060300006EBC4006968009181788DF80110007842
:10604000094A694604F0EAF80028E0D1641EE4B287
:10605000EED2BDE8F840054A0021024800F078B8C9
:106060001C2E002030FA0200C5860200397C020096
:1060700005F082F904F0D8FF0028FBD1104C012173
:10608000208801EB00400FA105F0C6F81048006819
:10609000C00700D000BE2088022101EB00400DA106
:1060A00005F0BAF8BFF34F8F0948E43801680D4A8C
:1060B00001F4E06111430160BFF34F8FFEE7000080
:1060C0008C2F0020466174616C206572726F7200C3
:1060D000F0ED00E053797374656D2072657365743B
:1060E000000000000400FA050EB500210091CDE982
:1060F00001106A4644F20100FFF7BAFF0EBD10B569
:106100008268C368934203D002F036F8002010BDC5
:10611000052010BD29B112B1531E134203D009202E
:1061200070470E2070470160838000218160C1604C
:106130000846704710B58268C3689A1A83889A42E5
:1061400003D802F023F8002010BD042010BD000089
:10615000074B9B7823B12AB120B10068037C1BB1A7
:106160000820704707207047417442610020704743
:10617000F842002070B507F057F8104800240B21B2
:10618000047044700E4D817014206C602C706C7023
:10619000FEF762FC07211420FEF77FFC1420FEF7B7
:1061A00066FC0848046007211120FEF776FC0548CC
:1061B000001F0068A860002070BD0000F8420020A9
:1061C0007C2E0020081501402DE9FC47DFF878906F
:1061D00099F8023073B368B3052902D20720BDE8ED
:1061E000FC87436933B3437C012B25D00027044649
:1061F0000025884616468DF80050684600F0CAF81B
:1062000001A808F045FCC8B1012101700F494460A4
:106210000968C0E90218C0E904769DF8040089F80D
:1062200001009DF8000000F0D9F81420FEF72AFCC8
:106230002846D4E70820D2E70F46D8E704259DF882
:10624000000000F0CBF8F3E7F8420020041501400D
:106250000649897839B130B1416921B10021017411
:10626000022107F0B5BE082070470000F842002068
:1062700070B50A4E01460A48B578FFF740FF04465C
:106280004DB10020B070711C0122C81D04F0A2F9AC
:1062900008B1FFF729FF204670BD0000682E0020DE
:1062A000CC420020F0B5284E89B01F460D000446B0
:1062B00072603BD0A888296882B22448FFF72AFF81
:1062C000002834D1A889A96882B220481030FFF78D
:1062D00021FF00282BD120221D496846FDF736F901
:1062E00060690690207C00B101208DF814008DF8C3
:1062F0001C70607C00B10E208DF81500E0680290E3
:10630000A068039020680190606800900E48114AD0
:106310006946083004F02AF9002808D1B0702068D6
:10632000401C04D09DF81D0018B106E0072009B0FC
:10633000F0BD0548083004F0A5F903490122491CC5
:10634000C81D04F047F9F2E7682E0020CC42002077
:1063500060FA0200A5E6020010B501460B48FFF7FF
:10636000E9FE040010D10A4804F0D6FA60B90849E1
:1063700006480839FFF7C3FE30B90549012208393C
:10638000034804F043FA0446204610BDDC420020D6
:10639000702E002030B5EFF3108172B60D4A94686C
:1063A000012324B10370002900D162B630BD93608F
:1063B0004FF0E023D3F88051074C25401560C3F817
:1063C0008041D3F8844154605A17C3F884210022D5
:1063D0000270E8E7EC420020FC06FFBD0B498A682A
:1063E000002A11D000280FD1EFF3108072B60B688D
:1063F0004FF0E022C2F800314B68C2F804310022AD
:106400008A60002800D162B670470000EC4200208C
:106410002DE9F041064608680C46411C4FF0A047A4
:106420004FF0010506D005FA00F1C7F808152068FD
:1064300004F0BCFC6068411C02D0002104F0A5FC03
:106440003079204901EB4010A169007F00283068B5
:10645000C0F8241525D0607D227D31681043C1F835
:106460006C05D4E900123068C0F80C15C0F814258A
:1064700024E0A068411C02D0002104F086FCE06802
:10648000411C05D08540C7F80855E06804F08EFC33
:10649000D4E902123068C0F80825C0F81015BDE82C
:1064A000F081607D217D32680843C2F86C05D4E933
:1064B00000123068C0F81425C0F80C15207D0128A2
:1064C000D7D0ECE7EC4000202DE9F04707460088E4
:1064D0008EB0804600F08EFB0646404602F05AFB26
:1064E000824604462E4800252A460178404600F0A0
:1064F000BDFB002E50D07879400734D501254FF6EA
:10650000FF7603AB2A460721504605F015FE010031
:1065100004D0404607F026F900252BE0B14631466D
:10652000049802F0ABFA064648450FD004460146EF
:10653000404602F019FB4046FFF74AFD30B940469D
:1065400007F0E2F84046FFF743FD48B12246072135
:10655000504605F087FE010003D0404607F002F9DF
:1065600000254E4506D0404605F0B4FF10B1504618
:1065700002F0FCFA02208DF81800ADF81A80787944
:10658000400701D5012000E002208DF820008DF8A1
:10659000215006A801F008FD0EB0BDE8F08700000C
:1065A000E42D00202DE9FC470025178806461580BC
:1065B00090F82D001446894630B13A4621464846A7
:1065C00000F0B4FB050009D1B0784FF00C0A18B305
:1065D0002088C846001DB84202D95046BDE8FC8755
:1065E000684679DF0028F9D12088032108F80010D7
:1065F00020881921401C80B2208008F800102088D3
:10660000401C80B2208000EB0801BDF8000008F0BB
:10661000A0F9218808442080F0780222C8B121889E
:1066200096F9033001F1030C4846BC45D5D84254D5
:1066300021884FF0010C491C89B2218000F801C06B
:106640002188491C89B2218009F801302088401C2A
:1066500020807068B8B1218890F9003001F1030CF6
:106660004846BC45B9D8425421880A22491C89B2FF
:10667000218042542188491C89B2218009F80130C7
:106680002088401C2080308950B1CDE900474B461E
:106690000622022106F1080008F012FA05009DD139
:1066A000308A50B1CDE900474B460722032106F15D
:1066B000100008F005FA050090D1308B50B1CDE9FB
:1066C00000474B461522142106F1180008F0F8F98E
:1066D000050083D1306A30B13B462246494601F07D
:1066E00099F90500DBD1706A30B13B462246494634
:1066F00003F038F80500D2D196F82C0038B13B46AB
:1067000022464946304607F0BFF80500C7D1307829
:1067100038B13B4622464946304603F0BAF90500F7
:10672000BDD128465AE7F0B50C4693B01F21072685
:10673000ADF80010ADF80410002750B1C17849073A
:106740000DD56A4602A9FFF72DFF002808D102AD3A
:1067500002E00025ADF800706CB1E07810B1304671
:1067600013B0F0BD01AA0AA92046FFF71BFF0028BD
:10677000F6D10AAA02E00022ADF80470BDF80400C8
:10678000C3B2BDF80000C1B2284672DFE8E780F866
:106790002410704770B50D00044653D0F4B30120A7
:1067A00020700026E670202205F17801201DFCF7FC
:1067B000CDFE84F82460D5F89800C4F8CC00D5F854
:1067C0009C00C4F8D0004FF6FF70A4F8C800C4F8CD
:1067D0002560A4F8296084F82B6004F130003C2186
:1067E0000646FCF7CCFE287884F83000A87884F8B8
:1067F0003200E87884F83300687884F83100D5E90D
:106800000401C4E91001D5E90201C4E90E01D5E98A
:106810000601C4E9120195F82D0000E012E084F8A9
:106820005D00686AD8B104F1780104F16C00616719
:106830006065696A09880180686A616D80888880FE
:10684000002008E00E2070BD696A22188968095C82
:1068500082F87810401C616D89888142F4D8A86A5A
:10686000E8B104F1A400C4F8A0000C38A065A96A3E
:1068700089888180A86AA16D00880880002006E0D0
:10688000A96A22188968095C82F8A410401CA16DCD
:1068900089888142F4D895F82C0084F85C00286A35
:1068A00048B104F1C4002065296A49884180286AFA
:1068B000216D00880880686800B1606305F13C01C3
:1068C0003046BDE87040FFF72EBF10B50288102A91
:1068D0001AD0112A1FD01B2A1CD1007A0C4600287E
:1068E00018D1E0780521401CB0FBF1F201FB120148
:1068F000204600F055F800280CD0D4F8D01000291C
:1069000008D0BDE810400847C27B012A02D1808828
:10691000A1F8C80010BD0C46002184F8D41080886E
:10692000B4F8C8108842F5D120790028F2D10121AD
:10693000DEE710B50C46022801D0032811D160789B
:1069400000280ED000206070E178204600F028F882
:10695000002806D0D4F8D010002902D0BDE810409D
:10696000084710BD10B5044674DF012084F8D40038
:10697000002084F8D600062084F83300002104F1BA
:106980003000FFF7D0FE002809D1E178204600F062
:1069900007F818B1D4F8D01001B18847002010BD15
:1069A0002DE9FF47044600780F4638B1E770002014
:1069B00004F0ECF8012628B16670D2E0082004B09B
:1069C000BDE8F0870025C4F82550A4F8295084F8C4
:1069D0002B50A07910B1E078012806D0E07970B191
:1069E000E078012801D0022809D1D4F8CC1021B1D7
:1069F00084F82C600820884701E084F82C5004F1CA
:106A0000260100200A5C0AB1304603E0401C06283B
:106A1000F8D300204FF002084FF0030A4FF00409AA
:106A2000012F06D0022F09D0032F0CD0042F12D132
:106A30000DE0A17911B108B130460DE0E17911B155
:106A400008B1404608E0207A08B1504604E0607A78
:106A500008B1484600E02846E070D4F8CC1041B1B7
:106A6000032801D0042804D1607910B194F8D4002F
:106A7000A8B184F8D55000950295019503958DF83D
:106A800000508DF80850E17804F1250004F130023F
:106A9000052958D2DFE801F0670A131F3B0084F88C
:106AA000D65084F8D56007208847E4E7A6700190A7
:106AB0008DF80060ADF80C50ADF80A5043E084F852
:106AC000028001908DF80060208AADF80C00A0894A
:106AD000ADF80A0037E0A08AADF80A00208BADF8C7
:106AE0000C00607980B194F8D40068B994F8D600AD
:106AF00050B18DF8088084F8339000211046FFF7DC
:106B000012FE00BB05211AE084F802A01BE0A08B56
:106B1000ADF80A00208CADF80C00607988B194F8CB
:106B2000D40070B994F8D60058B18DF8088084F874
:106B3000339000211046FFF7F6FD20B90621A17021
:106B400001E084F80290E07830B194F824106846AF
:106B500073DF00287FF433AFD4F8CC1009B1A078EC
:106B6000884700202BE7A570F6E7000070B5040009
:106B700012D001461C221448FCF7E8FC1248134DC1
:106B80000560206850B17ADF002806D120680168CE
:106B900029604068686005E00E2070BD0B487BDF0F
:106BA0000028FAD108484FF6FF711438084A20F837
:106BB000041B0549343901600021FFF7C9FA002898
:106BC000EBD0032070BD0000EC390020A02D002088
:106BD00011EA020002494A6C091D06F091BC00004E
:106BE000083A002002460248016D001D06F075BCFF
:106BF000083A002070B50A4E054600242A46301D8A
:106C0000716C06F06AFC40B12A46301DF16C06F04A
:106C100064FC08B1022400E00124204670BD00009D
:106C2000083A002010B5044607F026FF002803D0DC
:106C3000024800EB8400806D10BD0000083A00207F
:106C400070B505460C46084607F016FF002809D027
:106C500005482A4600EB8401001D896DBDE870409F
:106C600006F03BBC70BD0000083A002070B5064637
:106C700015460C46084607F0FFFE00280AD00648D5
:106C80002B4600EB84013246BDE87040001D5831B0
:106C900006F05BBC70BD0000083A002070B504002F
:106CA0002DD000292BD020480078002827D020881C
:106CB0000D46112815D0302804D0322807D03328AB
:106CC0001ED109E0211D284605F09EF818E0211D7F
:106CD000284604F001FF13E0211D284604F0E2FFDE
:106CE0000EE0A088B5F8CA12884209D1002085F8C4
:106CF000C70285F8C8024FF6FF70A5F8CA0270BD3A
:106D000095F8C8020028FAD020883028F7D34F28F9
:106D1000F5D8A088B5F8CA128842F0D12846BDE857
:106D2000704001F01FB80000042E00207CB505461D
:106D300008880C460930904201D90C207CBD684679
:106D40006DDF0028FAD121880820685420881B2193
:106D5000401C80B2208029542088401C80B22080B2
:106D60002844DDF801100160BDF8051081802088FD
:106D7000801D80B220809DF80010490800D00121BC
:106D800029542088401C208000207CBDF0B5634D34
:106D90000446011D008800260127B5F808C08BB005
:106DA00021285CD023DC132861D014DC012873D0A7
:106DB000102847D011280CD159A0FEF7A1FB0020C4
:106DC00000F0BEFB08B1FFF78FF94FF6FF70288186
:106DD000AE700BB0F0BD1B285FD01D28F9D1C87C68
:106DE00001F11403C208002004AD091D1BE0512865
:106DF00072D007DC232842D03B28EAD1A088132197
:106E000076DF39E0522841D05628E2D1A0881321FC
:106E100076DF31E01E181C5C7678092E06D0082E2D
:106E200004D02044401C8242F4D8D2E71844801C8D
:106E3000641E0490AC8091F90E20491C0498FFF761
:106E400003F8C6E73BA0FEF75BFB072000F078FBEA
:106E500008B1FFF749F9A0882881AF70B9E700961B
:106E6000A08869468FDF07E0FFF73EF9B1E700230E
:106E70001A46852160467FDF0028F5D1A9E70096F4
:106E80000196A0880022694690DFF5E700231A46A4
:106E900019466046A9DFEFE719E02A48097903227D
:106EA0000088012902EB004005D0022991D126A1DA
:106EB00004F0B2F98DE72CA104F0AEF92E488ADF78
:106EC00008B1FFF711F9012000F03AFBD4E7A088E0
:106ED000002166DFD0E7FFE71022A11D06A8FCF71E
:106EE00035FB9DF8181000299FD09DF8200004283C
:106EF00003D0062801D0052897D102290AD08DF8A1
:106F0000007000BF4FF4C170ADF80400A08869465E
:106F1000A8DFB1E702208DF80000F3E7342D002050
:106F2000424C4520446973636F6E6E65637465649B
:106F30000D0A0000424C4520436F6E6E6563746518
:106F4000640D0A008C2F0020436F6E6E65637469B8
:106F50006F6E20526571756573742074696D656418
:106F6000206F75742E0000005363616E2074696D8C
:106F70006564206F75742E0054EF020010B51A4C32
:106F80000188606810290ED011292BD1401E606045
:106F900028D1FEF7D6FF002824D02168002921D06F
:106FA000BDE810400847D0B900210122084600F092
:106FB000ADFA08B107280FD107220221012000F005
:106FC000A5FA08B1072807D104220221002000F009
:106FD0009DFA20B1072802D0216801B18847606876
:106FE000401C606010BD0000542D00202DE9F047CA
:106FF00001883B4E40F2F3194FF6FF7510291BD064
:1070000011293ED0122954D0502946D1C188F28985
:10701000841D914241D1618902293ED18688304642
:1070200001F04AFE050038D004F10C0000F092F99E
:10703000A8B3294630464EE0C17B87880446012923
:107040002BD1A846284601F037FE050017D02F8027
:1070500000202872234843464A460168C5F80A10B2
:107060004068C5F80E0004F1100105F10A0001F0B6
:1070700018FF6872F08900280FD129462AE0042001
:1070800013E0808801F018FE040006D06068FFF766
:10709000DFF808B106F04AFB2580BDE8F087FFE77E
:1070A0006868FFF7D5F80028F7D0BDE8F04706F08C
:1070B0003DBB87880646384601F0FEFD0400ECD053
:1070C0002B464A4606F1080104F10A0001F0E9FEE8
:1070D000607221463846BDE8F04700F0E1BC000090
:1070E000EC390020A02D00202DE9F047044603884C
:1070F0003F480122A4B000F1480A102B09D0112BFF
:1071000054D01A2B70D1217AB2EB111F53D2012324
:1071100052E0D0E911218A430546011D12A806F06C
:10712000EFF9442212A901A8FCF710FADFF8C09089
:107130000026374609F144090DF104080AE000BFB2
:1071400008EB46001D2283884946281D009706F05B
:1071500089F9761C0198B042F2D8686CA688C043C1
:1071600006F0A2F9A0F57F41FF3917D005EB4000EA
:107170000123868032465146281D06F0E6F9012398
:1071800032464946281D06F0E0F9E07B02280BD084
:1071900000231749A2884C31281D20E024B0042088
:1071A000BDE8F047FEF7A0BF0123F2E70023A28865
:1071B0005146001D13E000230D490546A2885031B9
:1071C000001D06F0C2F9207A0221B1EB101F01D296
:1071D000012300E000230649A2885431281D24B071
:1071E000BDE8F04706F0B1B924B0BDE8F087000073
:1071F000083A002010B504460748007800280AD055
:10720000204601F0C1FB204606F006FC2046BDE802
:10721000104001F081B910BDD42D002030B5174BBE
:107220000D4604000FCB85B08DE80F0023D015B3B9
:107230004FF6FF70A0822868A0610020A07521464B
:10724000684662DF002814D120788DF812000120F2
:10725000ADF81000A21C04A9A0DF002809D129461E
:10726000204606F018F8002803D12946204607F0EA
:107270002BF905B030BD0E20FBE7000094F90200A9
:107280007FB5002917D0002815D00288102A0DD00C
:10729000112A0DD0502A0FD0572A0CD11A4B18683A
:1072A000D3E902238DE80F0089692AE0808801E094
:1072B0004FF6FF7088827FBD01910C46821DC38806
:1072C0000989002512308B4202D1518902290CD044
:1072D000A1898B42EFD1A1690029ECD0029050899D
:1072E000ADF80C008DF800500AE000F033F818B14A
:1072F0000120A075022001E0A57503208DF8000093
:10730000A169684688477FBD84F902001FB560B156
:10731000838AA3F57F44FF3C09D0837D3BB113886A
:10732000F42B06D9072004B010BD0E20FBE708207F
:10733000F9E7002300930193029303938388CDE937
:107340000221ADF8003001218DF80210808A6946D3
:10735000A6DFE8E7007800F0010070470149085C0B
:107360007047000085EF02001CB50548002103238B
:10737000007800910A46019103F0D1FC1CBD000089
:1073800085EF020007490B5C4FF0A041D1F80425BE
:107390000120984020EA0203C1F808351040C1F8E6
:1073A0000C05704784EF02000249085C012103F0DC
:1073B00037BD000084EF02000249085C002103F0A1
:1073C0002FBD000084EF02000649095C4FF0A04089
:1073D000D0F80405C84010F0010000D0012080F072
:1073E0000100704784EF02001CB5074800210B46DE
:1073F0000078009101220191114603F090FCBDE854
:107400001C4000F003B8000084EF02000020FFF7EA
:10741000CBBF0020FFF7D0BF044B024600211B78F2
:107420004FF0FF30934200D10846704785EF0200CD
:1074300010B5002000F0B4F908B1062806D10120EB
:1074400000F0AEF908B1062800D1002010BD000000
:107450002DE9F0410D468046FFF7DEFF002829D1D7
:10746000164F15487C1C661FEDB1012D0BD0022D67
:1074700020D16578002D1DD0F16800291AD028464A
:10748000BDE8F04108472578617849B10B4A4FF4CF
:107490000041521E8068FEF797FE08B986F8038007
:1074A000A0783870E6E78068FEF7D2FE3878A578D5
:1074B000A842DFD0BDE8F08188EF0200482D00200F
:1074C0000146104810B50089042907D007290ED0BD
:1074D0000A2915D1BDE8104006F08ABA132176DFDB
:1074E0000CE000280CD0BDE81040FEF7FDBDA0F573
:1074F0007F41FF3904D10448FFF734FA0828F0D15E
:1075000010BD0000342D00204433002003004FF054
:1075100000000AD1094B012A02D1012907D000221B
:1075200051B1012904D0022904D0072070470E224E
:107530001A7070475A7070479A707047492D002032
:10754000044A01460020127AD20702D0084600F011
:107550004BB87047442D002070B506461D480024E6
:10756000C0E90261B0071FD5002506E001221146DF
:107570002846FFF7CBFF04466D1C55EA0400F5D002
:1075800094B940F2666201211348FEF739FD040008
:107590000AD1FEF723FD040006D10F480F4A00214F
:1075A000001FFEF7D5FD0446F00701D0FFF71CFFD2
:1075B00074B909480A4A00210C38FEF7C9FD0400D5
:1075C00006D10548074A01210838FEF7C1FD0446E7
:1075D000204670BD442D002094EF0200497802003F
:1075E000698F0200CB5F02002DE9F05F6A4C05460F
:1075F00000266078B34618B184F801B001F0AAFC07
:10760000664F4FF47A694FF4C87A4FF00108182D8D
:1076100062D2DFE805F0AC0C0C31404D62676B7450
:107620006B74BE7D7D7D7D7DACAFB2B5BEBE0020EE
:10763000FFF7CAFE00284FF0000008D0FFF7B4FEA5
:10764000022D02D14FF4E16008E0484606E0FFF762
:10765000B3FE022D01D1C82000E05046410CC0030A
:107660004FF4FA72801841F1000125705200002396
:10767000FBF730FF01462AE00020FFF7A5FE0028B7
:107680004FF0000004D0FFF78FFE4FF44870E5E79D
:10769000FFF792FEDFE70020FFF796FE00284FF08D
:1076A000000002D0FFF780FECFE7FFF785FED4E7AA
:1076B0000020FFF789FE00284FF0000002D0FFF7FE
:1076C00073FE01E0FFF778FE257041F69A11002263
:1076D0003868FEF779FD064646E00020FFF752FEC7
:1076E000257008E0002051E025703DE084F801801D
:1076F0000120FFF747FE002240F6CD41E8E784F87D
:1077000001800120FFF73EFE00224FF48041DFE7B9
:107710007868FEF79DFD0646D5F1110000D02EB128
:107720000220FFF741FE84F802B01DE0012816D9BF
:1077300080B2C8214843C117C90341EA5041C00380
:107740004FF4FA72801841F1000152000023FBF758
:10775000C1FE014600227868FEF736FD064602208B
:10776000FFF72AFE84F802803046BDE8F09F01F062
:10777000F1FBB9E701F0EEFBB4E701F0EBFB04E04D
:1077800001F0E8FB0020FFF717FE0120FFF714FED1
:10779000AAE7FFF73EFEA7E7442D002088EF02008E
:1077A00010B5FFF7DBFD032103F00AFB002010BD3D
:1077B000F8B5871C00208DF800000E4601256846AC
:1077C000FEF7E8FD124C20683060D4E90001401A51
:1077D000A168091ABE1C06E001F090FED4E9000180
:1077E000401AA168091A491C8E42F5D8A168206880
:1077F000084004EB8000C16841F00301C1602068CB
:10780000384420609DF80000FEF7E8FD2846F8BDEA
:10781000C444002030B482680468531C8360A154BF
:10782000D0E901128A4202D330BC03F08EB830BCDA
:1078300070470000034803C8814201D1012070470E
:1078400000207047C444002000780221FFF700BEEA
:1078500005494FF0FF32082841F8202002D30844A0
:1078600080F848207047000048400020F0B54FF0F5
:10787000FF3512B10023082601E008230C260C4C2A
:1078800005E000BF54F823707F1C04D05B1CB3429A
:10789000F8D32846F0BD26185DB286F8305044F87B
:1078A0002310002AF5D1E11881F84800F1E7000023
:1078B000484000200249084490F930007047000019
:1078C0004840002008B5024690F8C6020B4600EB7F
:1078D0008001C1EB801002EB400092F8C52242B15A
:1078E000521ED2B202EBC20100EB4102518A491C86
:1078F00000E0C188ADF800100089ADF802006946CB
:10790000184696DF08BD70B504464FF6FF750A4667
:107910002846AC4208D14FF480742146104604F04A
:10792000C0FFA04209D070BDFF2CFCD821461046F4
:1079300004F0AAFF08B1204670BD284670BD0000C3
:1079400070B5084C050009D010342168002907D013
:1079500008682060496828468847F6E70834F4E755
:1079600070BD0000344000202DE9F05F26484168DA
:10797000F1B3DFF898B00E688146DBF80040876805
:107980008078E11B21F07F45ED1CB0B9DFF88080E5
:107990004FF48030C8F84403C8F804031120FDF701
:1079A0005BF81120FDF763F84FF0010AC8F800A05A
:1079B0002F2002F041FB89F802A0B54200D23546E3
:1079C000124BE8193C3320F07F401860DBF80010C0
:1079D0005A46091B21F07F41001B20F07F40C91C43
:1079E00081420FD9106818602F2002F025FB00E0BB
:1079F00004E0BDE8F05F1120FDF744B8BDE8F05F9A
:107A000005F012BCBDE8F09F7C2E0020041501405B
:107A1000001001402DE9F04117880646B81D1446B4
:107A20000D46984202D90C20BDE8F081318807222A
:107A300006290AD34FF4486C4FF6FF73614501D90C
:107A4000994202D17088062801D21046ECE76045C1
:107A500001D99842F9D1994203D0984201D081428C
:107A6000F3D80520E85520881221401C80B22080E0
:107A700029542088401C80B220804119308806F0AB
:107A800068FF2188084480B220804119708806F080
:107A900060FF2188084420800020C5E7FEF724BB52
:107AA00038B54A7A0F4B62B100220A72596900292F
:107AB00006D001228DF80020ADF802006846884704
:107AC00038BD0A7A62B19B684C6802461946204666
:107AD000FEF77AFB0028F3D0BDE8384005F026BE5B
:107AE0005B68F1E7EC390020F0B585B016460F462B
:107AF00004461D4614220B496846FBF727FD0A4839
:107B00008DF80870ADF80240ADF80A608DF80C50A1
:107B1000017800222046FFF7A9F8684600F044FAF1
:107B200005B0F0BD44F90200E42D00207FB50C46FD
:107B300010B1012004B070BD2079002638B141F6A3
:107B40001D5501281BD0022826D00F20F2E7022065
:107B5000207102960396E0680190694601A805F03D
:107B6000A5FA50B102988188E18000882081BDF893
:107B70000010029805F018FBDCE70A20DAE70A4B50
:107B80006A460021A01D05F04DFA38B106491839A2
:107B90008E61CE610A28CDD12846CBE70248818884
:107BA000019805F001FBF5E7502E00202DE9F84380
:107BB000054690F8C6020F4600EB8001C1EB80102D
:107BC00005EB400695F8C542914604EBC40006EB70
:107BD00040013279601C0A31904226D16B46002266
:107BE000284601F080F918B310E0401EA04201D1F0
:107BF000002004E004EBC40006EB40001C3080468B
:107C000002466B46284601F06EF930B1002038700C
:107C10006946484697DFBDE8F88395F8C5024146B6
:107C2000401C641C85F8C502E4B23079A042DCD85F
:107C3000012038700020EEE72DE9F04100260125F3
:107C4000144C22E06068226900EBC607387805FA18
:107C500000F1114217D08A43226102F03BFB024639
:107C60003878E36805FA00F1194002FA00F3994206
:107C700009D17978012901D0012100E0002151408A
:107C80007A6802B19047761CF6B220788642D9D342
:107C9000BDE8F0811C2E00202DE9F047894690F8C0
:107CA000C612904601EB8102C2EB811100EB410745
:107CB000384605F095FA06002FD0194CA068062822
:107CC0002BD2184D762205EBC0103946A0F8028061
:107CD000001DFBF73BFC0027B9F1000F04D0A068A2
:107CE00005EBC010077004E0A168022005EBC1118C
:107CF0000870A06805EBC011401CCE67A060E16869
:107D000088420AD1002604E005EBC610C16F8847FF
:107D1000761CE0688642F7D3A760BDE8F0870000D4
:107D2000042E0020343D002070B50E4690F8C61297
:107D3000154601EB8102C2EB8111A0B000EB4100BE
:107D400005F04EFA040009D07C2205496846FBF78D
:107D5000FDFBADF8025068460196A04720B070BD0B
:107D6000A4F9020070B50E4604464FF43371FBF7D8
:107D700006FC11480025A4F8CA62856084F8C9523F
:107D80000E4884F8C65284F8C55200682060224626
:107D90000121304694DF0121112806D0002809D1A5
:107DA00084F8C71284F8C85203E084F8C71284F834
:107DB000C812002070BD0000042E00201C3D0020D1
:107DC0000E4910B50A784C780023A24212D0521CFA
:107DD000D2B20A70022A00D10B70084A0B780C321A
:107DE00052F8232002608868104420F07F408860A9
:107DF000012010BD0360002010BD00007C2E00207B
:107E000013460A460021FFF76FBE10B50378002223
:107E1000072B06D2DFE803F0050406102029300006
:107E20000A7010BD01230B7003898B818388CB817D
:107E3000C06888600A7410BD02220A7002898A81B3
:107E40008288CA81C2688A60807D062802D00020AC
:107E5000087410BD0120FBE703220A70C2888A81E2
:107E60000289CA81C068886010BD04230B70C08875
:107E70008881CA818A6010BD0520087010BD30B5A8
:107E80000446006885B00D46806800281CD0142187
:107E90006846FBF774FB0195A0680490207910B147
:107EA00001280DD104E001208DF80000206904E0D4
:107EB00002208DF80000E0680003029060690390E2
:107EC000206881686846884705B030BD70B5064DAA
:107ED0000646002455F8241009B130468847641C32
:107EE000042CF7D370BD0000E841002070B586B0C7
:107EF00015460C00064619D0112C17D0082C15D0A9
:107F000014216846FBF73BFBADF80260304600F0F9
:107F100041FEADF804000D2C0AD0862C1CD00720A1
:107F20008DF800000294684600F04CF806B070BD71
:107F300003208DF8000025B12878C00701D001206A
:107F400000E002208DF8080000208DF80C0041F2BE
:107F50000110ADF80A00E6E706208DF80000E2E720
:107F600010B50446408800F015FEA0800248016864
:107F70002046BDE810400847B02D00202DE9F04113
:107F800007460024064E074D05E000BF56F82410B2
:107F900038468847641CE8788442F7DBBDE8F08106
:107FA000D03C0020D42D002010B50446408800F0BD
:107FB000F1FDA080024801682046BDE81040084756
:107FC00018F90200014909680847000080F9020019
:107FD00038B504460E480078A8B1A4F57F40FF38B4
:107FE0000FD0684604F0F6FD78B10521017001213B
:107FF0000171C480684604F0FBFD04F0A1FE00207E
:1080000038BD042038BD022038BD082038BD00002E
:10801000582E002038B5040014D0694605F046F803
:10802000A0B1BDF8000000EB8001094800EB810021
:10803000C16849B1A17A39B1C168491EC160002047
:10804000A07238BD052038BD062038BD0A2038BDD5
:10805000844200201FB501A9684604F0E3FF04B084
:1080600010BD07B513460A466946002004F0DAFF42
:108070000EBD07B513460A460021684604F0D2FF3C
:108080000EBD20B119B100680860002070470520BE
:10809000704700007CB50D46040019D0C5B1694693
:1080A00005F004F8B0B1BDF800000B4900EB80000A
:1080B00001EB8000012101AA0C306668FBF7DDF8B6
:1080C0002E6060680C3068600120A07200207CBDCA
:1080D00005207CBD0A207CBD8442002018B103230A
:1080E000002206F009BE052070470223002206F098
:1080F00003BE12B1022306F0FFBD05207047000049
:1081000038B5044609480D46007858B164B169464F
:10811000284606F0EBFE002803D1BDF800102180B0
:10812000658038BD022038BD052038BD582E00209E
:1081300010B504460E48007898B1A4B121880229F0
:1081400013D80C4A01EB810002EB8002608852894F
:10815000C31C934209D806F0BDFE00202080608039
:1081600010BD022010BD052010BD042010BD000070
:10817000582E002084420020826883881A400368B9
:108180009A5C0A708168491C81607047C268838864
:108190001A4003689954C168491CC16070470000C7
:1081A00070B51346002206461546862902D01129CD
:1081B00002D002E0012200E001250D4C73B1A1794B
:1081C000FEF754FD2A4661793046FEF74FFD002246
:1081D000A1783046FEF74AFD002203E0A178FEF7C1
:1081E00045FD2A4661783046BDE87040FEF73EBD49
:1081F000EC2D002010B50446C0B2FEF7ADF82046C5
:1082000010BD406804F048BD014643680C48032295
:10821000008802EB004013B10A4902F0FDBF0A7862
:10822000012A07D0022A09D1D1E9023206A100BFF2
:1082300002F0FDBFD1E9023211A1F9E77047000059
:108240008C2F0020E0FC02002D2D3E204576656E2F
:10825000742072656365697665643A20657261733E
:10826000656420256420706167652066726F6D20EB
:108270006164647265737320307825782E00000085
:108280002D2D3E204576656E742072656365697696
:1082900065643A2077726F74652025642062797472
:1082A0006573206174206164647265737320307833
:1082B00025782E000B484A8803899A4211D10A88F2
:1082C000A2F52063773B0CD18988C91E8AB242810E
:1082D000054803211346008801EB004003A102F08A
:1082E000A6BF7047342D00208C2F0020446174619C
:1082F000206C656E2069732073657420746F203064
:10830000782558282564290010B50949094801F045
:10831000FCFC08B1FDF7E8FEF721064801F0E9FC96
:10832000002803D0BDE81040FDF7DEBE10BD000000
:10833000B58202003033002070B508B1012070BD55
:10834000194C0025207B08B1257301E000F0A0F84E
:108350002078082826D2DFE800F02504080C102534
:108360001420BDE8704000F021B8BDE8704000F076
:108370007DB8BDE8704000F05FB8BDE8704000F027
:108380003BB86088084900EB8000283901EB800089
:108390004068BDE8704003F0B5BD6560BDE8704061
:1083A00003F0BEBD0F2070BDAC4200201149F0B4F7
:1083B0008A1C00200346A1F128050C18A67A4EB1AC
:1083C000A37200EB800405EB8404E66816B9247CF4
:1083D000012C0AD0401C80B20228EED30B704B80D7
:1083E0004B60F0BC41F61D5070471080F0BC00F0AF
:1083F0003DB80000AC4200200C48418801EB8102EE
:10840000A0F1280101EB8201CA6852B10521017077
:10841000074802218180016800230122054802F0FB
:108420008DBB042202704968F6E70000AC420020D0
:10843000602E0020002F002038B50A490848032488
:108440000B684268898803EB810153880470DB1C48
:1084500000201B0400909B0B034802F02DFC38BD4C
:10846000AC420020602E0020002F0020074910B5EC
:108470004888091D04F06AFE18B1BDE81040FFF7F6
:10848000DBBFBDE81040FFF7B7BF0000AC420020E3
:10849000F0B51F481F490125067802248B88A0F1FA
:1084A0002802082E19D2DFE806F00418181B222F24
:1084B0002F170189491C01810021418080F80C108F
:1084C00001EB810312F8233043B100234418491C07
:1084D00089B2A3720229F3D30570F0BD0123F5E739
:1084E00042685288D21C1A448A800470F0BD4688C3
:1084F0000D6806EB860602EB860256680E60556034
:1085000013818C80062100E007210170F0BD00007E
:10851000AC420020602E002030B501888588224CB6
:1085200085B0502924D0522902D0542932D103E0F9
:10853000284600F08DFF2DE014221C496846FBF709
:1085400005F8ADF80250284600F024FBADF8040011
:1085500000F0FAF8002261792846FEF787FB002236
:1085600021792846FEF782FB6846FFF7F9FC11E007
:10857000017B01290ED1817A01290BD10089A0F557
:108580002451023906D10121284600F095FFA07838
:1085900004F088F8E07804F085F8207905B0BDE8AB
:1085A000304004F07FB80000A82D0020ACF8020095
:1085B00010B50446007800280FD1608800F048FF0D
:1085C000608800F051F9002807D004496088012232
:1085D0000979BDE81040FEF749BB10BDA82D002069
:1085E0007CB5044600781C4D08282FD1607A38BB32
:1085F000207A4FF6FF7601280DD0072802D00828F0
:1086000024D11EE0A08800F023FAB0421ED0012140
:1086100000F052FF1AE0A0886A46012103F062FDD3
:1086200070B90198007858B1A08800F011FAB042F2
:108630000CD001222979FEF719FB287904F032F8D1
:1086400004E005480021401C04F052F9A878BDE878
:108650007C4004F027B80000A82D002010B5044687
:108660000A4841782046FEF7EBFA68B10848002135
:1086700001EB410200EB82025288A24201D1C8B252
:1086800010BD491C1429F3D3FF2010BDBA2D0020C2
:10869000C03A002070B5094D094E002404EB440097
:1086A00005EB800071784088FEF7CAFA20B1641C9F
:1086B000142CF3D3FF2070BDE0B270BDC03A00208F
:1086C000BA2D00202DE9F041124E07460125BD408C
:1086D0003068FDF7BDFD00280DD10F4C2069284200
:1086E00007D1384601F0F6FD0028E06805D02843A0
:1086F00004E0A8432061BDE8F081A843E060206960
:1087000028432061A1683068BDE8F0410022FDF7F0
:108710005BBD000030FA02001C2E002010B5FCF7F3
:108720005FF800211F2002F086FB064801F0B2FB33
:1087300001211F2002F07FFBFCF778F90028FBD015
:1087400010BD000040420F001CB5054AD2E90212DC
:10875000CDE900120022694603F0E9FC1CBD0000CF
:10876000C4F802002DE9FC41804600F013FA002411
:1087700003250127A0F57F412646FF3908D06A4628
:10878000082103F0AFFC18B90198841D868805689C
:1087900032462B4621464046A9DF042804D008284B
:1087A00004D00B2808D002E0112000E00020002FA8
:1087B00000D10B20BDE8FC810027A80701D50125C9
:1087C000E6E73443F5D0002426460325E0E72DE90B
:1087D000FC41804600F0DEF90646A0F57F40FF38F8
:1087E0000ED001252A466D1C0027ADB26B4608212C
:1087F000304603F0A1FC040006D0072C25D025E06C
:1088000043F20200BDE8FC81019903230A1D0B60BD
:108810004046891DAADF040004D00C2C09D0052C89
:1088200009D009E032460821104603F01BFD04463A
:108830000CE0012700E000240821304603F0FEFC94
:1088400000B10324002FCDD100E00C242046D9E74D
:1088500004488088A0F57F41FF3901D004F0ACBF07
:1088600070470000B42D00200EB502A9019100F060
:1088700091F96A46012103F035FC08B100200EBDD4
:10888000019800780EBD00002DE9F04107464FF633
:10889000FF760A48ABDF10B10320BDE8F081074C3A
:1088A00043F20305A41E324661883846A7DFA8427A
:1088B000F3D16088401C6080F5E70000B62D0020F1
:1088C000428800EB82020C328A4201D902207047B2
:1088D0008188A1F57F42FF3A03D0008808B10020CB
:1088E000704701207047884204D20068401C01D0C4
:1088F00001207047002070471FB5044B0FCB8DE857
:108900000F00684604F02CFA04B010BD74EF0200AA
:108910003EB5027802230C46B3EB520F17D1B0F8E4
:108920000110ADF80010C1788DF802108188ADF803
:10893000041080798DF8060002AA01A92046FDF7EF
:108940001BFB032202A96846FAF743FE08B1002088
:108950003EBD01203EBD000010B50C46FFF77EFE77
:10896000FF280CD0074900EB400001EB8000416874
:1089700021600189A180807AA071002010BD0520AE
:1089800010BD0000C03A002070B5018892B01029D7
:1089900059D1011D34226846FAF7D8FD9DF804002C
:1089A0004FF6FF76032134466D46B1EB500F2AD0C7
:1089B00003F0D8FC9DF8040040080ED001280CD02C
:1089C000022820D118E00F99281D1131FDF794FAE3
:1089D00018B100BFBDF8344015E00EAA0DA907205C
:1089E00003F094FC0028EED10DE00F99281D491CDE
:1089F000FFF78EFF0028EDD10EAA0DA9072003F086
:108A000085FC0028F1D1BDF80000291D01F090F887
:108A1000B44218D0BDF80000214600F0A5F8BDF81A
:108A20000000ADF836000020ADF83840074E8DF854
:108A300034000DAD044600BF56F824102846884780
:108A4000641C022CF8D312B070BD0000D8F80200EC
:108A5000094A002101EB410332F82330834205D15A
:108A600001EB410002EB800040887047491C14294B
:108A7000F0D34FF6FF707047C03A00203EB50C4669
:108A8000054603F06FFC0BE0BDF80000A04207D0E4
:108A90002846029900F00EF810B1BDF800003EBD66
:108AA00001AA6946072003F031FC0028ECD14FF6FB
:108AB000FF703EBD2DE9F0410C46054600F111075F
:108AC00001F111061022491C401CFAF782FD48B939
:108AD000681C00F02EFA28B1601C00F02AFA08B1D8
