:020000040002F8
:10300000C06D00204D3302005533020057330200DB
:10301000593302005B3302005D3302000000000000
:103020000000000000000000000000005F3302000C
:1030300061330200000000006333020065330200C8
:103040008D6B020067330200E1A402005585020087
:10305000A18502006733020051410200673302007C
:1030600067330200673302006733020067330200F0
:1030700067330200673302006733020067330200E0
:1030800067330200057502006733020067330200F0
:10309000B185020067330200B58502006733020084
:1030A00067330200673302006733020067330200B0
:1030B00067330200673302000000000000000000D8
:1030C0006733020067330200673302006733020090
:1030D0002975020067330200673302000000000018
:1030E00000000000000000000000000000000000E0
:1030F00000000000000000000000000000000000D0
:1031000000000000000000000000000000000000BF
:1031100000000000000000000000000000000000AF
:10312000000000000000000000000000000000009F
:10313000000000000000000000000000000000008F
:10314000000000000000000000000000000000007F
:10315000000000000000000000000000000000006F
:10316000000000000000000000000000000000005F
:10317000000000000000000000000000000000004F
:10318000000000000000000000000000000000003F
:10319000000000000000000000000000000000002F
:1031A000000000000000000000000000000000001F
:1031B000000000000000000000000000000000000F
:1031C00000000000000000000000000000000000FF
:1031D00000000000000000000000000000000000EF
:1031E00000000000000000000000000000000000DF
:1031F00000000000000000000000000000000000CF
:10320000DFF80CD000F032FD00480047DDD40200AA
:10321000C06D002030B4044654E8000F0D4644E869
:103220000053002BF8D1156030BC704730B4044611
:1032300054E8000F40EA010544E80053002BF7D1A1
:10324000156030BC704730B4044654E8000F00EA03
:10325000010544E80053002BF7D1156030BC7047DE
:1032600030B4044654E8000F80EA010544E80053F6
:10327000002BF7D1156030BC704730B4044654E8D9
:10328000000F00EB010544E80053002BF7D1156057
:1032900030BC704730B4044654E8000FA0EB010581
:1032A00044E80053002BF7D1156030BC7047000094
:1032B00030B4044654E8000F0D4644E80053002B98
:1032C000F8D1156030BC704730B4044654E8000FA4
:1032D00040EA010544E80053002BF7D1156030BCEB
:1032E000704730B4044654E8000F00EA010544E892
:1032F0000053002BF7D1156030BC704730B4044642
:1033000054E8000F80EA010544E80053002BF7D190
:10331000156030BC704730B4044654E8000F00EB31
:10332000010544E80053002BF7D1156030BC70470D
:1033300030B4044654E8000FA0EB010544E8005304
:10334000002BF7D1156030BC70470000064880475D
:1033500006480047FEE7FEE7FEE7FEE7FEE7FEE77A
:10336000FEE7FEE7FEE7FEE745A1020001320200AC
:103370002DE9F05F0546002092469B4688460646AA
:10338000814640241BE0284641464746224600F03D
:103390000AFB53465A46C01A914110D311461846AB
:1033A000224600F0F1FA2D1A67EB01084F4622463B
:1033B0000120002100F0E8FA17EB00094E41201E21
:1033C000A4F10104DFDC484631462A464346BDE805
:1033D000F09F000000487047202A0300A0F161011F
:1033E000192900D82038704740EA01039B0703D011
:1033F00009E008C9121F08C0042AFAD203E011F834
:10340000013B00F8013B521EF9D27047D2B201E0F5
:1034100000F8012B491EFBD270470022F6E710B5D9
:1034200013460A4604461946FFF7F0FF204610BD32
:10343000CAB2401E10F8011F8A4202D00029F9D1F9
:1034400000207047421C10F8011B0029FBD1801A94
:10345000704710B5002200E0521C835C8C5CA342D4
:1034600001D1002BF8D1D8B2E1B2401A10BD30B56D
:1034700005460020034600E05B1C934205D2EC5C4D
:10348000C85C201A01D1002CF6D130BD2DE9F05FC7
:1034900093460F4680460446002607F045F9D0F8CB
:1034A0000090824614F8015B2DB1FFF793FF00688E
:1034B000405DC007F6D12B2D02D02D2D1AD0641EF1
:1034C0000021CAF800105A463946204600F08DFA0D
:1034D000014627B13868A04201D1C7F80080DAF868
:1034E0000000022809D0CAF80090700505D54842AE
:1034F000BDE8F09F46F48066E2E70846F8E770B55D
:10350000064607F011F9046805460A2200213046F4
:1035100000F0BAFA2C6070BD2DE9FE4F804681EABA
:103520000300C00F0C46009021F0004123F000453D
:10353000B8EB0200A94105D24046214690461C4600
:103540000B46024623F00040104347D0270DC7F337
:103550000A00C3F30A510290401A019040286BDA26
:10356000C3F3130040F4801B0098924620B100235F
:10357000D2EB030A63EB0B0B01985946C0F14002F2
:10358000504600F001FA06460D4650465946019A4B
:1035900000F019FA10EB08006141002487EA11528B
:1035A00084EAE7731A4340D0009A62B3019A012A71
:1035B0004FEA075215DC001B61EB02014FF000429D
:1035C00002EA0752CDE90042001C41F58011324663
:1035D0002B4600F0A0FA03B0BDE8F08F404621462C
:1035E000F9E7001B61EB0201001C41F58013001894
:1035F0005B412018A2F5001747EB030140EAD570A4
:10360000B6196D4111E06D084FEA360645EAC075FE
:103610004FEA0752001B61EB0201001C41F58011CB
:1036200049084FEA30000019514132462B4603B099
:10363000BDE8F04F00F060BA00980122400000237E
:10364000D0EB020263EBE073009821464FEAE0748E
:10365000B8EB000061EB0401E9E783F000435BE7AE
:1036600081F0004158E72DE9FE4F81EA030404F0A0
:10367000004421F0004100944FF0000B23F0004380
:1036800050EA01045ED052EA03045BD0C3F30A544B
:10369000C1F30A552C44A4F2F3340194A0FB025464
:1036A000C1F3130141F48011C3F3130343F48013F6
:1036B00001FB024400FB034E840A970A44EA81544A
:1036C00047EA8357A4FB076802958D0A05FB078527
:1036D0004FEA932C04FB0C542705029D4FEA065831
:1036E00047EA1637B5EB08056EEB070C870E920E0E
:1036F00047EA811742EA8312A7FB0201B6EB0B01EE
:1037000064EB00042B0D43EA0C335E1844EB1C50B1
:10371000DA465146E7FB0201C5F313044FEA0B33C7
:1037200043EA14534FEA0432019C43EA0603A4F12E
:103730000C040294009CCDE900B400F0ECF903B055
:10374000BDE8F08F00200146F9E72DE9F04D81EA50
:10375000030404F0004B21F0004514464FF0000A2A
:1037600023F0004150EA050220D054EA01021DD0A6
:10377000C5F30A570246C5F31303C1F31300C1F39F
:103780000A5640F4801543F48013A7EB0608101B7B
:10379000D64608F2FD3873EB050002D308F10108A4
:1037A00001E092185B41B8F1000F03DA00200146F6
:1037B000BDE8F08D00204FF48011064684460EE0EF
:1037C000171B73EB050705D3121B63EB05030643B9
:1037D0004CEA010C49084FEA300092185B4150EA6C
:1037E0000107EDD152EA030012D082EA040083EA15
:1037F0000501084305D0101BAB4106D2012200236E
:1038000006E000224FF0004302E06FF00102531087
:103810001AEB06004CEB085110EB0A0041EB0B01D0
:10382000BDE8F04D00F068B90EB5C10F80EAE07058
:103830000844CA07002140F233438DE80E000A46CF
:103840000B4600F068F903B000BD0EB540F23341FD
:1038500002910021CDE900110A460B4600F05BF908
:1038600003B000BD70B5C1F30A5201F00045002459
:10387000C1F3130140F2FF3341F480119A4201DA9F
:10388000002070BD40F233439A42A2F2334203DC7F
:10389000524200F088F800E090402C43F1D04042C2
:1038A00070BDC1F30A5210B5C1F3130140F2FF33EA
:1038B00041F480119A4201DA002010BD40F23343F6
:1038C0009A42A2F2334203DC524200F06CF810BD7F
:1038D000904010BD00F0004230F000400AD0C10D11
:1038E00001F56071C0F3160042EA0151C2084007B9
:1038F00011437047002001467047000030B5041E98
:1039000071F1000404DB4FF00044404264EB01011C
:10391000141E73F1000405DB1C464FF000435242B5
:1039200063EB04038B4208BF824230BD30B5041EF6
:1039300071F1000404DB4FF00044404264EB0101EC
:10394000141E73F1000405DB1C464FF00043524285
:1039500063EB0403994208BF904230BD30B50B467B
:10396000014600202022012409E021FA02F59D42AF
:1039700005D303FA02F5491B04FA02F52844151E83
:10398000A2F10102F1DC30BD202A04DB203A00FA6A
:1039900002F1002070479140C2F1200320FA03F3A6
:1039A000194390407047202A04DB203A21FA02F0A4
:1039B0000021704721FA02F3D040C2F12002914069
:1039C000084319467047202A06DBCB17203A41FAF4
:1039D00002F043EAE07306E041FA02F3D040C2F19C
:1039E000200291400843194670472DE9F05F824656
:1039F0000078002715468B460AF10104B9463028A5
:103A000001D09DB113E014F8010B0127782803D0F1
:103A1000582801D045B10AE00DB1102D07D100277B
:103A2000102514F8010B02E0082500E00A25002605
:103A3000B0460EE005FB080005FB06F1012701EB8F
:103A400010461FFA80F8B6F5803F00D3B94614F847
:103A5000010B294600F01CF90028EBDABBF1000F3E
:103A600005D00FB1641E00E05446CBF80040B9F118
:103A7000000F06D006F058FE02210160C81EBDE806
:103A8000F09F48EA0640FAE72DE9F04791460F46D5
:103A900080460446002614F8015B2DB1FFF79AFC1E
:103AA0000068405DC007F6D12B2D02D02D2D18D017
:103AB000641E4A4639462046FFF797FF27B139680A
:103AC000A14201D1C7F8008071054FF002040BD567
:103AD0004042002803DD06F027FE0460A007BDE891
:103AE000F08746F48066E4E70028F8DA06F01CFE6A
:103AF00004606FF00040F2E710B5141E73F100048B
:103B000008DA401C41F1000192185B411A4301D1CF
:103B100020F0010010BD2DE9F04D92469B4611B1F9
:103B2000B1FA81F202E0B0FA80F220329046FFF75B
:103B30002BFF04460F4640EA0A0041EA0B015346B8
:103B40005A46084313D0114653EA010019D0C8F170
:103B500040025046FFF727FF05460E46504659469D
:103B60004246FFF711FF084305D0012004E020463C
:103B70003946BDE8F08D0020054346EAE0762C4347
:103B800037430A986305E40AA0EB08000022FD0A07
:103B900044EA47540A3002D500200146E9E701050E
:103BA00010196941DDE9084500196941BDE8F04D8A
:103BB000A2E700002DE9F041054621F000400C4647
:103BC000284309D0C4F30A5040F23341884205DD4E
:103BD00028462146BDE8F0812846FBE740F2FE3149
:103BE000884210DC0CDB4FEA043040EA155050EA02
:103BF000053105D0104804F0004101430020E9E7F9
:103C000000200146E6E7A0F233404642C6F14002FA
:103C100028462146FFF7B8FE074688462846214633
:103C20003246FFF7C0FE43463A46FFF765FF32468D
:103C3000BDE8F041FFF7A8BE0000F03FC1F30A5213
:103C4000C1F3130140F2FF3341F480119A4202DACA
:103C500000200146704740F233439A42A2F23342B9
:103C600002DC5242FFF79FBEFFF78EBE064C074DA7
:103C700006E0E06840F0010394E80700984710343C
:103C8000AC42F6D3FFF7C0FAD8300300F830030097
:103C90003A2800D2303820F02002412A01D3A2F184
:103CA0003700884201D34FF0FF30704730B58C1891
:103CB00010F8012B12F00F0301D110F8013B12098B
:103CC00006D110F8012B03E010F8015B01F8015B4D
:103CD0005B1EF9D101E001F8013B521EFBD1A1426C
:103CE000E6D3002030BD70B588B00C4605461022E2
:103CF0000021684609F064FD69462246084607F03F
:103D000021FB9DF80000694600064FF000000FD52A
:103D10000B180A5C5B78520042EAD3120A54401C2A
:103D20000F28F5DB9DF80F00400080F087000CE0C5
:103D30000B180A5C5B78520042EAD3120A54401C0A
:103D40000F28F5DB9DF80F0040008DF80F00D4F828
:103D50001401102814D09DF8000000061CD5002086
:103D60000B180A5C5B78520042EAD3120A54401CDA
:103D70000F28F5DB9DF80F00400080F0870019E068
:103D8000002022180E5C92F80131401C734082F82A
:103D900001311028F5DB2AE000228B18885C5B7863
:103DA000400040EAD3108854521C0F2AF5DB9DF8DE
:103DB0000F0040008DF80F00D4F8146104F20112D6
:103DC0008023B354002300E08354D4F81401401C32
:103DD000C4F814011028F7D3002022180E5C92F8C2
:103DE0000131401C734082F801311028F5DB0020BE
:103DF0002118401C11F8F12F0B7C5A400A70102832
:103E0000F6DB102204F1F10104A809F087FC224638
:103E1000294604A807F096FA10220021684609F006
:103E2000CFFC08B070BD10B5044610220021F1305F
:103E300009F0C6FC00200146C4F814012046BDE884
:103E40001040F02209F0BCBC0B4602461021184677
:103E500007F0A0BA2DE9FF470446D0F814010F4639
:103E6000154604F2011804F1F10918B3C0F1100667
:103E7000AE4200D31646B2B24044394609F04EFC79
:103E8000D4F814013044C4F81401102837D3B542D3
:103E900035D000202118401C11F8F12F0B7C5A401E
:103EA0000A701028F6DB49462246084607F04AFA0F
:103EB0003744AD1B1AE0002021183B5C11F8F12FAC
:103EC000401C5A400A701028F6DB1022494668460A
:103ED00009F024FC69462246084607F033FA10220E
:103EE0006946484609F01AFC103D1037102DE2D8FB
:103EF000AAB23946404609F011FCC4F81451BDE895
:103F0000FF8700002DE9F047224B924698465A7AE7
:103F10000126C2F18002D7B298F8082098F80980EB
:103F20001446521CC8F18008A0F1020C1A4D08F08A
:103F3000FF08D2B2A8F10109BCF1090F27D2DFE8CE
:103F40000CF0050905090E0905052100BC421BD22C
:103F5000285502E04C4511DB16E01A720AE0BF1E3C
:103F6000BC4211DA2855A954521CD0B205F800A061
:103F7000401C187200260120D87105E02855A9546C
:103F8000521CEAE7BC42F9D33046BDE8F087022074
:103F9000FBE70000F02A00208A39002072B60248B0
:103FA0004168491C41607047BC2A002003494868A9
:103FB000401E486000D162B670470000BC2A002055
:103FC00000B50021124A00F093F9F0B1508841F297
:103FD0003601884201D3FE2117E0A0F68141B1F5F8
:103FE0006D7F0BD8481C00EB4001C1EB002040F274
:103FF000B63190FBF1F0401CC1B206E0A0F61D40C6
:10400000632801D8012100E0FF21084600BD00001F
:10401000BC2A002010B50AF041FA08B107F033FAC3
:1040200004F018FABDE8104004F054BC1CB500249C
:1040300000942346012219210B48019400F08EF9C7
:1040400009480094002301221A210830019400F04D
:1040500085F90121044800F008FABDE81C40024837
:104060000121083000F001BAC42A00203EB50F4CEF
:10407000E1788DF80010217D8DF802108DF8030095
:10408000606B06F0DFF90190E06B0290E07D8DF847
:1040900001006946207C03F07AFA218CE06B4143F1
:1040A000081AA16D0844A0653EBD0000F02A00205A
:1040B0002DE9FF4F4FF0000B83B092468846D9465A
:1040C0005D465E460127002438F8160007FA04F121
:1040D000084227D02819019000EB40005AF8201020
:1040E00001B30AEB8000009090F90800021140F340
:1040F0000301039840B203F09FFC98B10098417A05
:10410000069800EB0110C06820B109F1010000F031
:10411000FF0907E01099019801F80B000BF101006D
:1041200000F0FF0B641CE4B2102CCDD31035761CCC
:10413000EDB2F6B2482DC6D31199584681F80090D9
:1041400007B0BDE8F08F4FF47A71484309F0F8BE2C
:104150002DE9F04700268CB0DFF86091B0464FF4AF
:10416000807501243746069628460BF073F838B15F
:10417000D9F80403204203D028460BF061F8264307
:104180002D1D64007F1CADB2082FEDD34FF4BE741B
:1041900020460BF05FF848B120460BF051F846F08E
:1041A000004606AA012100200BF036F8444D16F017
:1041B000FF0F15D00127002437420DD009EB8401F1
:1041C000D1F81005D1F81015C0F3042055F82420BB
:1041D000C1F3014102B190477F00641C082CEBD36E
:1041E000002E67DA4FF0FF30CDE908800026344614
:1041F000281910F8507F90F9000027F0C008401CE3
:1042000044D009A9404609F0C1FD58B34FEA9719B7
:10421000404608F05BF955F820701FB1B9F1030F63
:1042200003D00FE0B9F1030F30D108A84FEAD8024C
:1042300008F00703815C4FF0010C0CFA03FC41EA23
:104240000C0181544FF0A04101EB8800D0F8000729
:1042500006A9C0F3014A404609F098FD18B1BAF129
:10426000020F03D012E0BAF1030F0FD1B9F1030F1F
:1042700008D1BAF1020F1BD0022140460AF0A1FF7B
:10428000761CF6B217B149464046B847641C042C68
:10429000AED3002E0ED06A46012100200AF0BCFFEA
:1042A00006990098884205D00690089809909DE7E5
:1042B0000321E2E70CB0BDE8F08700000060004099
:1042C000A8450020094951F8200000F57760B0F5B5
:1042D000783006D000F57760B0F5783F03D0002045
:1042E000704701207047022070470000E022030061
:1042F0000348007808B10020704701207047000093
:10430000BC2A0020094A002152F83130834208D8E3
:1043100002EBC1039B68834203D902EBC100007921
:104320007047491CC9B21529EED3FEE78423030068
:1043300010B50446406800280FD0607810B10128FD
:1043400005D008E094F900000AF084F803E094F93D
:1043500000000AF04BF90020606010BDF8B50B4674
:104360000446DDE90601656825B12046BDE8F84050
:1043700000F07BB8237062700025A070E570012604
:1043800062B1009509B18DF80160694618460AF0DE
:10439000BBF8B8B1BDE8F84007F075B80A49012884
:1043A0000968009102D0022804D005E003208DF8AE
:1043B000010001E08DF80160044A6946184609F0E1
:1043C000EDFFE6E76460F8BD9C19030009FD0200FB
:1043D000F8B5044640781E460D46002833D1606883
:1043E00028B194F900000AF035F800206060164802
:1043F000406800900120E570012D02D0022D03D00D
:1044000005E08DF8000002E002218DF80010A1788F
:10441000012902D0022901D002E003208DF8010019
:1044200094F90000094A694609F0B8FF00280AD14A
:1044300094F90000064941F8206094F90000012138
:1044400009F05AFF6460F8BD9C19030009FD0200E1
:10445000783300204178012906D14168002903D032
:1044600090F900000AF0B3B870474278012A09D1E8
:104470004268002A06D090F9000009B10AF0A0B8FD
:104480000AF03AB87047000070B58A4C00202DED54
:10449000108B2118401C0A28CA7C02F00F02CA7433
:1044A000F7DB207DFFF7D1F941EC190BE07CFFF73A
:1044B000CCF99FED818B53EC182BFFF7D4F853EC1C
:1044C000192BFFF729F841EC1B0BA07DFFF7BDF975
:1044D00041EC190B607DFFF7B8F953EC182BFFF78F
:1044E000C2F853EC192BFFF717F841EC1C0BE07ED8
:1044F000FFF7ABF941EC1A0BA07EFFF7A6F953ECDE
:10450000182BFFF7B0F841EC1F0B607EFFF79DF909
:104510009FED6B9B53EC192BFFF7A5F841EC1E0B9D
:10452000207EFFF792F99FED68DB53EC1D2BFFF720
:104530009AF853EC1E2BFEF7EFFF53EC1F2BFEF700
:10454000EBFF53EC1A2BFEF7E7FF9FED61EB53EC0B
:104550001E2BFFF788F853EC1C2BFEF7DDFF9FEDB9
:104560005EAB53EC1A2BFFF7F0F853EC1B2BFEF766
:10457000D3FF5B4D41EC100B85ED060B607F53289C
:1045800005D151EC100B81F00041C5E90601002076
:104590002118401CCA7F0A2802F00F02CA77F7DBF5
:1045A00094F821001F34FFF750F941EC1B0B6078A1
:1045B000FFF74BF953EC182BFFF755F841EC1C0BA8
:1045C0002078FFF742F953EC192BFFF74CF853EC26
:1045D0001C2BFEF7A1FF53EC1B2BFEF79DFF41ECBC
:1045E0001B0B2079FFF731F941EC1C0BE078FFF74A
:1045F0002CF953EC182BFFF736F853EC1C2BFEF775
:104600008BFF41EC1C0BE079FFF71FF953EC192BE2
:10461000FFF729F841EC190BA079FFF716F953ECD5
:104620001D2BFFF720F853EC192BFEF775FF41EC1B
:10463000190B607AFFF709F941EC1D0B207AFFF79F
:1046400004F953EC182BFFF70EF853EC1D2BFEF773
:1046500063FF41EC100B51EC190B53EC102BFEF7E0
:104660005BFF53EC1E2BFEF7FEFF53EC1A2BFFF7FC
:104670006CF841EC180B53EC1A2B51EC1C0BFFF7A8
:1046800064F853EC1B2BFEF747FF53EC182BFEF797
:1046900043FF41EC100B85ED080BE07A572805D15C
:1046A00051EC100B81F00041C5E90801BDEC108B05
:1046B00070BD0000284400200000000000002440DD
:1046C00000000000000059400000000000408F4042
:1046D0002D431CEBE2361A3F0000000000004E4064
:1046E000A82B002010B52D4C2DED0A8B9FED258BAE
:1046F00094ED060B9FED1FCB9FED209B9FED23AB11
:104700009FED24BB53EC182B51EC100BFFF70EF967
:1047100002D853EC1A2B01E053EC1B2B94ED060B43
:1047200051EC100BFEF79FFF53EC1C2BFFF70DF81D
:10473000FFF798F8606094ED080B53EC182B51ECE0
:10474000100BFFF7F3F802D853EC1A2B01E053ECEF
:104750001B2B94ED080B51EC100BFEF784FF53EC70
:10476000192BFEF7F2FFFFF77DF8A060BDEC0A8B76
:1047700010BD000000000000008056400000000056
:10478000008066400000000000000000000000C043
:10479000FFFF5F410000000000006041A82B0020E7
:1047A00070B5052211491248FEF761FE104D114CFB
:1047B00038B10E490522891D2846FEF758FE88B1FA
:1047C0000AE095F82C00302801D9012000E00020F3
:1047D000FFF73BF8C4E90401FFF756FEBDE870405F
:1047E000FFF780BF687C4128F1D1EEE73427030052
:1047F00028440020A82B002010B50D4CFFF7CEFB5D
:104800009FED0C0B53EC102B94ED040B51EC100BA3
:10481000FFF774F803D10948FEF771FE01E04FF08D
:10482000FF306080FFF7C2FBB4F9020010BD00004A
:10483000A82B0020000000000000F03F5F44002093
:104840002DE9F0410E4C9FED0F0B0E4653EC102B53
:1048500094ED040B0746002551EC100BFFF74EF8C2
:1048600001D1012501E000F043FA94ED060B284642
:1048700087ED000B94ED080B86ED000BBDE8F08191
:10488000A82B0020000000000000F03F70B50024BD
:1048900016462546631E60B15EB1012909DD027826
:1048A000242A08D1012406E06A40641CD5B28C4257
:1048B00001DB184670BD02572A2AF5D1280901F0FC
:1048C00088FA307005F00F0001F083FA7070601CF8
:1048D00070BD0000F8B505460078012400262428A4
:1048E00015D10F466A462846FFF7D0FF00280EDB99
:1048F000BF1EB8420BDA29569DF900209142EFD134
:1049000028449DF9011090F90100884202D0E9E1A4
:10491000062EFCD8A019761C285CF6B22C28F7D1FC
:104920000020F14F05E0295D3954401C641CC0B2E1
:10493000E4B2B042F7D30522EC49EB48FEF797FD0D
:1049400050B1EA490522891DE748FEF790FD00288D
:1049500074D0C7E10B28DAD82118401C695CC0B2BA
:104960002C29F7D1002106E07B182A5D491C641C24
:104970009A71C9B2E4B28142F6D3002001E00A285C
:10498000C5D82118401C695CC0B22C29F7D1002180
:1049900006E07B182A5D491C641CDA74C9B2E4B2D3
:1049A0008142F6D3002001E00228B0D82118401C33
:1049B000695CC0B22C29F7D1002106E07B182A5D82
:1049C000491C641C5A77C9B2E4B28142F6D3002074
:1049D00001E00B289BD82118401C695CC0B22C292F
:1049E000F7D1002106E07B182A5D491C641CDA77A8
:1049F000C9B2E4B28142F6D3002001E0022886D891
:104A00002118401C695CC0B22C29F7D1002107E0B5
:104A10007B182A5D491C641C83F82A20C9B2E4B2C1
:104A20008142F5D3002001E0022892D82118401CD1
:104A3000695CC0B22C29F7D1002108E090E07B1816
:104A40002A5D491C641C83F82C20C9B2E4B281425F
:104A5000F5D3002001E0032892D82118401C695C9E
:104A6000C0B22C29F7D1002107E07B182A5D491C30
:104A7000641C83F82E20C9B2E4B28142F5D3002031
:104A800001E0062891D82118401C695CC0B22C298D
:104A9000F7D1002107E07B182A5D491C641C83F8CC
:104AA0003120C9B2E4B28142F5D3002001E00828E8
:104AB00090D82118401C695CC0B22C29F7D1002184
:104AC00007E07B182A5D491C641C83F83720C9B2B3
:104AD000E4B28142F5D3002001E002288FD82118EA
:104AE000401C695CC0B22C29F7D1002107E07B187B
:104AF0002A5D491C641C83F83F20C9B2E4B281429C
:104B0000F5D3002001E0082871D82118401C695C09
:104B1000C0B22C29F7D1002107E07B182A5D491C7F
:104B2000641C83F84120C9B2E4B28142F5D300206D
:104B300001E002285BD82118401C695CC0B22C2916
:104B4000F7D1002107E07B182A5D491C641C83F81B
:104B50004920C9B2E4B28142F5D3BFE00B2846D860
:104B60002118401C695CC0B22C29F7D1002106E055
:104B70007B182A5D491C641C9A71C9B2E4B2814257
:104B8000F6D3002001E0022831D82118401C695CCE
:104B9000C0B22C29F7D1002106E07B182A5D491C00
:104BA000641C5A74C9B2E4B28142F6D3002001E019
:104BB0000A281CD82118401C695CC0B22C29F7D1E6
:104BC000002106E07B182A5D491C641CDA74C9B216
:104BD000E4B28142F6D3002001E0022807D8211870
:104BE000401C695CC0B22C29F7D1002107E079E0B4
:104BF0007B182A5D491C641C5A77C9B2E4B2814211
:104C0000F6D3002001E00B286CD82118401C695C09
:104C1000C0B22C29F7D1002106E07B182A5D491C7F
:104C2000641CDA77C9B2E4B28142F6D3002001E015
:104C3000022857D82118401C695CC0B22C29F7D132
:104C4000002107E07B182A5D491C641C83F82A2098
:104C5000C9B2E4B28142F5D3002001E0082841D86E
:104C60002118401C695CC0B22C29F7D1002107E053
:104C70007B182A5D491C641C83F84B20C9B2E4B23E
:104C80008142F5D3002001E008282BD82118401CD0
:104C9000695CC0B22C29F7D1002107E07B182A5D9E
:104CA000491C641C83F85320C9B2E4B28142F5D395
:104CB000002001E0082815D82118401C695CC0B20A
:104CC0002C29F7D1002107E07B182A5D491C641CC0
:104CD00083F85B20C9B2E4B28142F5D3FFF760FDEF
:104CE0000120F8BD0020F8BD28440020342703002F
:104CF00006484FF0FF319FED060B418080ED060B1B
:104D000080ED080B0021416081607047A82B0020D6
:104D1000000000000000000010B51F200AF035FA66
:104D2000BDE810401F200AF030BAF8B56D460446C1
:104D30006E1C2946282000F02BF8002827D0314689
:104D4000292000F025F8002821D0BDF8000020809F
:104D500029462A2000F01CF8002818D031462B20C4
:104D600000F016F8002812D0BDF800006080294637
:104D70002C2000F00DF8002809D031462D2000F03D
:104D800007F8002803D0BDF80000A0800120F8BD7E
:104D900010B509F05DFC08B1002010BD012010BD68
:104DA00038B5044669462020FFF7F2FF00280ED0F0
:104DB0009DF8000004F0070100F0F80001438DF8B1
:104DC0000010202000F08AF8002800D0012038BD13
:104DD00038B5044669462320FFF7DAFF00280ED0D5
:104DE0009DF8000000F0CF0040EA0410C1B28DF839
:104DF0000010232000F072F8002800D0012038BDF8
:104E00001CB5044669462020FFF7C2FF002816D0D3
:104E100001A92320FFF7BCFF002810D09DF8001047
:104E200021480A0905D1027802F0F0020A438DF800
:104E300000202CB1012C18D0022C09D000201CBD60
:104E40009DF80010017001F00F008DF800001AE0CD
:104E50009DF8000000F0F7008DF800009DF80400B8
:104E600000F0F70040F008000BE09DF8000000F0B3
:104E7000F70040F008008DF800009DF8040000F0F5
:104E8000F7008DF804009DF80010202000F026F8AF
:104E90000028D4D09DF80410232000F01FF800282B
:104EA000CDD001201CBD0000EC2A002038B50446FE
:104EB00069462020FFF76CFF00280ED09DF8000007
:104EC00000F00F0040EA0410C1B28DF8001020205D
:104ED00000F004F8002800D0012038BD10B509F01A
:104EE000BDFB08B1002010BD012010BD70B5044607
:104EF000884200DB01460D46042A0CD00422002122
:104F0000184602F09FFC322803D2052C00DA052453
:104F10002546284670BD022CFADA0224F8E7000084
:104F20002DE9F04117460A460546DDE906411948D4
:104F3000089E447183711C0AC4711C0C04721B0E00
:104F4000437281720B0AC3720B0C0373090E417317
:104F5000D4B2C4731048FEF766FF39460E48FEF718
:104F600073FF10220B490C48FEF774FF22462946B6
:104F70000948FEF76FFF0849A1F58270FEF7B3FEFE
:104F800006480178D0F8010041EA00203060BDE811
:104F9000F08100005C2B0020543D0020503C00209C
:104FA000F8B50E46040017467ED020680028FBD0D6
:104FB00060680028F8D0A0680028F5D010460BF0F3
:104FC000F5F901467BA005F08BFB384602F060FD49
:104FD00000286AD0824D002005F11A01C5E9174664
:104FE0002F7408706874A863287601266E76E874BA
:104FF0006865A8650B208DF800006946384602F008
:1050000039FD00B10120287508208DF8000069469F
:10501000287C02F02FFD734C6946207005208DF826
:105020000000287C02F026FD60700C208DF8000046
:105030006946287C02F01EFDE0600D208DF800001E
:105040006946287C02F016FD20610E208DF80000D4
:105050006946287C02F00EFD60610F208DF800008B
:105060006946287C02F006FDA06110208DF8000042
:105070006946287C02F0FEFCE06113208DF80000F8
:105080006946287C02F0F6FC84F8210014208DF893
:1050900000006946287C02F0EDFC606215208DF866
:1050A00000006946287C01E07FE080E002F0E2FC3D
:1050B00084F828001A208DF800006946287C02F048
:1050C000D9FC84F82C001B208DF800006946287C50
:1050D00002F0D0FC84F82D001C208DF800006946F9
:1050E000287C02F0C7FC20631D208DF80000694673
:1050F000287C02F0BFFC60630021287C02F0C2FC27
:1051000084F820600A2206216260A4F1380021722E
:1051100042600172E168C1602169016161694161B8
:10512000A1698161E169C16180F8206003F050F9F3
:105130002D4904F1380005F08FF94FF47A7104F12C
:10514000380005F09AF9294904F17C0005F084F94A
:10515000274904F1A40005F07FF9264904F1CC00A9
:1051600005F07AF9244904F58E7005F075F905F01B
:1051700067F9686304F1600020490160204981609B
:105180002049016120494160214C2049C1602168CA
:105190008847606980470BF053FCAE74A16D3046C0
:1051A0008847E06A80470020F8BD0320F8BD0A2048
:1051B000F8BD00000D0A53656C6563746564204C8E
:1051C0006F726157414E20312E302E32205265676A
:1051D000696F6E3A202573200D0A0D0A0000000049
:1051E000F02A0020C43A002055600200E96A02005B
:1051F000BD690200556A0200E15F02006D680200AD
:10520000816202009167020081690200ED6702007D
:10521000B41903002DE9F04105461C4617460E4619
:105220000C48FEF700FE39460A48FEF70DFEF2B2C2
:1052300029460848FEF70EFE0649A1F58270FEF7E2
:1052400052FD05480178D0F8010041EA00202060B5
:10525000BDE8F081543D0020503C00202DE9FF4185
:1052600084B00F460446984606ADF02200211D4842
:105270000E9E08F0A5FA1B4A1021204606F08AF877
:1052800010220021684608F09BFA01208DF80000EA
:105290006C4606223946601C08F040FA0222294674
:1052A000E01D08F03BFA0F4A4146684606F04AF80E
:1052B00010220021684608F083FA02208DF80000D1
:1052C00006223946601C08F029FA02222946E01D10
:1052D00008F024FA034A3146684606F033F808B06D
:1052E000BDE8F081603C00202DE9F04117460E46F4
:1052F00005461C46F02200210C4808F061FA0B4AD2
:105300001021384606F046F8084A2146284606F09D
:1053100019F8102E08D304F1100105F11000BDE8B2
:10532000F041024A06F00EB8BDE8F081603C002072
:105330002DE9FE4F4FF0000904004FF0020A4E46DF
:1053400078D04249886BC20702D18B46C00602D58D
:105350000120BDE8FE8F00208DF8000001461422D8
:105360003B4808F02DFA3A48012141708BF80D10A6
:105370002278584622B1012A0AD0032A27D119E0FF
:1053800001739DF80020012622F0E002403207E080
:10539000E27B02739DF80020012622F0E0028032B9
:1053A0008DF8002094F80490A78994F90E50D4F851
:1053B00008800CE001739DF80020012642F0E00215
:1053C0008DF80020278994F90A50D4F804808DF8CC
:1053D0000810204991F82C108DF80A1002A99BF8AA
:1053E000100002F047FBA84200D9054668B2F6B1AA
:1053F0009BF804105D4679B9164E8DF8040004221E
:1054000096F82C008DF8060001A9287C02F0D7FF41
:1054100078B19DF8040070703B46424649466846A4
:1054200004F088FC5FEA000A06D00020687150464C
:105430008FE7FFE703208CE70548217801700348D8
:105440001A30017841F001010170F0E7F02A0020E4
:10545000203C00208C3A0020F8B504004FF00005F5
:105460001AD03648364B277803F12001027C01F12F
:1054700038061E2F5FD2DFE807F0111316181A1D29
:105480001F222426282B32303A3D3F4143454749CD
:105490004D4B4F51535557590320F8BD407C00E008
:1054A000C078207148E00079FBE7C06C00E0006D37
:1054B000606041E02348FBE722481030F8E7807C39
:1054C000EFE7C07CEDE719200AE0D3E9110101E024
:1054D000D3E91F01C4E901012EE0172000E01620E6
:1054E0008DF800006946104602F0C4FAE0E791F832
:1054F0002000D6E7C868DBE70869D9E74869D7E73D
:105500008869D5E7C869D3E77078CAE74878C8E7FB
:105510003078C6E70878C4E7806AC9E7C06AC7E799
:10552000406AC5E74868C3E7087ABAE791ED0D0A13
:1055300084ED010A00E002252846F8BDF02A00208B
:105540006C3A00206C3700202DE9FF5F07004FF018
:10555000000408D08E4D95F83800C00705D0012012
:1055600004B0BDE8F09F0320FAE7DFF82C928848EA
:1055700009F15808A8F138063B78864A96F82D10AC
:10558000007C4FF0000B4FF0010A1E2B7CD2DFE8AD
:1055900003F00F1F2225282B313A3FFB427C908BD2
:1055A00099A1A4A7AAADB0BDD6C9E4E7FBEAF1F67C
:1055B0003879687420B1012804D0022802D102E0B1
:1055C000D06A8047E1E085F805B001F043FADCE0FD
:1055D0003879E870D9E038792871D6E07868E864DD
:1055E000D3E078682865D0E07968002971D010226E
:1055F0006A4805E0796800296BD0684810221030AD
:1056000008F08CF8C1E03879A874916D8847BCE047
:105610003879E874B9E03A7A8DF804208DF80510ED
:10562000062201A902F0CBFE002852D0D7E90112D0
:10563000C9E91112687C022825D1E878002822D017
:10564000574F0097327A96F92810287C736802F039
:10565000FBF9687D3870706A786096F82D003874B0
:10566000E87C787487F813A087F812A007F140024D
:105670003946287C02F03AFA58B3B87CF16802F057
:105680005DFFF87CE87380E07EE03A7A8DF80420D4
:105690008DF80510062201A902F091FEC8B1D7E9E4
:1056A0000112C9E91F1270E0796802918DF80CA00F
:1056B00003E0796802918DF80CB002A901F06DFF4A
:1056C00038B162E03879411E0E2944D886F82000AE
:1056D0005BE040E07868F06057E07868306154E063
:1056E0007868706151E07868B0614EE07868F06188
:1056F0004BE039798DF80410052201A902F05FFE14
:1057000048B39DF8040088F801003EE039798DF82F
:105710000410042201A902F052FEE0B19DF8040039
:10572000707032E039798DF80410082201A902F076
:1057300046FE80B19DF8040088F8000025E0397924
:105740008DF80410072201A902F039FE18B19DF866
:105750000400307019E0032417E07868A86214E0B0
:105760007868E86211E07868C8F8040070600CE0BE
:1057700005E0FFE7387988F80800307205E097ED1A
:10578000010A86ED0D0A00E002242046E8E600004A
:10579000F02A0020B41903006C3A00206C37002076
:1057A000CC3B00202DE9FF4704004FF0020832D027
:1057B000464E96F83800C00718D10C220021444804
:1057C00007F0FEFF424F01204FF00009787020786B
:1057D00006F11A0530B1012857D0022861D00328FC
:1057E0004BD167E096F83800C00603D5012004B01D
:1057F000BDE8F087606870B1A06860B1E06850B142
:10580000207C40B18DF808001E2202A9307C02F0F5
:10581000D6FD10B109E00320E9E71F208DF80C0048
:1058200003A9307C02F026F92074287840F00800A3
:1058300028702078387060683064A0687064E06810
:10584000B064207C707686F818908DF8009002F095
:10585000BFFD307E01A9401CADF80400307C01F092
:105860007BFE1C4900231A4648701946684604F01E
:1058700061FA00BF5FEA000805D086F80590287835
:1058800020F0080028704046B1E72878002240F058
:10589000080028702078387011460220FEF732FB8D
:1058A000E8E73870287840F008002870A08804F0F5
:1058B000EDFADFE73870287840F008002870227B86
:1058C000A088A16804F012FBD4E70000F02A0020B1
:1058D000343C00208C3A0020FEB508AF97E87000F9
:1058E0008DE8700000F002F8FEBD00002DE9FF5FBA
:1058F0000D46DDE90F8A814600261F460124F0226D
:1059000031462C48DDF838B007F05AFF294A1021FB
:10591000029805F03FFD2848390A80F805B08771E4
:10592000C171390C0172390E417280F80A804FEA58
:105930001821C1724FEA184101734FEA18611D4FD7
:105940004173203F804619E088F80F40194A641CD3
:10595000A4B2A2F12001184805F0F4FC002031188F
:105960003B5C19F80120401C5A4080B20AF8012023
:105970001028F4D3103D1036ADB2F6B2102DE3D29C
:10598000002D14D00B4A88F80F40A2F120010A48DC
:1059900005F0D8FC002008E031183B5C19F8012024
:1059A0005A40401C0AF8012080B2A842F4D3BDE856
:1059B000FF9F0000603C00206C2B00202DE9F0438D
:1059C00081462E4887B00E0041788DF804102C4C8B
:1059D00000788DF81800207A617A0844C5B238D072
:1059E0004FF000088DF808802079244F8DF80900C9
:1059F000206B383F039078788DF8100038788DF858
:105A0000110097F82C008DF8120004F1300000907E
:105A100006AB01AA02A9207C01F08EFD97F82C00AC
:105A20008DF816009DF804008DF8150009208DF8FA
:105A30001400E07C10B10A208DF8140005A9207C28
:105A400002F018F8C0B27070A84206D3401B307044
:105A500009E0032007B0BDE8F083307084F80880C7
:105A6000002584F809802A469DF90410484604F070
:105A700045FD08B10020EDE70820EBE7C43A00201F
:105A8000F02A002070B50125064E0024FF2000F00A
:105A90000BF8FF2804D03055641CE4B2002DF5D17A
:105AA000002070BD0635002008B501468DF80000C5
:105AB00001236A4642200AF017FA020007D005487F
:105AC0000321008801EB004003A109F0A7FC9DF829
:105AD000000008BDD42C00204750532072616B5F3A
:105AE0006932635F73696D706C655F7265616420B4
:105AF0006572722025640D0A0000000070B5094D22
:105B0000002400BF05EB04110023102242200AF0FC
:105B100059FA08B1002070BD641C072CF2DB01208B
:105B200070BD0000181A0300014901200871704778
:105B3000882A00202DE9F04341788BB0002974D1E8
:105B4000694C2278012A02D1A189491CA181417B9B
:105B5000012915D1C178654D012904D0022902D04F
:105B6000E0290DD10DE0017B012909D18068007881
:105B700000F00100E87080F001015D48FEF775FC5F
:105B80007AE00026012702217AB182684FF00408EA
:105B90004FF0030913780B226370082B6CD2DFE8F7
:105BA00003F01F2C2E3033494F76027B042A63D139
:105BB00080680278012A5FD14278012A5CD182781C
:105BC000012A59D1C078012856D1AE70E020287042
:105BD0006970A681A673E67326742770677004E067
:105BE000AE7029706A70A68126708DF800108DF84D
:105BF00004706846FFF7A8FC3EE069703CE0AF70B7
:105C000000E0AE70677037E03A4A037B6B7082F851
:105C10000080012105E08468645C641C5454491CC4
:105C2000C9B2F22B02D21C4601E059E0F2248C42A8
:105C3000F1D821E08DF80C7003A8FFF7B3FD1BE04D
:105C4000AE7029706A70A68126708DF820108DF8CC
:105C5000247008A8FFF778FC24488DF80C601430F5
:105C6000049008300590083006908DF81C9003A829
:105C7000FFF798FD85F8058000211F48FEF7F5FB2A
:105C80000BB01948BDE8F043503804F0FBBB027B71
:105C9000032A1CD0072AB5D18DF80C908168B1F881
:105CA000011049BAADF810108168CA780B79120456
:105CB000497942EA03220A4364214A4305928068F3
:105CC00080798DF8180003A8FFF76CFD9AE78DF82E
:105CD0000C108068B0F8010040BAADF81000F2E78F
:105CE0000BB0BDE8F08300004C330020882A002070
:105CF000CC2A0020E0310020C42A002070B50178B1
:105D0000124C012511B101291DD110E0407808B1D4
:105D1000657118E0022060710DA004F0E1FC002123
:105D20001148FEF7A2FB114804F0ACFB0BE04178F0
:105D300049B90E4950310A78012A04D18D73027A8B
:105D4000CA73407A0874257170BD0000882A00204B
:105D50004F544141204A6F696E20537563636573E8
:105D600073200D0A00000000C42A0020FC3200202D
:105D700000F01F02012191404009800000F1E02065
:105D8000C0F88012704700F01F02012191404009C5
:105D9000800000F1E020C0F80011704700F01F0201
:105DA000012191404009800000F1E020C0F800127C
:105DB00070474907090E002806DA00F00F0000F1CD
:105DC000E02080F8141D704700F1E02080F80014F6
:105DD00070470A2801D2303002E0102802D2373052
:105DE00040B270473F207047002000F001B800002B
:105DF00070B506465FF0000404F1B000C0B204F0D4
:105E0000A3FB002004F0A0FB102004F09DFB002564
:105E1000304604F0B9FB6D1CEDB2802DF8D3641C44
:105E2000E4B2082CE8D370BD10B52C4808F014F982
:105E3000AE2004F089FB202004F086FB102004F043
:105E400083FBB02004F080FBC82004F07DFB002021
:105E500004F07AFB102004F077FB402004F074FB80
:105E6000812004F071FBFF2004F06EFBA12004F000
:105E70006BFBA62004F068FBA82004F065FB3F2024
:105E800004F062FBA42004F05FFBD32004F05CFB71
:105E9000002004F059FBD52004F056FBF02004F05C
:105EA00053FBD92004F050FB222004F04DFBDA20F4
:105EB00004F04AFB122004F047FBDB2004F044FB13
:105EC000202004F041FB8D2004F03EFB142004F060
:105ED0003BFBBDE81040AF2004F036BBA0860100BC
:105EE00010B50446B031C8B204F02EFB102040EAD1
:105EF000141004F029FB04F00F00BDE8104040F03E
:105F0000010004F021BB00002DE9F0470025914677
:105F10008A460446012B22D0DFF8BC80022B24D114
:105F200055E02038C7B27E2C04D90AF101000024C4
:105F300000F0FF0A51462046FFF7D2FF07EB47006B
:105F4000002608EB4007B85D04F01EFB761CF6B295
:105F5000062EF8D3A41D6D1CE4B2EDB201E0DFF80B
:105F60007C8019F805000028DBD1BDE8F0872038D7
:105F7000C7B2782C04D90AF10100002400F0FF0A0E
:105F800051462046FFF7ACFF5FF0000606EB071115
:105F900018F8010004F0F8FA761CF6B2082EF5D3D2
:105FA0000AF10100C1B22046FFF79AFF5FF0000638
:105FB00006EB071101EB0800007A04F0E5FA761C05
:105FC000F6B2082EF4D308346D1CE4B2EDB219F821
:105FD00005000028CBD1C8E7C01C0300981A0300B5
:105FE00010B50B4804F06FFA0A48417929B1012134
:105FF0008173816B21F004018163407C022805D10B
:1060000004481A30017841F01001017010BD000001
:10601000E03B0020F02A002010B5054804F053FAB8
:106020000448FEF717FABDE81040014804F02ABA08
:10603000FC320020C42A002010B5044804F043FAC2
:10604000BDE8104001210248FEF70FBA24330020BA
:10605000CC2A00202DE9F8430027864804F033FAC3
:10606000854DA5F11A042878C10670D5A16B4A06A2
:1060700002D521F04101A16380490207A1F1140872
:106080004FF0000601D4C20712D098F80130424602
:10609000022B02D04B78022B0AD1A36B012723F0ED
:1060A0000103A3632672637B53711671C8F80860FD
:1060B00062793A436F4FA7F170072FD1020702D4DC
:1060C000C10702D12AE00A783AB197F82010A27AE3
:1060D00091420DD9810711D41BE0227E8A72497842
:1060E00019B1617E8A420FD213E0A662A6720BE05C
:1060F000800703D42672206B401C2063A672607850
:1061000010B9A06A401CA062A06B20F00100A0633F
:1061100004E020F01000287000F0E6FC28788007EA
:1061200016D598F80410012903D0617B227B914297
:106130000ED9A6736671617811B9A16A491CA16272
:10614000617B88F80510A06B20F00100A0634EE091
:10615000A07B98B394F83800C00648D4A673607B3F
:10616000217B884230D208282ED8401C6073C0079B
:106170000ED020208DF8000097F82C008DF802003A
:1061800078788DF801006946207C01F073FC787006
:1061900003F050FD98B1092188F801102672A16B17
:1061A00021F00101A163667188F80460617B88F8C1
:1061B0000510797888F802106078A8B117E028787F
:1061C00020F01000287012E00121207C01F05AFC20
:1061D000A06B20F00100A0632672667188F804604D
:1061E000617B88F80510E7E7A06A401CA062A06BFD
:1061F000810702D520F00200A06370B14FF47A71DC
:106200001C4804F03AF91B4804F03CF92878800750
:106210002DD5607C02281CD01DE02878C00708D04E
:10622000E06D0168154814388847287820F001008F
:1062300028702878000707D5E06D81680F488847E7
:10624000287820F008002870287820F010002870A6
:10625000DCE700F0FFFB2878400704D4E06D4168DC
:1062600006482C388847287820F006002870BDE8BA
:10627000F8830000FC3A00200A2B0020343C002068
:106280002DE9FF4F4FF0000997B004460E464846EF
:10629000CDF818904F46FE49CDF810900991103175
:1062A0000C9101F2A441CDF85090CDF84C90A1F1A1
:1062B000180581F80490EA81DFF8D8B31A99297497
:1062C0009BF80F106974E870A8706871A860287353
:1062D0006873A87468612870EF48C06A8047A5F1A8
:1062E000780004F0F0F8207801904FEA50180F90F1
:1062F000EA484FF0010A42460188032000EB0140C2
:10630000E7A109F08BF84146301FA6F101080E9075
:10631000012919D003297DD005297BD007297AD0FE
:1063200085F801A000F0D6FDDA481A30017841F076
:10633000100101700121DD4804F09FF8DB4804F0F2
:10634000A1F81BB0BDE8F08F9BF803005F4610B1C9
:1063500085F801A0C3E0D64D1FFA88F16B1C601CC4
:10636000BA6CFEF7C1FF019828700E9806AB81B297
:106370002846BA6CFEF74EFFA81905F2A93410F8AA
:10638000041D427841EA02218278C07841EA024144
:1063900041EA0060069988424FD1A4F597600090C9
:1063A000BB4BFA8B691CB86CFEF758FF28796979EA
:1063B000A4F5D47840EA0120A97940EA0140F864C4
:1063C000E879297A40EA0120697A40EA0140A97A0D
:1063D00040EA01603865E87AC0F3021188F82110BC
:1063E00000F00F0088F82800287B10F00F00C8F894
:1063F000100002D15046C8F810A04FF47A714843FB
:10640000C8F8100000F57A70C8F81400A8480D30DC
:10641000113E01E014E0A2E111908DF8486011A94D
:10642000387C01F0A0F800206070A04887F803A035
:106430003838407888F8010076E70720607073E705
:106440009A48703890F82D008DF8420099480079EC
:106450008DF8410009208DF840009BF8130010B121
:106460000A208DF8400010A99BF8100001F002FBF3
:106470006FF00C0101FA86F212B2002A03DD01FA74
:1064800086F109B200E00021814203D9894981F8EF
:1064900001A024E06078A1787E4A40EA0120E178FA
:1064A00040EA0140217940EA01610391126D052023
:1064B0009142784916D04F6A0CE03A6803998A42B3
:1064C00007D101211491391D099110310C917D6A78
:1064D00009E0BF6A002FF0D10B217648417000F02F
:1064E000F9FC2EE7CD6A215C401C8846225C401CEA
:1064F000049B205C42EA002201F00F000830079064
:10650000A01910F8041D1943437841EA0321837848
:10651000C07841EA034141EA00600490501B1FFA31
:1065200080FB06A9BBF5004F12D25D44CDF800A058
:10653000CDE901510E98039B81B22046099AFEF7DE
:10654000EFFC06990498884219D10120139016E0B7
:1065500005FA8BF000F58030CDF800A01590CDE95C
:1065600001010E98039B81B22046099AFEF7D8FCE0
:1065700006990498884202D10120159D139011209C
:106580008DF84000434810A9007C01F073FA58458B
:1065900004D848480A2141704561A0E713980028B3
:1065A00074D044490020DFF8ECB04870149A8A7027
:1065B000C8F300124A718860087301F118024D6136
:1065C0005070CBF830008BF8090014984FF0080C8D
:1065D00058B1384802210170796AA94203D111B13A
:1065E00080F801C07BE77D6220E00F980521B1EBC8
:1065F000501F0CD12F4B8BF806A083F800A0DBF8BE
:106600002C00A84210D178B14FF001090CE02949C3
:1066100000238BF806300B70DBF82C00A84203D166
:1066200010B181F801C05AE7CBF82C50214818303E
:106630000078012802D15FEA886002D500208BF83B
:1066400008000798301A001F002858DD079F079898
:106650007F1CF11B091F205CC9B204911549002859
:10666000C8704FEA08702ED038B11A980821C3B20A
:10667000781EC2B2204600F0C9FD0D4ECDF800A034
:10668000CDE90156DDE90331E01915E065E00000D0
:106690006C370020F02A0020B4190300D42C00200D
:1066A0004D547970653D25640D0A0000FC3A0020C8
:1066B0008B380020083C00200C9AFFF70DF9B9F147
:1066C000000F15D041E010B14FF001093DE02D4819
:1066D000CDF800A0CDE90150DDE90331E019099AB8
:1066E000FFF7FAF81A980021C3B22648049A0EE080
:1066F000254886600499017380F80DA00CE05FEADC
:10670000087006D01A980821C3B22046079A00F0F4
:106710007DFDB9F1000F18D15FEA886007D51A49ED
:10672000183181F804A0183981F812A009E016493F
:106730000020183108719BF80D109BF80C00814265
:1067400003D91148283803F0BEFE1049087840F0FC
:10675000020069F382000870E6E50C21BDE6611CC9
:106760003246084806F0DAFF0320287000206870DF
:106770000448A860054885F80C80017841F00201C2
:106780000170D1E58B380020083C00200A2B002046
:1067900070B5134C607C022803D01248C06A804751
:1067A00001E000F057F910480D4DE27B63791A358E
:1067B00000F1140122B1062203B142704A7009E0CF
:1067C000052203B142704A70606D03F03BFEA16E7A
:1067D000884203D3287840F01000287070BD000074
:1067E000F02A0020B4190300203C002070B5194C99
:1067F000607C022803D01848C06A804701E000F09E
:1068000029F9144D1548E27B1A3500F114010326CD
:10681000A2B16379042203B142704A70607C0228FD
:1068200003D0287840F0100028700D480DA1008892
:1068300006EB0040BDE8704008F0ECBD627902B1A3
:1068400046704E70606D03F0FDFDA16E8842E8D287
:10685000EBE70000F02A0020B4190300203C0020E0
:10686000D42C00205278546F0D0A00002DE9FE4F01
:1068700003F0E6FD3C4C0646607C022803D03B4812
:10688000C06A804701E000F0E5F8374DDFF8E0A08E
:10689000A0781A350AF114084FF00109002758B3FF
:1068A000A8F1CC00616E03F0E8FDA8F1CC0003F084
:1068B000E9FD607C02280DD0A8F1A400A16E03F0D0
:1068C000DCFDA8F1A40003F0DDFD607C022801D00E
:1068D0006079F8B112208DF8080002A9207C01F03F
:1068E000C9F8A16E01442248403803F0C6FD204893
:1068F000403803F0C7FD0DE08AF80170042188F8E4
:106900000110287810B9484685F80090C0B240F0D0
:10691000100028702878000702D598F8000080B190
:10692000E775607DA0758DF80000E0788DF80100B6
:1069300001966946207C01F0E9F86665607918B136
:1069400007E084F81790ECE78AF80170A07A401C01
:10695000A07208480321008801EB004006A108F05E
:1069600059FDBDE8FE8F0000F02A0020B419030095
:10697000203C0020D42C002054446E0D0A0000005E
:106980000B4810B5407C022803D00A48C06A8047F3
:1069900001E000F05FF808490220487014314870A7
:1069A00003481A30017841F01001017010BD000059
:1069B000F02A0020B4190300203C002070B51A48CA
:1069C00003F081FD194C184D0020E0735035617DB6
:1069D000A5F59676297096F82110E97096F82D1095
:1069E0002974E17C6974A874E874607C022802D17F
:1069F0000F48006B80470C4A207CA432A2F154015E
:106A000001F074F8A87CF16801F098FD094895F947
:106A100001306A680088BDE87040032101EB004046
:106A200005A108F002BD0000683B0020F02A00200C
:106A3000B4190300D42C00200D0A5278315F46723D
:106A400065713D25642C2044725F74625B25645D32
:106A5000200D0A0070B51A4803F035FD194D184C89
:106A60003C34687DA4F5A0762070706A606096F86A
:106A70002D002074E87C60740120E074697C022998
:106A800000D000200E4AA0747C32A2F14001287C84
:106A900001F02CF8002812D0A07CF16801F04EFD26
:106AA000E07CE873084894F9013062680088BDE82A
:106AB0007040032101EB004004A108F0B6BC70BD9A
:106AC000903B0020F02A0020D42C00200D0A5278A0
:106AD000325F467265713D25642C2044725F74629A
:106AE0005B25645D200D0A001FB5184803F0EBFC20
:106AF000174CA06B20F01000A06304F11A0000787E
:106B0000000720D51148F4300078E0B901F060FCAE
:106B1000207E03A9401CADF80C00207C00F01CFD79
:106B20000A49B439487000208DF8040022790146E2
:106B300062F3C7118DF8081003460246009002A9BF
:106B400001A800F077F803F075F81FBD403B002066
:106B5000F02A00203EB50B4803F0B5FC01248DF867
:106B600000406846FEF778FC002805D19DF8041027
:106B70000548012901D044713EBD022141710471D3
:106B80003EBD0000D4320020882A00202DE9F041CB
:106B90004FF48077384607F0C3F90124104EA5075B
:106BA00048B1384607F0C3F90120C5F808037470EE
:106BB000002005F093FC4FF48277384607F0B0F9D7
:106BC00000280BD0384607F0B2F90220C5F80803B8
:106BD000B470BDE8F041012005F080BCBDE8F08153
:106BE00094450020F0B505004FF00003184600D092
:106BF000E2B90020F0BDEC5CA61E092E14D2DFE83D
:106C000006F0131113050F110B1305005B1C145430
:106C1000DBB2401CEC5CC0B21454401CC0B203E0B8
:106C20009B1C00E05B1CDBB25B1CDBB28B42E2D343
:106C3000F0BD00002DE9F04F87B0DFF884824FF0FF
:106C4000000B109CCDF80CB00E46A8F81CB0014605
:106C50001D00174688F805B000D10024E2B2994C17
:106C600088F800200878207009784FF0010C604601
:106C7000490909D002294AD0042946D007297DD0E4
:106C8000022007B0BDE8F08FA8F81C00601C0822A5
:106C9000D8F8441006F04CFDB8F81C000822083063
:106CA00080B2A8F81C002044D8F8401006F040FD3F
:106CB000B8F81C000830A8F81C00834840698047D9
:106CC0000146A8F81E00B8F81C0003AB2154401C74
:106CD00080B2090A2154401CA8F81C00C1B27948AE
:106CE000D8F84820FEF796FAB8F81C00039921540A
:106CF000401C80B20A0A2254401C80B20A0C225462
:106D0000401C80B2090E2154D4E088F805C098F8E0
:106D10000300002867D001208DF8100030786B4AFE
:106D2000C0098DF81100D8F83000059012F8010F55
:106D30008DF8180012F8010C8DF8190092F82B004C
:106D40008DF81A005E48614B3030009004A998F825
:106D5000100000F0F1FB0146307861F386103070CE
:106D600098F8061021B188F806B040F02000307085
:106D7000D8F85010C246A146617000E092E00A0ABD
:106D8000A2700A0CE270090E217131786171B8F8B5
:106D90002810A171090AE1714D4898F808100824DB
:106DA00008444B4998F80920803106F0B7FC98F860
:106DB000081098F809000844C1B288F80810EDB12D
:106DC0009AF800205046CAB1C279FAB10F2919D8F1
:106DD00030783F4B421862F30300307089F80500A9
:106DE0004A46002007E007204BE71E5C1655641C4E
:106DF000401CE4B280B28842F7D307E0504629B184
:106E0000C2791AB1324D8AF800100027304AD846AC
:106E100056468AF807B080322D48FFF7E3FE7072BD
:106E200008B10120F0719DB1317889B109F8047081
:106E3000641CE4B257B3B36A09EB0400CDF80080D8
:106E4000CDE901301F4A336D103A2846FEF74EFD5A
:106E5000307803AA2118B183B36ACDF80080CDE958
:106E60000132184A1748203A336DFEF759F8B18BB2
:106E7000039809EB010209F80100030A5370030C9F
:106E8000000E9370D070091DB18316E086F808805B
:106E9000404609EB0403B26A8DE80D00094A336DE0
:106EA000203AD2E74BB142B1601C294606F036FCCD
:106EB00098F80000401CA8F81C000020E1E6000043
:106EC000F02A00208C370020B41903008C3A0020EF
:106ED0008A3900200C4810B5816B41F04001816374
:106EE000407908B1FFF77CF807481A30017841F083
:106EF000120101700121054803F0BFFABDE81040FE
:106F0000024803F0BFBA0000F02A0020FC3A00203B
:106F10002DE9F04F2DED028B8FB09FED930B944F29
:106F2000944D0326944C8DED040B4FF0FF094FF068
:106F3000000A4FF00108022817D0022103287DD053
:106F400004287CD0E0280BD104F5B670827B012A9E
:106F500076D04278012A74D0042A01D180F80180C9
:106F60000FB0BDEC028BBDE8F08F04A906A8FDF7B9
:106F700067FC0D90FDF740FC9DED040B814651EC44
:106F8000100BFCF78EFC9DED060B834651EC100BAD
:106F9000FCF787FC0246CDF8009038885B4606EB8C
:106FA000004076A108F049FA0D98012802D085F832
:106FB00001A0D5E784F80080882060709FED7B8B6E
:106FC0009DED060B53EC182B51EC100BFCF74BFB13
:106FD0000F4647EC100B064651EC100BFCF742FC39
:106FE000000C47EC106BA07051EC100BFCF73AFC56
:106FF000000A47EC106BE07051EC100BFCF732FC10
:1070000020719DED040B53EC182B51EC100BFCF789
:107010002AFB0F4647EC100B064651EC100BFCF711
:1070200021FC000C47EC106B607151EC100BFCF76D
:1070300019FC000AA07147EC106B03E012E048E075
:1070400081E08AE051EC100BFCF70CFCE07164214C
:1070500019FB01F0010C2172010A6172A0720B2070
:1070600068707DE7217067208846607002F0B2FF8B
:1070700018B903A90AA802F057FFDDED030AB2EE22
:10708000040AB0EE001A20EE800A4B4649A1BDEE7C
:10709000C00A10EE100A000AA07010EE100AE0708C
:1070A00084F80480682060719DED0A0A20EE010AD0
:1070B000BDEEC00A10EE100ABCEEE00AA071072077
:1070C0006870388810EE102A06EB004008F0ADF921
:1070D00046E726707120607008A8FDF726FE40B2D2
:1070E000012823D1BDF92430BDF92220BDF920109B
:1070F00036A003F0F5FABDF820004FF47A7110FBCA
:1071000001F0010AA170E070BDF822004FF47A711D
:1071100010FB01F0010A21716071BDF824004FF4E9
:107120007A7110FB01F0010AA171E071082068700A
:10713000E08800903888A388628806EB00402CA184
:1071400008F07BF90CE780F80EA06E700521217025
:10715000C17B6170017CA17000E769708089010AC0
:1071600021706070FCE600000000000000000000DC
:10717000D42C0020882A0020E03100206C61746942
:10718000747564653A2025662C206C6F6E6769748F
:107190007564653A202566202C20616C74697475CD
:1071A00064654770733A202564200A0000000000DF
:1071B0000088C34074656D70723A20256420426176
:1071C000743A2025646D760D0A0000004C6F526100
:1071D0002075706C696E6B2041434320583D2564D7
:1071E00020593D2564205A3D25640D0A0000000009
:1071F00041434320583A2530345820593A253034F9
:1072000058205A3A253034580D0A00002DE9FF4F16
:107210008BB017460C4605464FF0000ADFF8C4B2A3
:10722000DFF8C48236E1B14803212A5D008801EB12
:107230000040AFA108F0F2F8285D641C801EE4B2A3
:10724000092871D2DFE800F005106371A7B2DBF303
:10725000F100AA4981F801A0285D0872641CE0B21F
:107260002A5C4A72401C50E028198DF820A0401E6C
:107270000390381B8DF81CA0401C8DF818A08DF8C9
:1072800008A08DF8100098F804108DF812109BF8E3
:107290002C108DF811109BF801108DF813109BF82D
:1072A00000108DF814109BF820108DF8151002AA0C
:1072B00008A9CDE900125E4607AB06AA03A998F813
:1072C000100000F0EBFB0990C043400709D19DF886
:1072D000180070709DF81C0030709DF8200086F832
:1072E000200000264FF0050906E00022032009993E
:1072F000FCF708FE761CF6B29DF80810B1FBF9F019
:10730000B042F2D8C8B22044401EC4B2C2E0295DE7
:10731000641C012288F80B108A40A8F82020002263
:10732000E4B211460420B3E0B7E0285DC0F30210D8
:107330008DF80100285D641C00F00F008DF800003E
:10734000E0B2295C401CC0B201912A5C401C41EAB9
:107350000221C0B201912A5C401C41EA0241C4B240
:107360000846642148430190694698F8100000F0EF
:10737000C6FB0146C84340070AD19DF800208BF8A0
:107380002820019ACBF824209DF801208BF8212099
:10739000002205207CE0D8F86000FF2118B10068C9
:1073A00008B18047014606200E9A71E0285D8DF8ED
:1073B0001000641CE0B2CDF80CD0295C401CC0B2B7
:1073C00000912A5C401C41EA0221C0B200912A5C73
:1073D000401C41EA0241642200915143CDE9001A68
:1073E000C0B2295C8DF80810401CC4B203A998F8FB
:1073F000100000F064FB01460022072048E0285DF1
:1074000004F1010410F00F00E4B200D101204FF4A8
:107410007A7110FB01F0CBF8100000F57A700022B1
:10742000CBF814001146082032E039E0FFE7285D70
:10743000641C8DF800A0E4B28DF801A0810602D58D
:1074400001218DF80110C10602D501218DF800102F
:1074500000F00F008DF80200694698F8100000F067
:107460006FFB401C16D058469DF8001000F82C1FEA
:107470009DF8011041709DF80210214A0920515CCD
:10748000002200EE101A1146B8EE400A8BED0C0AED
:10749000FCF738FDBC42FFF4C6AE0FB0BDE8F08F7C
:1074A000285D8DF80000641CE0B2295C401CC0B26D
:1074B00001912A5C401C41EA0221C0B201912A5C80
:1074C000401C41EA0241C4B208466421484301908D
:1074D000694698F8100000F0C6FA014600220A201A
:1074E000D6E700008C3A0020F02A0020D42C00209F
:1074F0004D61633D25640D0A00000000343C00200E
:10750000C022030007480021C0F84011C0F8441110
:10751000C0F84811C0F84C11C0F80011C0F80411AF
:1075200009F092BB0010014004220021014807F03D
:10753000D9B8000000400240F0B41C46049B154638
:107540000E46082802D0F0BC00207047224629468B
:107550003046F0BC00F0FCBA082801D0002070478B
:10756000084600F039BB082802D1084600F03BBBB2
:10757000704730B414460D46082802D030BCD0B253
:1075800070472146284630BC1A4600F02DBB08281B
:1075900002D1084600F034BB7047082801D0002013
:1075A0007047084600F04CBB30B502460068D17AFF
:1075B000092301EB410103EB81010025405C516887
:1075C0000C2401EB001304EB00141B880D51507ABE
:1075D00048B1907A012805D1106900FB03F1081A1F
:1075E0005168085130BDD06800F04EF9834200D395
:1075F0001846917A09B9117A19B111694843401AAC
:10760000EEE75068055130BD10B50B09B3EB121F02
:1076100001D8914201D3002010BD01F00F0430F8D1
:1076200013200121A1408A4320F81320012010BD1E
:1076300010B500280CD000290AD0002306E000BFB6
:1076400031F8134020F813405B1CDBB29342F7D3B0
:1076500010BD2DE9F0479246DDE908290E46804627
:107660001946504600F0E8F9002824D000242546A9
:107670001EE00023012736F8150007FA03F108423F
:107680000ED0E01800EB400109EB8100007AC0F356
:107690000312C0F30301504600F0CEF901280AD0CE
:1076A0005B1CDBB2102BE6D310346D1CE4B2EDB2E0
:1076B0004445DED30020BDE8F08700002DE9F05FEF
:1076C00004462DED068B1F469146B0EE408AF0EE43
:1076D000608A4800DDF84080FCF7B7F88B46064624
:1076E0004BEC190B6FF0070000EB4400FCF79CF823
:1076F0008A464AEC100B054653EC182B51EC100B44
:10770000FBF7B1FF53EC192BFBF706FF53EC182BDB
:10771000FCF71BF841EC100B03F00AF851EC100BCE
:10772000FCF7BFF8A0421AD34AEC105B4BEC196B84
:1077300053EC182B51EC100BFBF795FF53EC192B66
:10774000FBF7EAFE53EC182BFBF7FFFF41EC100BA5
:1077500002F0EEFF51EC100BFCF7A3F8044648468C
:107760003C60FCF772F841EC190B2046FCF76DF811
:1077700053EC182BFBF777FF9FED121B53EC112BEB
:10778000FBF771FF9FED110B41EC1A0B53EC102B23
:1077900051EC180BFBF767FF53EC1A2BFBF75DFF5F
:1077A00053EC192BFBF759FF41EC100B02F0C0FF13
:1077B00051EC100BFCF756F8C8F80000BDEC068B36
:1077C000BDE8F09F000000000000E03F0000000066
:1077D0000000104010B504462DED028B0846FCF762
:1077E00034F841EC180B0120A040FCF71DF853ECD5
:1077F000182BFBF7AAFF9FED051B53EC112BFBF792
:1078000032FFBDEC028B41EC100B10BD00000000FC
:1078100000408F40400001EE100A10B5B8EE411A4A
:1078200030EE410A30EE600A10EE100AFCF752F812
:1078300041EC100B03F008F851EC100BFCF712F8B8
:1078400040B210BDF0B505004FF0000001D0012797
:1078500017E00020F0BD00BF35F811E000244FF024
:10786000100C234607FA03F636EA0E0601D1641C13
:10787000E4B25B1CDBB26345F4D32044491CC0B2C4
:10788000C9B29142E8D3F0BD0649884201D26420D2
:1078900070470549884202D24FF47A70704742F22D
:1078A0001070704780EE3600803F5C022DE9FC4F7F
:1078B0008946067890F9028090F9035090F9047097
:1078C00041789B469246044659B9B8F10F0F01D151
:1078D0000F2D02D094F90770002694F9058094F9D1
:1078E00006501EB3616994F91100CDE9000194F9C5
:1078F0001030207A4246E168FFF7ABFE08B906F087
:10790000FD0694F9182094F91910284600F094F80F
:1079100038B994F91900A84201DD054601E006F0E6
:10792000FB06072E02D10FB994F9077089F8008081
:107930008AF800508BF800703046BDE8FC8F037861
:107940000022032B14D1427802F00F038B70C2F394
:1079500003124A7082788A80C37842EA03228A80BE
:107960000079C0F30212CA7000F00F0008700522FF
:10797000104670478A60002800D14A6070472DE9A0
:10798000FF5F00251E46934689464FF0FF34AA4606
:107990004CE0009870B1B9F1000F40D00BEB051727
:1079A000B86802F04FFD0146F868814229D3C7F854
:1079B0000CA039E00BEB0518D8F8040002F042FDEA
:1079C00007465FEA090003D0D8F8080002F03AFD44
:1079D00087420DD25FEA090003D0D8F8080002F010
:1079E00031FDD8F80C10814205D8C8F80CA01BE076
:1079F000D8F80400F3E7B9B1081AA04214D204463B
:107A000012E088B1B86802F01DFDF968081AA042BA
:107A10000AD2B86802F016FDF9680C1A04E00BEB04
:107A200005100024C0F80CA06D1CEDB2B542B0D317
:107A300004B02046BDE8F09F884203DB904201DCA1
:107A40000120704700207047F0B41C46049B154687
:107A50000E46082805D1224629463046F0BC00F0E3
:107A60001DB9F0BC7047082801D0002070470846B7
:107A700000F036B90022082801D0104670470846A9
:107A800000F030B9082802D1084600F091B97047DB
:107A9000082801D00020704701207047F8B51C4627
:107AA0000E46DDE906311546082801D00020F8BD54
:107AB000009122462946304600F0E2F9F8BD082838
:107AC00001D000207047084600F09EBAF0B41C4672
:107AD000049B15460E46082802D0F0BC00207047D3
:107AE000224629463046F0BC00F090BA0B460828E2
:107AF00001D0002070471146184600F0F1BA08285E
:107B000001D000207047084600F040BB082802D191
:107B1000084600F07FBB7047082802D1084600F0F5
:107B20008BBB704730B414460D46082802D030BCD9
:107B3000002070472146284630BC1A4600F0AEBBF4
:107B4000082801D000207047084600F007BC00005C
:107B50002DE9F8430446884690F9080094F9096035
:107B60006168196061780025914601292AD10027B2
:107B700058B16168402901D301250026602921D32D
:107B800001F01F01012902D01CE01F601AE0202132
:107B90008DF800108DF80100A07A8DF8020068467B
:107BA00000F0A0F840B268B921780025012909D178
:107BB00008494FF6FF720A804A808A80CA80FF22F5
:107BC0000A814F8188F8000089F800602846BDE8E6
:107BD000F8830000CC410020014600200978C90745
:107BE00000D0042070477047044800EB81008056A5
:107BF000002800DA0020C0B27047000020230300F4
:107C000000B585B00C4900910C49019141788DF87F
:107C1000081001788DF8091081788DF80A10C17864
:107C20008DF80B1041680391806804906846FFF757
:107C3000BBFC05B000BD00006C3E00207C2B00208A
:107C400010B50446006804220021FFF7FBFD01285F
:107C500003D0207918B1012816D0002010BD0622CB
:107C60000D482168FFF7E4FC0B4A002002F10C01EB
:107C700032F8104031F81030234021F81030401C09
:107C8000C0B20628F4D305E0034806221830216864
:107C9000FFF7CEFC012010BDCC410020F8B51C46FA
:107CA00015460E460D2800DB0D206070FCF70AFB20
:107CB000A07094F901000949084A103A51F82010BF
:107CC000105CFFF787FD04F10C00031F00900122F8
:107CD00029463046FFF7F2FCF8BD0000E022030021
:107CE0000020704770B502460020147808234FF436
:107CF0007A71212C19D2DFE804F03C1818181818F2
:107D0000181818191D182326282B2E3134183A3C20
:107D10003E404345181847474C4C110092F901006A
:107D2000002108B1401EC1B248B270BD92F90100F5
:107D3000194903E0184992F901001031085C70BD3F
:107D400040F6B83070BD084670BD4FF4FA6070BDA3
:107D500041F2883070BD41F2707070BD4FF48040C8
:107D600070BD0E4808F088F900F5FA6070BD0C4847
:107D700070BD184670BD0B4870BD0A48183070BD04
:107D8000482070BD084870BD9FED080A10EE100A2B
:107D900070BD022070BD00003423030018FCFFFFFB
:107DA000A0700837CC4100206C3E0020000000008D
:107DB00070B5C8B1012816D12D490622A1F11800CD
:107DC000FFF736FC2A4A0020183A02F10C0100BFE6
:107DD00031F8103032F81040234021F81030401CA8
:107DE000C0B20628F4D370BD0021224C22483025B1
:107DF0000A4600BF40F635434B4304EB831601EBC4
:107E00004103491C40F8236000EB8303C9B21D7293
:107E10005A724029EED34021184C442540F6354390
:107E20004B4304EB432601EB4103491C40F823601C
:107E300000EB8303C9B21D725A724829EED30C4875
:107E40004FF6FF71018041808180C180FF21018157
:107E50004281014606221838FFF7EAFB0449BDE8D3
:107E600070400622183901F10C00FFF7E1BB000059
:107E7000E44100206001C8356C3E0020C02FB82FBF
:107E80002DE9F04F8DB0002693468A460446994668
:107E900007273546029603960622594902A80496FA
:107EA000FFF7C6FB0DF1080814E02068694630446E
:107EB000FFF745FD88B13044C6B29DF8030007279F
:107EC000062855D007285ED0052869D0BDF80420C3
:107ED00028F810202079B042E7D89DF90100042845
:107EE00008DA0422002102A8FFF7ACFC022801D224
:107EF00007F0FE0701208DF8300060798DF8320020
:107F00000CA8FFF7EFFE8DF81470A1798DF815100D
:107F10009DF801108DF816109DF802108DF81710BD
:107F20009DF800108DF81810E1798DF81910217A5C
:107F30008DF81A10617A8DF8240004208DF81B103A
:107F40008DF825002F480A900A2048218DF82C0032
:107F50006B468DF81C109A1CCDF820808DF82D50A2
:107F6000511E05A8FFF7A2FC044607281AD035E0E9
:107F70004FF6FF70ADF80800ADF80C00ADF80A0040
:107F8000ADF80E0007E0ADF80850ADF80C50ADF8B4
:107F90000A50ADF80E50BDF80400ADF8100099E796
:107FA000062797E7062202A91548FFF741FB144967
:107FB000134A0C3108881388184008804888538871
:107FC000184048808888938818408880C888D3885B
:107FD0001840C88010890881508948819DF8011097
:107FE0008AF800109DF802108BF800109DF8001020
:107FF00089F80010169806700DB02046BDE8F08F85
:10800000CC4100206C3E0020002070472DE9F04359
:1080100095B08946044600251F4616468DF85050F7
:10802000482102A8FBF7F9F9042200212948FFF7AB
:1080300009FC28B9274904220C392648FFF7F8FA29
:1080400094F90800042808DB2248017A11F0FF0F98
:1080500003D1A0F10C0109890181606802F0F2F9F5
:108060002168884221D33D60A17A607A01231A4AAF
:10807000FFF785FC14A90DF10808CDE9008107463A
:10808000207A154B154A1349FCF712F8B8B1411E76
:10809000002007F0F1FF18F8001089F800104022C6
:1080A0000C48FFF7B1FA35600DE09DF85000401C18
:1080B0008DF85000606802F0C5F921680F1A9DF82C
:1080C000500020B13760012015B0BDE8F0830020DA
:1080D0003560F9E7D84100207C2B00206C3E002061
:1080E0002DE9F043DFF89880044690F90150476885
:1080F000D8F804008BB08946804718B100200BB037
:10810000BDE8F083E07C50B9207842F29F4100F056
:10811000070010FB01F01B4901EB801767601A484C
:10812000D8F80C10465738468847A17C0122CDE983
:1081300008210020069007902189059089B2CDE999
:10814000021008210490CDE900011346D8F81870F8
:10815000A17832460120B847607C01280CD00A483B
:108160006430D8F85420405D0D30C1B201209047F2
:1081700089F800500120C2E703487430F1E700009D
:10818000B4190300A0700837D022030070B505466B
:1081900046681C480724016A3046884770B11A486F
:1081A00086420BD31948864208D8174818494042DE
:1081B0003044B0FBF1F201FB120000B1062495F946
:1081C00000000D220821FFF737FC08B904F0FD0478
:1081D00095F9000007220521FFF72EFC012803D0A6
:1081E00095F900000D2801DD04F0FD0495F901006A
:1081F00003220021FFF720FC08B904F0FB0420460D
:1082000070BD0000B4190300A0700837E08648373D
:10821000C02709000178064B01EB410103EB810106
:10822000044B497A426803EB01114078FFF7A2BB87
:108230006C3E00207C2B002070B5044690F9012094
:108240000078124D00EB400005EB80001049407AA9
:1082500005F5587301EB001090F9021094F9020033
:10826000FCF744FE2178DFED0B0A01EB4101B3EE90
:108270000E0A55F82150FFF7CDFA01460648A289AB
:10828000C36B2846BDE87040184700006C3E0020D4
:108290007C2B002000000000B41903002DE9F04FF2
:1082A0009246044690F901202748284D8B46875670
:1082B0002078274900EB400005EB800089B0407A28
:1082C00005F5587301EB001090F9021094F90200C3
:1082D000FCF70CFE814694F90100FBF7F3FF8046A2
:1082E000DFED1C0AB3EE0E0A4846FFF793FA064686
:1082F000207800EB400055F82000174DE9688847CA
:10830000002040F6B83105900690CDE90701012123
:108310000822CDE901120097CDE903010246EF6979
:10832000434631460120B8476A6D217B01209047C2
:108330006A6A217B01209047CAF800008BF8009000
:1083400009B00120BDE8F08FD02203006C3E002070
:108350007C2B002000000000B41903004FF0FF3018
:10836000704710B5072921D006DC04290BD0052958
:108370000DD0062921D10FE0082917D00B291CD0D8
:108380001E291AD116E090F90000042202E090F9AB
:1083900000000522002103E090F900000D220821D1
:1083A000FFF74AFB002800D0012010BD90F9000023
:1083B0000A22EFE700780228F6D2002010BD0B4613
:1083C000082801D00020704711461846FFF7C9BFA2
:1083D00070B51E4800210122C1708162C162016333
:1083E0008172027342738173C1720284017241729D
:1083F0008270174AA2F1380314781C7054785C70AC
:1084000092F8214083F82140A2F15804D4E91F5684
:10841000C4E9115692F82C4083F82C4092F82D4074
:1084200083F82D4092ED0C0A83ED0C0A92ED0D0AB3
:1084300083ED0D0A41718171C171426A01E051629F
:10844000926A002AFBD14175817570BDF02A002027
:10845000C43A00201CB51049104AD1E90001CDE909
:1084600000014FF4A370ADF800000B4869460830D6
:1084700006F008F908B103F006F8074800210830B3
:1084800006F0A2F904480121083006F08BF90248F1
:10849000083006F0EBF81CBDA419030079030300B3
:1084A00070B5092000F082FD0546062000F07EFD33
:1084B0000404072000F07AFD44EA0024082000F0BC
:1084C00075FD2043FBF7C1F99FED191B53EC112BF0
:1084D000FBF7C9F8FBF7E5F904460021092001F094
:1084E0008FFB3B2000F062FD40F040013B2001F09B
:1084F00087FB3B2000F05AFD8006FAD40E4800F0BE
:1085000043FE3B2000F052FD40F040013B2001F0D3
:1085100077FB3B2000F04AFD8006FAD4294609206B
:1085200001F06EFB2046BDE8704000F02DBE00005B
:108530000000000080844E4000A1BC3302000448CB
:1085400002D0416B00200847426B084610470000EC
:10855000B4190300F8B511480F4D04464FF48C715F
:1085600007F00FFA002815D00026C4F81861D4F8D7
:1085700018010090A87F2C46FF2801D006F032FE9B
:1085800066772672D4E9002101B004F10800BDE845
:10859000F0401047F8BD00000046002000300040C9
:1085A00002494FF0402004F079BC0000244600202E
:1085B00008F098BA07F07AB91CB500210120CDE97E
:1085C00000010B46024616210148FBF7C7FE1CBD01
:1085D000E02A002001207047014890F85C007047B5
:1085E000F042002070B50D462DED0E8B01004FF0CE
:1085F00000009FED84BB9FED85CB9FED86AB874C44
:108600009FED878B0ED001297ED1D4F89C00B0EE6F
:10861000489AF0EE689A07285FD0082860D00928A9
:1086200063D160E0606FFBF710F941EC190B28464D
:10863000FBF70BF941EC1D0B302000F0B7FC30F0DC
:10864000F90004D0B0EE4AEAF0EE6AEA03E0B0EED8
:1086500048EAF0EE68EA272000F0A8FC20F0F800D5
:10866000B4F87810401C0844FBF7EFF841EC100B0D
:1086700094F87A00012803D1B0EE48AAF0EE68AA77
:1086800053EC1A2B51EC100BFAF746FF53EC1E2B50
:10869000FAF742FF53EC1D2BFAF73EFF41EC100BAB
:1086A00094F87C00012801D19FED5F8B51EC100BF9
:1086B00053EC182BFAF730FF53EC1B2BFAF7D3FFD0
:1086C00053EC192BFBF741F853EC1C2BFAF7CBFFBB
:1086D00041EC100B02F044F989E09FED559B04E05A
:1086E0009FED559B01E09FED569B54F8A06F012034
:1086F000B040FBF799F841EC100B51EC190B53EC1F
:10870000102BFBF722F800E079E041EC100B51EC64
:108710001A0B53EC102BFBF718F841EC190BE088FF
:10872000FBF793F89FED481B53EC112BFAF7F4FE7F
:1087300053EC192BFAF797FF41EC1D0B6079001DE4
:10874000FBF783F841EC1E0B2079A03C00B102201E
:10875000301A8000FBF779F841EC1A0BE8007142FF
:1087600000EB810094F8AA1000EB011094F8A81017
:1087700001B11421401A1C30FBF767F853EC1A2B97
:10878000FAF7E3FF41EC100B01F0D2FF53EC1E2B84
:1087900051EC100BFAF767FF41EC1A0B53EC182B56
:1087A000FBF7C4F803D2B0EE4A8AF0EE6A8A53ECC3
:1087B0001B2B51EC180BFAF7AFFE53EC192BFAF701
:1087C00052FF41EC100B51EC1D0B53EC102BFAF740
:1087D000A3FE53EC1C2BFAF746FF9FED1D1B53EC39
:1087E000112BFAF799FE41EC100B02F02DF8BDECBD
:1087F0000E8B51EC100BBDE87040FBF752B8BDEC8E
:108800000E8B70BD00000000000020400000000042
:1088100000408F40000000000000F03FF0420020C8
:108820000000000000000000000000000000004008
:10883000000000008084FE400000000080840E41A3
:108840000000000080841E41000000000000114074
:108850002B8716D9CEF7EF3F70B51A4908601A4931
:108860001A4801F0F9FD19481749283001F0F4FDC4
:1088700016481549503001F0EFFD00F0D3FBFFF72B
:108880000FFE002000F0FAFC0E48001D00F06EF80C
:108890000F4D002404EB4406A85D00F0B3FC7019F2
:1088A0008178407801F0ACF9641CE4B2102CF1D36B
:1088B000002000F0A7FC05490020C03981F85C00C9
:1088C00070BD00008C2B0020898E0200B043002078
:1088D000542303007FB50E2000900B230C220D21A2
:1088E000214801F0AFFB012400251F48CDE90054C9
:1088F0002346224606214038FBF730FDCDE90054DF
:1089000000230122052102A8FBF728FDCDE9005430
:1089100000230122172102A8FBF720FD12480023A3
:108920001A4607213038CDE90045FBF717FD0E4800
:1089300000231A4608212838CDE90045FBF70EFD33
:10894000094800231A4609212038CDE90045FBF7E4
:1089500005FD054800231A460A211838CDE90045CF
:10896000FBF7FCFC7FBD00003043002010B504463F
:108970000368032201210D48FBF72AFD0B4803225F
:10898000012108306368FBF723FD08480322012119
:108990001030A368FBF71CFD0448E36803220121A3
:1089A000BDE810401830FBF713BD00000043002065
:1089B0002DE9F0411D4617460E468046012400F081
:1089C00021FC304600F0E0FB052000F057FC0120C0
:1089D000FBF7B9FB01F034FD064606E0404600F027
:1089E00001FBB84201DD002404E0304601F02AFD1D
:1089F000A842F3D300F01EFF2046BDE8F08100003E
:108A0000F8B500258DF80050904C914E94F85C001C
:108A100001280AD0022854D104F1C00001F053FD0E
:108A200094F85D0001287DD100E194F85D00B8B1B3
:108A3000012846D14021122001F0E2F8122000F076
:108A4000B5FA8DF800009DF8000080066BD5202156
:108A5000122001F0D5F894F8AE0000287DD08CE00B
:108A600094F87C00012833D13F2000F09FFA8DF864
:108A700000009DF8000080072AD40B213E2001F061
:108A8000BFF810213F2001F0BBF87048E83001F03A
:108A90001AFD94F87E00A8B10D2000F087FA40F08E
:108AA00040010D2001F0ACF86A4801F0EBFC3068A1
:108AB00010B1006900B1804704F8885F6570A58136
:108AC0006581F8BD634801F0FEFC84F85C50EEE778
:108AD000B4F89200604F10B9B4F8941031B1B4F802
